{"contracts/AfetiDevranArbitrage.sol":{"AfetiDevranArbitrage":{"abi":[{"inputs":[],"stateMutability":"nonpayable","type":"constructor"},{"anonymous":false,"inputs":[{"indexed":false,"internalType":"uint256","name":"netProfit","type":"uint256"},{"indexed":true,"internalType":"address","name":"asset","type":"address"}],"name":"ArbitrageSuccess","type":"event"},{"anonymous":false,"inputs":[{"indexed":false,"internalType":"string","name":"issue","type":"string"},{"indexed":false,"internalType":"string","name":"solution","type":"string"}],"name":"AutoRepairTriggered","type":"event"},{"anonymous":false,"inputs":[{"indexed":false,"internalType":"string","name":"reason","type":"string"},{"indexed":false,"internalType":"uint256","name":"attemptNumber","type":"uint256"}],"name":"FailureLogged","type":"event"},{"anonymous":false,"inputs":[{"indexed":false,"internalType":"uint256","name":"failureCount","type":"uint256"}],"name":"KillSwitchActivated","type":"event"},{"anonymous":false,"inputs":[{"indexed":false,"internalType":"uint256","name":"usdc_weth_price","type":"uint256"},{"indexed":false,"internalType":"uint256","name":"weth_usdc_price","type":"uint256"},{"indexed":false,"internalType":"uint256","name":"spread","type":"uint256"}],"name":"MarketDataCaptured","type":"event"},{"anonymous":false,"inputs":[{"indexed":false,"internalType":"address[]","name":"assets","type":"address[]"},{"indexed":false,"internalType":"uint256[]","name":"amounts","type":"uint256[]"}],"name":"MultiFlashLoanInitiated","type":"event"},{"anonymous":false,"inputs":[{"indexed":false,"internalType":"string","name":"paramName","type":"string"},{"indexed":false,"internalType":"uint256","name":"oldValue","type":"uint256"},{"indexed":false,"internalType":"uint256","name":"newValue","type":"uint256"}],"name":"ParameterUpdated","type":"event"},{"anonymous":false,"inputs":[{"indexed":false,"internalType":"string","name":"exchange","type":"string"},{"indexed":false,"internalType":"uint256","name":"inputAmount","type":"uint256"},{"indexed":false,"internalType":"uint256","name":"outputAmount","type":"uint256"}],"name":"SwapExecuted","type":"event"},{"inputs":[],"name":"ADDRESSES_PROVIDER","outputs":[{"internalType":"contract IPoolAddressesProvider","name":"","type":"address"}],"stateMutability":"view","type":"function"},{"inputs":[],"name":"POOL","outputs":[{"internalType":"contract IPool","name":"","type":"address"}],"stateMutability":"view","type":"function"},{"inputs":[],"name":"autoRepairEnabled","outputs":[{"internalType":"bool","name":"","type":"bool"}],"stateMutability":"view","type":"function"},{"inputs":[{"internalType":"uint256","name":"usdcWethPrice","type":"uint256"},{"internalType":"uint256","name":"wethUsdcPrice","type":"uint256"}],"name":"captureMarketData","outputs":[],"stateMutability":"nonpayable","type":"function"},{"inputs":[{"internalType":"bool","name":"enabled","type":"bool"}],"name":"enableAutoRepair","outputs":[],"stateMutability":"nonpayable","type":"function"},{"inputs":[{"internalType":"string","name":"","type":"string"}],"name":"errorFrequency","outputs":[{"internalType":"uint256","name":"","type":"uint256"}],"stateMutability":"view","type":"function"},{"inputs":[{"internalType":"address","name":"tradeAsset","type":"address"},{"internalType":"uint256","name":"tradeAmount","type":"uint256"},{"internalType":"address","name":"gasAsset","type":"address"},{"internalType":"uint256","name":"gasAmount","type":"uint256"}],"name":"executeMultiFlashLoan","outputs":[],"stateMutability":"nonpayable","type":"function"},{"inputs":[{"internalType":"address[]","name":"assets","type":"address[]"},{"internalType":"uint256[]","name":"amounts","type":"uint256[]"},{"internalType":"uint256[]","name":"premiums","type":"uint256[]"},{"internalType":"address","name":"initiator","type":"address"},{"internalType":"bytes","name":"params","type":"bytes"}],"name":"executeOperation","outputs":[{"internalType":"bool","name":"","type":"bool"}],"stateMutability":"nonpayable","type":"function"},{"inputs":[],"name":"isStopped","outputs":[{"internalType":"bool","name":"","type":"bool"}],"stateMutability":"view","type":"function"},{"inputs":[{"internalType":"string","name":"errorMsg","type":"string"}],"name":"logError","outputs":[],"stateMutability":"nonpayable","type":"function"},{"inputs":[],"name":"minProfitThreshold","outputs":[{"internalType":"uint256","name":"","type":"uint256"}],"stateMutability":"view","type":"function"},{"inputs":[],"name":"owner","outputs":[{"internalType":"address","name":"","type":"address"}],"stateMutability":"view","type":"function"},{"inputs":[{"internalType":"uint256","name":"","type":"uint256"}],"name":"recentErrors","outputs":[{"internalType":"string","name":"","type":"string"}],"stateMutability":"view","type":"function"},{"inputs":[],"name":"resetKillSwitch","outputs":[],"stateMutability":"nonpayable","type":"function"},{"inputs":[{"internalType":"address","name":"_watchdog","type":"address"}],"name":"setWatchdogAddress","outputs":[],"stateMutability":"nonpayable","type":"function"},{"inputs":[],"name":"slippageTolerance","outputs":[{"internalType":"uint256","name":"","type":"uint256"}],"stateMutability":"view","type":"function"},{"inputs":[{"internalType":"uint256","name":"newMinProfit","type":"uint256"}],"name":"updateMinProfit","outputs":[],"stateMutability":"nonpayable","type":"function"},{"inputs":[{"internalType":"uint256","name":"newTolerance","type":"uint256"}],"name":"updateSlippageTolerance","outputs":[],"stateMutability":"nonpayable","type":"function"},{"inputs":[],"name":"watchdogAddress","outputs":[{"internalType":"address","name":"","type":"address"}],"stateMutability":"view","type":"function"},{"inputs":[{"internalType":"address","name":"token","type":"address"}],"name":"withdrawToken","outputs":[],"stateMutability":"nonpayable","type":"function"}],"evm":{"bytecode":{"linkReferences":{},"object":"60e080604052346100e6576103e3600090815560646001556002805460ff60a01b1916600160a01b1790556003556004805460ff191690553360805273a97684ead0e402dc232d5a524153d7b0b733b4e360a05273794a61358d6845594f94dc1db02a252b5b4814ad60c0526121fd90816100ec823960805181818161016b0152818161088e015281816109330152818161110701528181611145015281816111910152818161136e015281816118f801526119aa015260a05181611b08015260c05181818161026c0152818161073301528181610799015281816112e801526114800152f35b600080fdfe608080604052600436101561001357600080fd5b600090813560e01c90816303116b8914611b37575080630542975c14611af25780630f9da743146119f857806338ef4c3d14611985578063393c412c146118e15780633b42e5e21461184c5780633f683b6a14611829578063442017cc146116af5780634af62206146115a45780636ac59057146113355780637341ab8c146113175780637535d246146112d257806389476069146111745780638da5cb5b1461112f57806390f3707614611007578063920f5c84146101d7578063a361342f146101ae578063c69985ee14610142578063d03153aa146101255763ef0a1751146100fd57600080fd5b34610122578060031936011261012257602060ff60025460a01c166040519015158152f35b80fd5b503461012257806003193601126101225760209054604051908152f35b50346101225760203660031901126101225761015c611d00565b6001600160a01b0390610192337f0000000000000000000000000000000000000000000000000000000000000000841614611d47565b166bffffffffffffffffffffffff60a01b600254161760025580f35b50346101225780600319360112610122576002546040516001600160a01b039091168152602090f35b50346101225760a03660031901126101225767ffffffffffffffff6004358181116110035761020a903690600401611d16565b602435838111610fff57610222903690600401611d16565b93604435818111610ffb5761023b903690600401611d16565b9490916064356001600160a01b03811603610c3b57608435908111610ff757610268903690600401611c4b565b50507f00000000000000000000000000000000000000000000000000000000000000006001600160a01b03163303610fb25760ff60045416610f5e578315610f4a576102b381611e3f565b9360011015610f4a5760206102c89101611e3f565b948015610f4a5760011015610f36578315610f36576102e981358335611e53565b9360011015610f365760206103049101356020830135611e53565b6040516370a0823160e01b81523060048201529092906020816024816001600160a01b0386165afa8015610c87578790610f02575b6103469150833590611e76565b91737ceb23fd6bc0add59e62ac25578270cff1b9f6196001600160a01b0383168114610ee7575b60405163095ea7b360e01b815273a5e0829caced8ffdd4de3c43696c57f7d7a678ff6004820152823560248201526020816044818c6001600160a01b0389165af18015610b3b57610ec8575b506040516103c681611bd4565b6002815260403660208301376001600160a01b0384166103e582611d9d565b526103ef81611daa565b6001600160a01b03831690524261012c810110610e4d5788610440916103e861041a83548735611e9b565b0460405193849283926338ed173960e01b845261012c42019130918a3560048701611f2a565b03818373a5e0829caced8ffdd4de3c43696c57f7d7a678ff5af1908115610b3b578991610eae575b50805180600019810111610e9a576104a87f1aa376f6c3660ad1294c58a3a8ebee1be7c326c3c8a9c3d2ed91f3e7c8167a2a9260a0926000190190611dba565b5193604051906060825260096060830152680517569636b537761760bc1b6080830152356020820152846040820152a160405163095ea7b360e01b8152731b02da8cb0d097eb8d57a175b88c7d8b47997506600482015260248101839052908890602083604481856001600160a01b0386165af1928315610ddb576105a093610e7b575b506040519061053a82611bd4565b6002825260403660208401376001600160a01b031661055882611d9d565b526001600160a01b03851661056c82611daa565b526103e861057b835486611e9b565b0460405193849283926338ed173960e01b845261012c42019130918960048701611f2a565b038183731b02da8cb0d097eb8d57a175b88c7d8b479975065af1908115610c48578891610e61575b50805180600019810111610e4d579161060960a0927f1aa376f6c3660ad1294c58a3a8ebee1be7c326c3c8a9c3d2ed91f3e7c8167a2a946000190190611dba565b516040519160608352600960608401526805375736869537761760bc1b608084015260208301526040820152a16040516370a0823160e01b81523060048201526020816024816001600160a01b0386165afa908115610c87578791610e1b575b506040516370a0823160e01b815230600482015287906020816024816001600160a01b038c165afa908115610ddb578291610de6575b50858110610c92575b50506040516370a0823160e01b81523060048201529490506020856024816001600160a01b0386165afa948515610c87578795610c53575b506040516370a0823160e01b8152306004820152926020846024816001600160a01b038b165afa938415610c48578894610c0f575b50818610610bb957848410610b655760405163095ea7b360e01b81527f00000000000000000000000000000000000000000000000000000000000000006001600160a01b0316600482015260248101839052602081806044810103818c6001600160a01b0389165af18015610b3b57610b46575b5060405163095ea7b360e01b81527f00000000000000000000000000000000000000000000000000000000000000006001600160a01b031660048201526024810186905290602082806044810103818c6001600160a01b038d165af1918215610b3b5761080592610b1c575b506108008388611e76565b611e76565b9081156109b25760038890556040519182528795610853926001600160a01b038516907f480ed265ba9142fb949fe7ff65880fe1244f8f4d6c80cfa8759f5d87e8d3bccf90602090a2611e76565b8061091c575b50506108659250611e76565b9081610877575b602060405160018152f35b60405163a9059cbb60e01b81526001600160a01b037f00000000000000000000000000000000000000000000000000000000000000008116600483015260248201939093529291602091849160449183918691165af190811561091057506108e1575b808061086c565b6109029060203d602011610909575b6108fa8183611c06565b810190611e83565b50386108da565b503d6108f0565b604051903d90823e3d90fd5b60405163a9059cbb60e01b81526001600160a01b037f000000000000000000000000000000000000000000000000000000000000000081166004830152602482019290925294602092869260449284929091165af19283156109a75761086593610988575b8593610859565b6109a09060203d602011610909576108fa8183611c06565b5038610981565b6040513d87823e3d90fd5b6109bd600354611f63565b7f8f112d5fa1bd402e65a01266ee77605e7eab3204fac5336580cab66a03b8914d608060405160408152601960408201527f4e65676174697665206172626974726167652070726f666974000000000000006060820152836020820152a16003811015610a9a5760405162461bcd60e51b815260206004820152604260248201527f41726269747261676520756e70726f66697461626c65202d20696e737566666960448201527f6369656e7420737072656164206f722065786365737369766520736c69707061606482015261676560f01b608482015260a490fd5b60207fd0ca21e9326df06d11abee438088c4a3b9e87ce126ba6b8f0621013e78c568af91604051908152a160405162461bcd60e51b815260206004820152602960248201527f4b696c6c2053776974636820747269676765726564202d2033206661696c656460448201526820617474656d70747360b81b6064820152608490fd5b610b349060203d602011610909576108fa8183611c06565b50386107f5565b6040513d8b823e3d90fd5b610b5e9060203d602011610909576108fa8183611c06565b5038610789565b60405162461bcd60e51b815260206004820152602660248201527f496e73756666696369656e74206761732062616c616e636520666f7220726570604482015265185e5b595b9d60d21b6064820152608490fd5b60405162461bcd60e51b815260206004820152602860248201527f496e73756666696369656e742074726164652062616c616e636520666f722072604482015267195c185e5b595b9d60c21b6064820152608490fd5b9093506020813d602011610c40575b81610c2b60209383611c06565b81010312610c3b57519238610715565b600080fd5b3d9150610c1e565b6040513d8a823e3d90fd5b9094506020813d602011610c7f575b81610c6f60209383611c06565b81010312610c3b575193386106e0565b3d9150610c62565b6040513d89823e3d90fd5b610c9c9086611e76565b60405163095ea7b360e01b815273a5e0829caced8ffdd4de3c43696c57f7d7a678ff60048201526024810193909352602083604481856001600160a01b0389165af1928315610ddb57610d5e93610dbc575b5060405190610cfc82611bd4565b6002825260403660208401376001600160a01b038516610d1b83611d9d565b526001600160a01b038916610d2f83611daa565b5260405193849283926338ed173960e01b8452600484015284602484015260a0604484015260a4830190611dce565b30606483015261012c4201608483015203818373a5e0829caced8ffdd4de3c43696c57f7d7a678ff5af18015610c8757610d9a575b86816106a8565b610db5903d8089833e610dad8183611c06565b810190611eae565b5038610d93565b610dd49060203d602011610909576108fa8183611c06565b5038610cee565b6040513d84823e3d90fd5b9150506020813d602011610e13575b81610e0260209383611c06565b81010312610c3b578790513861069f565b3d9150610df5565b90506020813d602011610e45575b81610e3660209383611c06565b81010312610c3b575138610669565b3d9150610e29565b634e487b7160e01b89526011600452602489fd5b610e7591503d808a833e610dad8183611c06565b386105c8565b610e939060203d602011610909576108fa8183611c06565b503861052c565b634e487b7160e01b8a52601160045260248afd5b610ec291503d808b833e610dad8183611c06565b38610468565b610ee09060203d602011610909576108fa8183611c06565b50386103b9565b50732791bca1f2de4661ed88a30c99a7a9449aa8417461036d565b506020813d602011610f2e575b81610f1c60209383611c06565b81010312610c3b576103469051610339565b3d9150610f0f565b634e487b7160e01b86526032600452602486fd5b634e487b7160e01b87526032600452602487fd5b60405162461bcd60e51b815260206004820152602660248201527f4b696c6c2053776974636820616374697665202d206f7065726174696f6e20626044820152651b1bd8dad95960d21b6064820152608490fd5b60405162461bcd60e51b815260206004820152601860248201527f43616c6c6572206d757374206265204161766520506f6f6c00000000000000006044820152606490fd5b8780fd5b8680fd5b8480fd5b8280fd5b503461012257604036600319011261012257600254602435906004359061104390336001600160a01b0391821614908115611103575b50611f72565b808211156110d7576110558183611e76565b90612710918281029281840414901517156110c35780156110ad577f16e812c03e46720953cef9af093f36f5c56311c55ae93b1eb127561aef6b0cf7928160609304905b60405192835260208301526040820152a180f35b634e487b7160e01b600052601260045260246000fd5b634e487b7160e01b84526011600452602484fd5b6060907f16e812c03e46720953cef9af093f36f5c56311c55ae93b1eb127561aef6b0cf7928490611099565b90507f00000000000000000000000000000000000000000000000000000000000000001633143861103d565b50346101225780600319360112610122576040517f00000000000000000000000000000000000000000000000000000000000000006001600160a01b03168152602090f35b5034610122576020806003193601126112ce5761118f611d00565b7f0000000000000000000000000000000000000000000000000000000000000000906001600160a01b03906111c73383851614611d47565b16604051916370a0823160e01b83523060048401528383602481855afa9283156109a757859361129f575b5082156112625760405163a9059cbb60e01b81526001600160a01b03919091166004820152602481019290925282908290604490829087905af180156112575761123a578280f35b8161125092903d10610909576108fa8183611c06565b5038808280f35b6040513d85823e3d90fd5b60405162461bcd60e51b81526004810185905260156024820152744e6f20746f6b656e7320746f20776974686472617760581b6044820152606490fd5b9092508381813d83116112c7575b6112b78183611c06565b81010312610c3b575191386111f2565b503d6112ad565b5080fd5b50346101225780600319360112610122576040517f00000000000000000000000000000000000000000000000000000000000000006001600160a01b03168152602090f35b50346101225780600319360112610122576020600154604051908152f35b5034610122576003196080368201126112ce57611350611d00565b906001600160a01b036044358181169290839003610fff57611395827f0000000000000000000000000000000000000000000000000000000000000000163314611d47565b60ff60045416611553578492604051946113ae86611bd4565b600286526040366020880137836113c487611d9d565b911690526113d185611daa565b52604051936113df85611bd4565b6002855260403660208701376024356113f786611d9d565b5260643561140486611daa565b526040519261141284611bd4565b6002845260403660208601378461142885611d9d565b528461143385611daa565b527f2494a915d576b32d2d414c253b041f04e4be248421bd2a389d8dd8acd08c6a6f604051604081528061147b61146d6040830187611dce565b82810360208401528a611e0b565b0390a17f00000000000000000000000000000000000000000000000000000000000000001691823b15610fff5760208591826115006114e0976114f06040519b8c9a8b9963ab9c4b5d60e01b8b523060048c015260e060248c015260e48b0190611dce565b90868a83030160448b0152611e0b565b9084888303016064890152611e0b565b30608487015285810392830160a4870152528260c485015201925af18015610ddb5761152a575080f35b67ffffffffffffffff811161153f5760405280f35b634e487b7160e01b82526041600452602482fd5b60405162461bcd60e51b815260206004820152602360248201527f4b696c6c2053776974636820616374697661746564202d20626f742073746f706044820152621c195960ea1b6064820152608490fd5b50346101225760209081600319360112610122576004356006548110156112ce576115ce90611c79565b61169b5760405190828482546115e381611cc6565b92838652828601946001928381169081600014611679575060011461163e575b8360408888611614828d0383611c06565b6116308351948593818552519283809286015285850190611c28565b601f01601f19168101030190f35b908094939750528583205b828410611666575050508201909201916116148460408438611603565b8054868501880152928601928101611649565b60ff191687525050505090151560051b83010192506116148460408438611603565b634e487b7160e01b82526004829052602482fd5b50346101225760203660031901126101225760043567ffffffffffffffff81116112ce576116e1903690600401611c4b565b60025491929161170590336001600160a01b03918216149081156111035750611f72565b6040518184823760208183810160058152030190206117248154611f63565b9055600692600a84541060001461177a5783549368010000000000000000851015611766578461175d9160016117639697019055611c79565b906120ea565b80f35b634e487b7160e01b84526041600452602484fd5b908293925b835460001981019081116117e2578110156117f657600181018082116117e2576117a890611c79565b506117b282611c79565b6117ce576117c992916117c49161200b565b611f63565b61177f565b634e487b7160e01b87526004879052602487fd5b634e487b7160e01b86526011600452602486fd5b50915460001981019392919084116118155761175d6117639394611c79565b634e487b7160e01b83526011600452602483fd5b5034610122578060031936011261012257602060ff600454166040519015158152f35b5034610122576020366003190112610122577f185daf617c465de5e0042f7aae1503b1a216ea8927cacf296e58b516e82afea860a06004356118a1600180841b03806002541633149081156111035750611f72565b6001549080600155604051916060835260126060840152711b5a5b941c9bd99a5d151a1c995cda1bdb1960721b608084015260208301526040820152a180f35b5034610122578060031936011261012257611926337f00000000000000000000000000000000000000000000000000000000000000006001600160a01b031614611d47565b60045460ff8116156119405760ff19166004558060035580f35b60405162461bcd60e51b815260206004820152601960248201527f4b696c6c20537769746368206973206e6f7420616374697665000000000000006044820152606490fd5b5034610122576020366003190112610122576004358015158091036112ce576119d8337f00000000000000000000000000000000000000000000000000000000000000006001600160a01b031614611d47565b6002805460ff60a01b191660a09290921b60ff60a01b1691909117905580f35b50346101225760203660031901126101225760025460043590611a2f90336001600160a01b03918216149081156111035750611f72565b61038481101580611ae6575b15611aa15760a07f185daf617c465de5e0042f7aae1503b1a216ea8927cacf296e58b516e82afea89183549080855560405191606083526011606084015270736c697070616765546f6c6572616e636560781b608084015260208301526040820152a180f35b60405162461bcd60e51b815260206004820152601a60248201527f496e76616c696420736c697070616765202839302d31303025290000000000006044820152606490fd5b506103e8811115611a3b565b50346101225780600319360112610122576040517f00000000000000000000000000000000000000000000000000000000000000006001600160a01b03168152602090f35b823461012257602091826003193601126112ce576004359167ffffffffffffffff8084116112ce57366023850112156112ce57836004013590811161153f57611b89601f8201601f1916860184611c06565b808352848301933660248383010111611003579185828195936024611bc1989601863783010152604051938492839251928391611c28565b8101600581520301902054604051908152f35b6060810190811067ffffffffffffffff821117611bf057604052565b634e487b7160e01b600052604160045260246000fd5b90601f8019910116810190811067ffffffffffffffff821117611bf057604052565b60005b838110611c3b5750506000910152565b8181015183820152602001611c2b565b9181601f84011215610c3b5782359167ffffffffffffffff8311610c3b5760208381860195010111610c3b57565b600654811015611cb05760066000527ff652222313e28459528d920b65115c16c04f3efc82aaedc97be59f3f377c0d3f0190600090565b634e487b7160e01b600052603260045260246000fd5b90600182811c92168015611cf6575b6020831014611ce057565b634e487b7160e01b600052602260045260246000fd5b91607f1691611cd5565b600435906001600160a01b0382168203610c3b57565b9181601f84011215610c3b5782359167ffffffffffffffff8311610c3b576020808501948460051b010111610c3b57565b15611d4e57565b60405162461bcd60e51b815260206004820152602160248201527f4f6e6c7920636f6e7472616374206f776e65722063616e2063616c6c207468696044820152607360f81b6064820152608490fd5b805115611cb05760200190565b805160011015611cb05760400190565b8051821015611cb05760209160051b010190565b90815180825260208080930193019160005b828110611dee575050505090565b83516001600160a01b031685529381019392810192600101611de0565b90815180825260208080930193019160005b828110611e2b575050505090565b835185529381019392810192600101611e1d565b356001600160a01b0381168103610c3b5790565b91908201809211611e6057565b634e487b7160e01b600052601160045260246000fd5b91908203918211611e6057565b90816020910312610c3b57518015158103610c3b5790565b81810292918115918404141715611e6057565b906020908183820312610c3b57825167ffffffffffffffff93848211610c3b570181601f82011215610c3b578051938411611bf0578360051b9060405194611ef885840187611c06565b85528380860192820101928311610c3b578301905b828210611f1b575050505090565b81518152908301908301611f0d565b9192608093611f4f92979695978452602084015260a0604084015260a0830190611dce565b6001600160a01b0390951660608201520152565b6000198114611e605760010190565b15611f7957565b60405162461bcd60e51b815260206004820152601660248201527527b7363c903bb0ba31b43237b39037b91037bbb732b960511b6044820152606490fd5b90601f8111611fc557505050565b600091825260208220906020601f850160051c83019410612001575b601f0160051c01915b828110611ff657505050565b818155600101611fea565b9092508290611fe1565b908082146120e65761201d8154611cc6565b9067ffffffffffffffff8211611bf05781906120438261203d8654611cc6565b86611fb7565b600090601f831160011461207a5760009261206f575b50508160011b916000199060031b1c1916179055565b015490503880612059565b81526020808220858352818320935090601f1985169083905b8282106120cd5750509084600195949392106120b4575b505050811b019055565b015460001960f88460031b161c191690553880806120aa565b8495819295850154815560018091019601940190612093565b5050565b919392906121b15767ffffffffffffffff8111611bf0576121158161210f8454611cc6565b84611fb7565b6000601f821160011461214e57819293946000926121435750508160011b916000199060031b1c1916179055565b013590503880612059565b601f198216948382526020918281209281905b8882106121995750508360019596971061217f57505050811b019055565b0135600019600384901b60f8161c191690553880806120aa565b80600184968294958701358155019501920190612161565b634e487b7160e01b600052600060045260246000fdfea26469706673582212202817b23100f5f6b9896776282e615a0d50effb7b7e2c80380d57cf7d48415a2464736f6c63430008140033","opcodes":"PUSH1 0xE0 DUP1 PUSH1 0x40 MSTORE CALLVALUE PUSH2 0xE6 JUMPI PUSH2 0x3E3 PUSH1 0x0 SWAP1 DUP2 SSTORE PUSH1 0x64 PUSH1 0x1 SSTORE PUSH1 0x2 DUP1 SLOAD PUSH1 0xFF PUSH1 0xA0 SHL NOT AND PUSH1 0x1 PUSH1 0xA0 SHL OR SWAP1 SSTORE PUSH1 0x3 SSTORE PUSH1 0x4 DUP1 SLOAD PUSH1 0xFF NOT AND SWAP1 SSTORE CALLER PUSH1 0x80 MSTORE PUSH20 0xA97684EAD0E402DC232D5A524153D7B0B733B4E3 PUSH1 0xA0 MSTORE PUSH20 0x794A61358D6845594F94DC1DB02A252B5B4814AD PUSH1 0xC0 MSTORE PUSH2 0x21FD SWAP1 DUP2 PUSH2 0xEC DUP3 CODECOPY PUSH1 0x80 MLOAD DUP2 DUP2 DUP2 PUSH2 0x16B ADD MSTORE DUP2 DUP2 PUSH2 0x88E ADD MSTORE DUP2 DUP2 PUSH2 0x933 ADD MSTORE DUP2 DUP2 PUSH2 0x1107 ADD MSTORE DUP2 DUP2 PUSH2 0x1145 ADD MSTORE DUP2 DUP2 PUSH2 0x1191 ADD MSTORE DUP2 DUP2 PUSH2 0x136E ADD MSTORE DUP2 DUP2 PUSH2 0x18F8 ADD MSTORE PUSH2 0x19AA ADD MSTORE PUSH1 0xA0 MLOAD DUP2 PUSH2 0x1B08 ADD MSTORE PUSH1 0xC0 MLOAD DUP2 DUP2 DUP2 PUSH2 0x26C ADD MSTORE DUP2 DUP2 PUSH2 0x733 ADD MSTORE DUP2 DUP2 PUSH2 0x799 ADD MSTORE DUP2 DUP2 PUSH2 0x12E8 ADD MSTORE PUSH2 0x1480 ADD MSTORE RETURN JUMPDEST PUSH1 0x0 DUP1 REVERT INVALID PUSH1 0x80 DUP1 PUSH1 0x40 MSTORE PUSH1 0x4 CALLDATASIZE LT ISZERO PUSH2 0x13 JUMPI PUSH1 0x0 DUP1 REVERT JUMPDEST PUSH1 0x0 SWAP1 DUP2 CALLDATALOAD PUSH1 0xE0 SHR SWAP1 DUP2 PUSH4 0x3116B89 EQ PUSH2 0x1B37 JUMPI POP DUP1 PUSH4 0x542975C EQ PUSH2 0x1AF2 JUMPI DUP1 PUSH4 0xF9DA743 EQ PUSH2 0x19F8 JUMPI DUP1 PUSH4 0x38EF4C3D EQ PUSH2 0x1985 JUMPI DUP1 PUSH4 0x393C412C EQ PUSH2 0x18E1 JUMPI DUP1 PUSH4 0x3B42E5E2 EQ PUSH2 0x184C JUMPI DUP1 PUSH4 0x3F683B6A EQ PUSH2 0x1829 JUMPI DUP1 PUSH4 0x442017CC EQ PUSH2 0x16AF JUMPI DUP1 PUSH4 0x4AF62206 EQ PUSH2 0x15A4 JUMPI DUP1 PUSH4 0x6AC59057 EQ PUSH2 0x1335 JUMPI DUP1 PUSH4 0x7341AB8C EQ PUSH2 0x1317 JUMPI DUP1 PUSH4 0x7535D246 EQ PUSH2 0x12D2 JUMPI DUP1 PUSH4 0x89476069 EQ PUSH2 0x1174 JUMPI DUP1 PUSH4 0x8DA5CB5B EQ PUSH2 0x112F JUMPI DUP1 PUSH4 0x90F37076 EQ PUSH2 0x1007 JUMPI DUP1 PUSH4 0x920F5C84 EQ PUSH2 0x1D7 JUMPI DUP1 PUSH4 0xA361342F EQ PUSH2 0x1AE JUMPI DUP1 PUSH4 0xC69985EE EQ PUSH2 0x142 JUMPI DUP1 PUSH4 0xD03153AA EQ PUSH2 0x125 JUMPI PUSH4 0xEF0A1751 EQ PUSH2 0xFD JUMPI PUSH1 0x0 DUP1 REVERT JUMPDEST CALLVALUE PUSH2 0x122 JUMPI DUP1 PUSH1 0x3 NOT CALLDATASIZE ADD SLT PUSH2 0x122 JUMPI PUSH1 0x20 PUSH1 0xFF PUSH1 0x2 SLOAD PUSH1 0xA0 SHR AND PUSH1 0x40 MLOAD SWAP1 ISZERO ISZERO DUP2 MSTORE RETURN JUMPDEST DUP1 REVERT JUMPDEST POP CALLVALUE PUSH2 0x122 JUMPI DUP1 PUSH1 0x3 NOT CALLDATASIZE ADD SLT PUSH2 0x122 JUMPI PUSH1 0x20 SWAP1 SLOAD PUSH1 0x40 MLOAD SWAP1 DUP2 MSTORE RETURN JUMPDEST POP CALLVALUE PUSH2 0x122 JUMPI PUSH1 0x20 CALLDATASIZE PUSH1 0x3 NOT ADD SLT PUSH2 0x122 JUMPI PUSH2 0x15C PUSH2 0x1D00 JUMP JUMPDEST PUSH1 0x1 PUSH1 0x1 PUSH1 0xA0 SHL SUB SWAP1 PUSH2 0x192 CALLER PUSH32 0x0 DUP5 AND EQ PUSH2 0x1D47 JUMP JUMPDEST AND PUSH12 0xFFFFFFFFFFFFFFFFFFFFFFFF PUSH1 0xA0 SHL PUSH1 0x2 SLOAD AND OR PUSH1 0x2 SSTORE DUP1 RETURN JUMPDEST POP CALLVALUE PUSH2 0x122 JUMPI DUP1 PUSH1 0x3 NOT CALLDATASIZE ADD SLT PUSH2 0x122 JUMPI PUSH1 0x2 SLOAD PUSH1 0x40 MLOAD PUSH1 0x1 PUSH1 0x1 PUSH1 0xA0 SHL SUB SWAP1 SWAP2 AND DUP2 MSTORE PUSH1 0x20 SWAP1 RETURN JUMPDEST POP CALLVALUE PUSH2 0x122 JUMPI PUSH1 0xA0 CALLDATASIZE PUSH1 0x3 NOT ADD SLT PUSH2 0x122 JUMPI PUSH8 0xFFFFFFFFFFFFFFFF PUSH1 0x4 CALLDATALOAD DUP2 DUP2 GT PUSH2 0x1003 JUMPI PUSH2 0x20A SWAP1 CALLDATASIZE SWAP1 PUSH1 0x4 ADD PUSH2 0x1D16 JUMP JUMPDEST PUSH1 0x24 CALLDATALOAD DUP4 DUP2 GT PUSH2 0xFFF JUMPI PUSH2 0x222 SWAP1 CALLDATASIZE SWAP1 PUSH1 0x4 ADD PUSH2 0x1D16 JUMP JUMPDEST SWAP4 PUSH1 0x44 CALLDATALOAD DUP2 DUP2 GT PUSH2 0xFFB JUMPI PUSH2 0x23B SWAP1 CALLDATASIZE SWAP1 PUSH1 0x4 ADD PUSH2 0x1D16 JUMP JUMPDEST SWAP5 SWAP1 SWAP2 PUSH1 0x64 CALLDATALOAD PUSH1 0x1 PUSH1 0x1 PUSH1 0xA0 SHL SUB DUP2 AND SUB PUSH2 0xC3B JUMPI PUSH1 0x84 CALLDATALOAD SWAP1 DUP2 GT PUSH2 0xFF7 JUMPI PUSH2 0x268 SWAP1 CALLDATASIZE SWAP1 PUSH1 0x4 ADD PUSH2 0x1C4B JUMP JUMPDEST POP POP PUSH32 0x0 PUSH1 0x1 PUSH1 0x1 PUSH1 0xA0 SHL SUB AND CALLER SUB PUSH2 0xFB2 JUMPI PUSH1 0xFF PUSH1 0x4 SLOAD AND PUSH2 0xF5E JUMPI DUP4 ISZERO PUSH2 0xF4A JUMPI PUSH2 0x2B3 DUP2 PUSH2 0x1E3F JUMP JUMPDEST SWAP4 PUSH1 0x1 LT ISZERO PUSH2 0xF4A JUMPI PUSH1 0x20 PUSH2 0x2C8 SWAP2 ADD PUSH2 0x1E3F JUMP JUMPDEST SWAP5 DUP1 ISZERO PUSH2 0xF4A JUMPI PUSH1 0x1 LT ISZERO PUSH2 0xF36 JUMPI DUP4 ISZERO PUSH2 0xF36 JUMPI PUSH2 0x2E9 DUP2 CALLDATALOAD DUP4 CALLDATALOAD PUSH2 0x1E53 JUMP JUMPDEST SWAP4 PUSH1 0x1 LT ISZERO PUSH2 0xF36 JUMPI PUSH1 0x20 PUSH2 0x304 SWAP2 ADD CALLDATALOAD PUSH1 0x20 DUP4 ADD CALLDATALOAD PUSH2 0x1E53 JUMP JUMPDEST PUSH1 0x40 MLOAD PUSH4 0x70A08231 PUSH1 0xE0 SHL DUP2 MSTORE ADDRESS PUSH1 0x4 DUP3 ADD MSTORE SWAP1 SWAP3 SWAP1 PUSH1 0x20 DUP2 PUSH1 0x24 DUP2 PUSH1 0x1 PUSH1 0x1 PUSH1 0xA0 SHL SUB DUP7 AND GAS STATICCALL DUP1 ISZERO PUSH2 0xC87 JUMPI DUP8 SWAP1 PUSH2 0xF02 JUMPI JUMPDEST PUSH2 0x346 SWAP2 POP DUP4 CALLDATALOAD SWAP1 PUSH2 0x1E76 JUMP JUMPDEST SWAP2 PUSH20 0x7CEB23FD6BC0ADD59E62AC25578270CFF1B9F619 PUSH1 0x1 PUSH1 0x1 PUSH1 0xA0 SHL SUB DUP4 AND DUP2 EQ PUSH2 0xEE7 JUMPI JUMPDEST PUSH1 0x40 MLOAD PUSH4 0x95EA7B3 PUSH1 0xE0 SHL DUP2 MSTORE PUSH20 0xA5E0829CACED8FFDD4DE3C43696C57F7D7A678FF PUSH1 0x4 DUP3 ADD MSTORE DUP3 CALLDATALOAD PUSH1 0x24 DUP3 ADD MSTORE PUSH1 0x20 DUP2 PUSH1 0x44 DUP2 DUP13 PUSH1 0x1 PUSH1 0x1 PUSH1 0xA0 SHL SUB DUP10 AND GAS CALL DUP1 ISZERO PUSH2 0xB3B JUMPI PUSH2 0xEC8 JUMPI JUMPDEST POP PUSH1 0x40 MLOAD PUSH2 0x3C6 DUP2 PUSH2 0x1BD4 JUMP JUMPDEST PUSH1 0x2 DUP2 MSTORE PUSH1 0x40 CALLDATASIZE PUSH1 0x20 DUP4 ADD CALLDATACOPY PUSH1 0x1 PUSH1 0x1 PUSH1 0xA0 SHL SUB DUP5 AND PUSH2 0x3E5 DUP3 PUSH2 0x1D9D JUMP JUMPDEST MSTORE PUSH2 0x3EF DUP2 PUSH2 0x1DAA JUMP JUMPDEST PUSH1 0x1 PUSH1 0x1 PUSH1 0xA0 SHL SUB DUP4 AND SWAP1 MSTORE TIMESTAMP PUSH2 0x12C DUP2 ADD LT PUSH2 0xE4D JUMPI DUP9 PUSH2 0x440 SWAP2 PUSH2 0x3E8 PUSH2 0x41A DUP4 SLOAD DUP8 CALLDATALOAD PUSH2 0x1E9B JUMP JUMPDEST DIV PUSH1 0x40 MLOAD SWAP4 DUP5 SWAP3 DUP4 SWAP3 PUSH4 0x38ED1739 PUSH1 0xE0 SHL DUP5 MSTORE PUSH2 0x12C TIMESTAMP ADD SWAP2 ADDRESS SWAP2 DUP11 CALLDATALOAD PUSH1 0x4 DUP8 ADD PUSH2 0x1F2A JUMP JUMPDEST SUB DUP2 DUP4 PUSH20 0xA5E0829CACED8FFDD4DE3C43696C57F7D7A678FF GAS CALL SWAP1 DUP2 ISZERO PUSH2 0xB3B JUMPI DUP10 SWAP2 PUSH2 0xEAE JUMPI JUMPDEST POP DUP1 MLOAD DUP1 PUSH1 0x0 NOT DUP2 ADD GT PUSH2 0xE9A JUMPI PUSH2 0x4A8 PUSH32 0x1AA376F6C3660AD1294C58A3A8EBEE1BE7C326C3C8A9C3D2ED91F3E7C8167A2A SWAP3 PUSH1 0xA0 SWAP3 PUSH1 0x0 NOT ADD SWAP1 PUSH2 0x1DBA JUMP JUMPDEST MLOAD SWAP4 PUSH1 0x40 MLOAD SWAP1 PUSH1 0x60 DUP3 MSTORE PUSH1 0x9 PUSH1 0x60 DUP4 ADD MSTORE PUSH9 0x517569636B5377617 PUSH1 0xBC SHL PUSH1 0x80 DUP4 ADD MSTORE CALLDATALOAD PUSH1 0x20 DUP3 ADD MSTORE DUP5 PUSH1 0x40 DUP3 ADD MSTORE LOG1 PUSH1 0x40 MLOAD PUSH4 0x95EA7B3 PUSH1 0xE0 SHL DUP2 MSTORE PUSH20 0x1B02DA8CB0D097EB8D57A175B88C7D8B47997506 PUSH1 0x4 DUP3 ADD MSTORE PUSH1 0x24 DUP2 ADD DUP4 SWAP1 MSTORE SWAP1 DUP9 SWAP1 PUSH1 0x20 DUP4 PUSH1 0x44 DUP2 DUP6 PUSH1 0x1 PUSH1 0x1 PUSH1 0xA0 SHL SUB DUP7 AND GAS CALL SWAP3 DUP4 ISZERO PUSH2 0xDDB JUMPI PUSH2 0x5A0 SWAP4 PUSH2 0xE7B JUMPI JUMPDEST POP PUSH1 0x40 MLOAD SWAP1 PUSH2 0x53A DUP3 PUSH2 0x1BD4 JUMP JUMPDEST PUSH1 0x2 DUP3 MSTORE PUSH1 0x40 CALLDATASIZE PUSH1 0x20 DUP5 ADD CALLDATACOPY PUSH1 0x1 PUSH1 0x1 PUSH1 0xA0 SHL SUB AND PUSH2 0x558 DUP3 PUSH2 0x1D9D JUMP JUMPDEST MSTORE PUSH1 0x1 PUSH1 0x1 PUSH1 0xA0 SHL SUB DUP6 AND PUSH2 0x56C DUP3 PUSH2 0x1DAA JUMP JUMPDEST MSTORE PUSH2 0x3E8 PUSH2 0x57B DUP4 SLOAD DUP7 PUSH2 0x1E9B JUMP JUMPDEST DIV PUSH1 0x40 MLOAD SWAP4 DUP5 SWAP3 DUP4 SWAP3 PUSH4 0x38ED1739 PUSH1 0xE0 SHL DUP5 MSTORE PUSH2 0x12C TIMESTAMP ADD SWAP2 ADDRESS SWAP2 DUP10 PUSH1 0x4 DUP8 ADD PUSH2 0x1F2A JUMP JUMPDEST SUB DUP2 DUP4 PUSH20 0x1B02DA8CB0D097EB8D57A175B88C7D8B47997506 GAS CALL SWAP1 DUP2 ISZERO PUSH2 0xC48 JUMPI DUP9 SWAP2 PUSH2 0xE61 JUMPI JUMPDEST POP DUP1 MLOAD DUP1 PUSH1 0x0 NOT DUP2 ADD GT PUSH2 0xE4D JUMPI SWAP2 PUSH2 0x609 PUSH1 0xA0 SWAP3 PUSH32 0x1AA376F6C3660AD1294C58A3A8EBEE1BE7C326C3C8A9C3D2ED91F3E7C8167A2A SWAP5 PUSH1 0x0 NOT ADD SWAP1 PUSH2 0x1DBA JUMP JUMPDEST MLOAD PUSH1 0x40 MLOAD SWAP2 PUSH1 0x60 DUP4 MSTORE PUSH1 0x9 PUSH1 0x60 DUP5 ADD MSTORE PUSH9 0x53757368695377617 PUSH1 0xBC SHL PUSH1 0x80 DUP5 ADD MSTORE PUSH1 0x20 DUP4 ADD MSTORE PUSH1 0x40 DUP3 ADD MSTORE LOG1 PUSH1 0x40 MLOAD PUSH4 0x70A08231 PUSH1 0xE0 SHL DUP2 MSTORE ADDRESS PUSH1 0x4 DUP3 ADD MSTORE PUSH1 0x20 DUP2 PUSH1 0x24 DUP2 PUSH1 0x1 PUSH1 0x1 PUSH1 0xA0 SHL SUB DUP7 AND GAS STATICCALL SWAP1 DUP2 ISZERO PUSH2 0xC87 JUMPI DUP8 SWAP2 PUSH2 0xE1B JUMPI JUMPDEST POP PUSH1 0x40 MLOAD PUSH4 0x70A08231 PUSH1 0xE0 SHL DUP2 MSTORE ADDRESS PUSH1 0x4 DUP3 ADD MSTORE DUP8 SWAP1 PUSH1 0x20 DUP2 PUSH1 0x24 DUP2 PUSH1 0x1 PUSH1 0x1 PUSH1 0xA0 SHL SUB DUP13 AND GAS STATICCALL SWAP1 DUP2 ISZERO PUSH2 0xDDB JUMPI DUP3 SWAP2 PUSH2 0xDE6 JUMPI JUMPDEST POP DUP6 DUP2 LT PUSH2 0xC92 JUMPI JUMPDEST POP POP PUSH1 0x40 MLOAD PUSH4 0x70A08231 PUSH1 0xE0 SHL DUP2 MSTORE ADDRESS PUSH1 0x4 DUP3 ADD MSTORE SWAP5 SWAP1 POP PUSH1 0x20 DUP6 PUSH1 0x24 DUP2 PUSH1 0x1 PUSH1 0x1 PUSH1 0xA0 SHL SUB DUP7 AND GAS STATICCALL SWAP5 DUP6 ISZERO PUSH2 0xC87 JUMPI DUP8 SWAP6 PUSH2 0xC53 JUMPI JUMPDEST POP PUSH1 0x40 MLOAD PUSH4 0x70A08231 PUSH1 0xE0 SHL DUP2 MSTORE ADDRESS PUSH1 0x4 DUP3 ADD MSTORE SWAP3 PUSH1 0x20 DUP5 PUSH1 0x24 DUP2 PUSH1 0x1 PUSH1 0x1 PUSH1 0xA0 SHL SUB DUP12 AND GAS STATICCALL SWAP4 DUP5 ISZERO PUSH2 0xC48 JUMPI DUP9 SWAP5 PUSH2 0xC0F JUMPI JUMPDEST POP DUP2 DUP7 LT PUSH2 0xBB9 JUMPI DUP5 DUP5 LT PUSH2 0xB65 JUMPI PUSH1 0x40 MLOAD PUSH4 0x95EA7B3 PUSH1 0xE0 SHL DUP2 MSTORE PUSH32 0x0 PUSH1 0x1 PUSH1 0x1 PUSH1 0xA0 SHL SUB AND PUSH1 0x4 DUP3 ADD MSTORE PUSH1 0x24 DUP2 ADD DUP4 SWAP1 MSTORE PUSH1 0x20 DUP2 DUP1 PUSH1 0x44 DUP2 ADD SUB DUP2 DUP13 PUSH1 0x1 PUSH1 0x1 PUSH1 0xA0 SHL SUB DUP10 AND GAS CALL DUP1 ISZERO PUSH2 0xB3B JUMPI PUSH2 0xB46 JUMPI JUMPDEST POP PUSH1 0x40 MLOAD PUSH4 0x95EA7B3 PUSH1 0xE0 SHL DUP2 MSTORE PUSH32 0x0 PUSH1 0x1 PUSH1 0x1 PUSH1 0xA0 SHL SUB AND PUSH1 0x4 DUP3 ADD MSTORE PUSH1 0x24 DUP2 ADD DUP7 SWAP1 MSTORE SWAP1 PUSH1 0x20 DUP3 DUP1 PUSH1 0x44 DUP2 ADD SUB DUP2 DUP13 PUSH1 0x1 PUSH1 0x1 PUSH1 0xA0 SHL SUB DUP14 AND GAS CALL SWAP2 DUP3 ISZERO PUSH2 0xB3B JUMPI PUSH2 0x805 SWAP3 PUSH2 0xB1C JUMPI JUMPDEST POP PUSH2 0x800 DUP4 DUP9 PUSH2 0x1E76 JUMP JUMPDEST PUSH2 0x1E76 JUMP JUMPDEST SWAP1 DUP2 ISZERO PUSH2 0x9B2 JUMPI PUSH1 0x3 DUP9 SWAP1 SSTORE PUSH1 0x40 MLOAD SWAP2 DUP3 MSTORE DUP8 SWAP6 PUSH2 0x853 SWAP3 PUSH1 0x1 PUSH1 0x1 PUSH1 0xA0 SHL SUB DUP6 AND SWAP1 PUSH32 0x480ED265BA9142FB949FE7FF65880FE1244F8F4D6C80CFA8759F5D87E8D3BCCF SWAP1 PUSH1 0x20 SWAP1 LOG2 PUSH2 0x1E76 JUMP JUMPDEST DUP1 PUSH2 0x91C JUMPI JUMPDEST POP POP PUSH2 0x865 SWAP3 POP PUSH2 0x1E76 JUMP JUMPDEST SWAP1 DUP2 PUSH2 0x877 JUMPI JUMPDEST PUSH1 0x20 PUSH1 0x40 MLOAD PUSH1 0x1 DUP2 MSTORE RETURN JUMPDEST PUSH1 0x40 MLOAD PUSH4 0xA9059CBB PUSH1 0xE0 SHL DUP2 MSTORE PUSH1 0x1 PUSH1 0x1 PUSH1 0xA0 SHL SUB PUSH32 0x0 DUP2 AND PUSH1 0x4 DUP4 ADD MSTORE PUSH1 0x24 DUP3 ADD SWAP4 SWAP1 SWAP4 MSTORE SWAP3 SWAP2 PUSH1 0x20 SWAP2 DUP5 SWAP2 PUSH1 0x44 SWAP2 DUP4 SWAP2 DUP7 SWAP2 AND GAS CALL SWAP1 DUP2 ISZERO PUSH2 0x910 JUMPI POP PUSH2 0x8E1 JUMPI JUMPDEST DUP1 DUP1 PUSH2 0x86C JUMP JUMPDEST PUSH2 0x902 SWAP1 PUSH1 0x20 RETURNDATASIZE PUSH1 0x20 GT PUSH2 0x909 JUMPI JUMPDEST PUSH2 0x8FA DUP2 DUP4 PUSH2 0x1C06 JUMP JUMPDEST DUP2 ADD SWAP1 PUSH2 0x1E83 JUMP JUMPDEST POP CODESIZE PUSH2 0x8DA JUMP JUMPDEST POP RETURNDATASIZE PUSH2 0x8F0 JUMP JUMPDEST PUSH1 0x40 MLOAD SWAP1 RETURNDATASIZE SWAP1 DUP3 RETURNDATACOPY RETURNDATASIZE SWAP1 REVERT JUMPDEST PUSH1 0x40 MLOAD PUSH4 0xA9059CBB PUSH1 0xE0 SHL DUP2 MSTORE PUSH1 0x1 PUSH1 0x1 PUSH1 0xA0 SHL SUB PUSH32 0x0 DUP2 AND PUSH1 0x4 DUP4 ADD MSTORE PUSH1 0x24 DUP3 ADD SWAP3 SWAP1 SWAP3 MSTORE SWAP5 PUSH1 0x20 SWAP3 DUP7 SWAP3 PUSH1 0x44 SWAP3 DUP5 SWAP3 SWAP1 SWAP2 AND GAS CALL SWAP3 DUP4 ISZERO PUSH2 0x9A7 JUMPI PUSH2 0x865 SWAP4 PUSH2 0x988 JUMPI JUMPDEST DUP6 SWAP4 PUSH2 0x859 JUMP JUMPDEST PUSH2 0x9A0 SWAP1 PUSH1 0x20 RETURNDATASIZE PUSH1 0x20 GT PUSH2 0x909 JUMPI PUSH2 0x8FA DUP2 DUP4 PUSH2 0x1C06 JUMP JUMPDEST POP CODESIZE PUSH2 0x981 JUMP JUMPDEST PUSH1 0x40 MLOAD RETURNDATASIZE DUP8 DUP3 RETURNDATACOPY RETURNDATASIZE SWAP1 REVERT JUMPDEST PUSH2 0x9BD PUSH1 0x3 SLOAD PUSH2 0x1F63 JUMP JUMPDEST PUSH32 0x8F112D5FA1BD402E65A01266EE77605E7EAB3204FAC5336580CAB66A03B8914D PUSH1 0x80 PUSH1 0x40 MLOAD PUSH1 0x40 DUP2 MSTORE PUSH1 0x19 PUSH1 0x40 DUP3 ADD MSTORE PUSH32 0x4E65676174697665206172626974726167652070726F66697400000000000000 PUSH1 0x60 DUP3 ADD MSTORE DUP4 PUSH1 0x20 DUP3 ADD MSTORE LOG1 PUSH1 0x3 DUP2 LT ISZERO PUSH2 0xA9A JUMPI PUSH1 0x40 MLOAD PUSH3 0x461BCD PUSH1 0xE5 SHL DUP2 MSTORE PUSH1 0x20 PUSH1 0x4 DUP3 ADD MSTORE PUSH1 0x42 PUSH1 0x24 DUP3 ADD MSTORE PUSH32 0x41726269747261676520756E70726F66697461626C65202D20696E7375666669 PUSH1 0x44 DUP3 ADD MSTORE PUSH32 0x6369656E7420737072656164206F722065786365737369766520736C69707061 PUSH1 0x64 DUP3 ADD MSTORE PUSH2 0x6765 PUSH1 0xF0 SHL PUSH1 0x84 DUP3 ADD MSTORE PUSH1 0xA4 SWAP1 REVERT JUMPDEST PUSH1 0x20 PUSH32 0xD0CA21E9326DF06D11ABEE438088C4A3B9E87CE126BA6B8F0621013E78C568AF SWAP2 PUSH1 0x40 MLOAD SWAP1 DUP2 MSTORE LOG1 PUSH1 0x40 MLOAD PUSH3 0x461BCD PUSH1 0xE5 SHL DUP2 MSTORE PUSH1 0x20 PUSH1 0x4 DUP3 ADD MSTORE PUSH1 0x29 PUSH1 0x24 DUP3 ADD MSTORE PUSH32 0x4B696C6C2053776974636820747269676765726564202D2033206661696C6564 PUSH1 0x44 DUP3 ADD MSTORE PUSH9 0x20617474656D707473 PUSH1 0xB8 SHL PUSH1 0x64 DUP3 ADD MSTORE PUSH1 0x84 SWAP1 REVERT JUMPDEST PUSH2 0xB34 SWAP1 PUSH1 0x20 RETURNDATASIZE PUSH1 0x20 GT PUSH2 0x909 JUMPI PUSH2 0x8FA DUP2 DUP4 PUSH2 0x1C06 JUMP JUMPDEST POP CODESIZE PUSH2 0x7F5 JUMP JUMPDEST PUSH1 0x40 MLOAD RETURNDATASIZE DUP12 DUP3 RETURNDATACOPY RETURNDATASIZE SWAP1 REVERT JUMPDEST PUSH2 0xB5E SWAP1 PUSH1 0x20 RETURNDATASIZE PUSH1 0x20 GT PUSH2 0x909 JUMPI PUSH2 0x8FA DUP2 DUP4 PUSH2 0x1C06 JUMP JUMPDEST POP CODESIZE PUSH2 0x789 JUMP JUMPDEST PUSH1 0x40 MLOAD PUSH3 0x461BCD PUSH1 0xE5 SHL DUP2 MSTORE PUSH1 0x20 PUSH1 0x4 DUP3 ADD MSTORE PUSH1 0x26 PUSH1 0x24 DUP3 ADD MSTORE PUSH32 0x496E73756666696369656E74206761732062616C616E636520666F7220726570 PUSH1 0x44 DUP3 ADD MSTORE PUSH6 0x185E5B595B9D PUSH1 0xD2 SHL PUSH1 0x64 DUP3 ADD MSTORE PUSH1 0x84 SWAP1 REVERT JUMPDEST PUSH1 0x40 MLOAD PUSH3 0x461BCD PUSH1 0xE5 SHL DUP2 MSTORE PUSH1 0x20 PUSH1 0x4 DUP3 ADD MSTORE PUSH1 0x28 PUSH1 0x24 DUP3 ADD MSTORE PUSH32 0x496E73756666696369656E742074726164652062616C616E636520666F722072 PUSH1 0x44 DUP3 ADD MSTORE PUSH8 0x195C185E5B595B9D PUSH1 0xC2 SHL PUSH1 0x64 DUP3 ADD MSTORE PUSH1 0x84 SWAP1 REVERT JUMPDEST SWAP1 SWAP4 POP PUSH1 0x20 DUP2 RETURNDATASIZE PUSH1 0x20 GT PUSH2 0xC40 JUMPI JUMPDEST DUP2 PUSH2 0xC2B PUSH1 0x20 SWAP4 DUP4 PUSH2 0x1C06 JUMP JUMPDEST DUP2 ADD SUB SLT PUSH2 0xC3B JUMPI MLOAD SWAP3 CODESIZE PUSH2 0x715 JUMP JUMPDEST PUSH1 0x0 DUP1 REVERT JUMPDEST RETURNDATASIZE SWAP2 POP PUSH2 0xC1E JUMP JUMPDEST PUSH1 0x40 MLOAD RETURNDATASIZE DUP11 DUP3 RETURNDATACOPY RETURNDATASIZE SWAP1 REVERT JUMPDEST SWAP1 SWAP5 POP PUSH1 0x20 DUP2 RETURNDATASIZE PUSH1 0x20 GT PUSH2 0xC7F JUMPI JUMPDEST DUP2 PUSH2 0xC6F PUSH1 0x20 SWAP4 DUP4 PUSH2 0x1C06 JUMP JUMPDEST DUP2 ADD SUB SLT PUSH2 0xC3B JUMPI MLOAD SWAP4 CODESIZE PUSH2 0x6E0 JUMP JUMPDEST RETURNDATASIZE SWAP2 POP PUSH2 0xC62 JUMP JUMPDEST PUSH1 0x40 MLOAD RETURNDATASIZE DUP10 DUP3 RETURNDATACOPY RETURNDATASIZE SWAP1 REVERT JUMPDEST PUSH2 0xC9C SWAP1 DUP7 PUSH2 0x1E76 JUMP JUMPDEST PUSH1 0x40 MLOAD PUSH4 0x95EA7B3 PUSH1 0xE0 SHL DUP2 MSTORE PUSH20 0xA5E0829CACED8FFDD4DE3C43696C57F7D7A678FF PUSH1 0x4 DUP3 ADD MSTORE PUSH1 0x24 DUP2 ADD SWAP4 SWAP1 SWAP4 MSTORE PUSH1 0x20 DUP4 PUSH1 0x44 DUP2 DUP6 PUSH1 0x1 PUSH1 0x1 PUSH1 0xA0 SHL SUB DUP10 AND GAS CALL SWAP3 DUP4 ISZERO PUSH2 0xDDB JUMPI PUSH2 0xD5E SWAP4 PUSH2 0xDBC JUMPI JUMPDEST POP PUSH1 0x40 MLOAD SWAP1 PUSH2 0xCFC DUP3 PUSH2 0x1BD4 JUMP JUMPDEST PUSH1 0x2 DUP3 MSTORE PUSH1 0x40 CALLDATASIZE PUSH1 0x20 DUP5 ADD CALLDATACOPY PUSH1 0x1 PUSH1 0x1 PUSH1 0xA0 SHL SUB DUP6 AND PUSH2 0xD1B DUP4 PUSH2 0x1D9D JUMP JUMPDEST MSTORE PUSH1 0x1 PUSH1 0x1 PUSH1 0xA0 SHL SUB DUP10 AND PUSH2 0xD2F DUP4 PUSH2 0x1DAA JUMP JUMPDEST MSTORE PUSH1 0x40 MLOAD SWAP4 DUP5 SWAP3 DUP4 SWAP3 PUSH4 0x38ED1739 PUSH1 0xE0 SHL DUP5 MSTORE PUSH1 0x4 DUP5 ADD MSTORE DUP5 PUSH1 0x24 DUP5 ADD MSTORE PUSH1 0xA0 PUSH1 0x44 DUP5 ADD MSTORE PUSH1 0xA4 DUP4 ADD SWAP1 PUSH2 0x1DCE JUMP JUMPDEST ADDRESS PUSH1 0x64 DUP4 ADD MSTORE PUSH2 0x12C TIMESTAMP ADD PUSH1 0x84 DUP4 ADD MSTORE SUB DUP2 DUP4 PUSH20 0xA5E0829CACED8FFDD4DE3C43696C57F7D7A678FF GAS CALL DUP1 ISZERO PUSH2 0xC87 JUMPI PUSH2 0xD9A JUMPI JUMPDEST DUP7 DUP2 PUSH2 0x6A8 JUMP JUMPDEST PUSH2 0xDB5 SWAP1 RETURNDATASIZE DUP1 DUP10 DUP4 RETURNDATACOPY PUSH2 0xDAD DUP2 DUP4 PUSH2 0x1C06 JUMP JUMPDEST DUP2 ADD SWAP1 PUSH2 0x1EAE JUMP JUMPDEST POP CODESIZE PUSH2 0xD93 JUMP JUMPDEST PUSH2 0xDD4 SWAP1 PUSH1 0x20 RETURNDATASIZE PUSH1 0x20 GT PUSH2 0x909 JUMPI PUSH2 0x8FA DUP2 DUP4 PUSH2 0x1C06 JUMP JUMPDEST POP CODESIZE PUSH2 0xCEE JUMP JUMPDEST PUSH1 0x40 MLOAD RETURNDATASIZE DUP5 DUP3 RETURNDATACOPY RETURNDATASIZE SWAP1 REVERT JUMPDEST SWAP2 POP POP PUSH1 0x20 DUP2 RETURNDATASIZE PUSH1 0x20 GT PUSH2 0xE13 JUMPI JUMPDEST DUP2 PUSH2 0xE02 PUSH1 0x20 SWAP4 DUP4 PUSH2 0x1C06 JUMP JUMPDEST DUP2 ADD SUB SLT PUSH2 0xC3B JUMPI DUP8 SWAP1 MLOAD CODESIZE PUSH2 0x69F JUMP JUMPDEST RETURNDATASIZE SWAP2 POP PUSH2 0xDF5 JUMP JUMPDEST SWAP1 POP PUSH1 0x20 DUP2 RETURNDATASIZE PUSH1 0x20 GT PUSH2 0xE45 JUMPI JUMPDEST DUP2 PUSH2 0xE36 PUSH1 0x20 SWAP4 DUP4 PUSH2 0x1C06 JUMP JUMPDEST DUP2 ADD SUB SLT PUSH2 0xC3B JUMPI MLOAD CODESIZE PUSH2 0x669 JUMP JUMPDEST RETURNDATASIZE SWAP2 POP PUSH2 0xE29 JUMP JUMPDEST PUSH4 0x4E487B71 PUSH1 0xE0 SHL DUP10 MSTORE PUSH1 0x11 PUSH1 0x4 MSTORE PUSH1 0x24 DUP10 REVERT JUMPDEST PUSH2 0xE75 SWAP2 POP RETURNDATASIZE DUP1 DUP11 DUP4 RETURNDATACOPY PUSH2 0xDAD DUP2 DUP4 PUSH2 0x1C06 JUMP JUMPDEST CODESIZE PUSH2 0x5C8 JUMP JUMPDEST PUSH2 0xE93 SWAP1 PUSH1 0x20 RETURNDATASIZE PUSH1 0x20 GT PUSH2 0x909 JUMPI PUSH2 0x8FA DUP2 DUP4 PUSH2 0x1C06 JUMP JUMPDEST POP CODESIZE PUSH2 0x52C JUMP JUMPDEST PUSH4 0x4E487B71 PUSH1 0xE0 SHL DUP11 MSTORE PUSH1 0x11 PUSH1 0x4 MSTORE PUSH1 0x24 DUP11 REVERT JUMPDEST PUSH2 0xEC2 SWAP2 POP RETURNDATASIZE DUP1 DUP12 DUP4 RETURNDATACOPY PUSH2 0xDAD DUP2 DUP4 PUSH2 0x1C06 JUMP JUMPDEST CODESIZE PUSH2 0x468 JUMP JUMPDEST PUSH2 0xEE0 SWAP1 PUSH1 0x20 RETURNDATASIZE PUSH1 0x20 GT PUSH2 0x909 JUMPI PUSH2 0x8FA DUP2 DUP4 PUSH2 0x1C06 JUMP JUMPDEST POP CODESIZE PUSH2 0x3B9 JUMP JUMPDEST POP PUSH20 0x2791BCA1F2DE4661ED88A30C99A7A9449AA84174 PUSH2 0x36D JUMP JUMPDEST POP PUSH1 0x20 DUP2 RETURNDATASIZE PUSH1 0x20 GT PUSH2 0xF2E JUMPI JUMPDEST DUP2 PUSH2 0xF1C PUSH1 0x20 SWAP4 DUP4 PUSH2 0x1C06 JUMP JUMPDEST DUP2 ADD SUB SLT PUSH2 0xC3B JUMPI PUSH2 0x346 SWAP1 MLOAD PUSH2 0x339 JUMP JUMPDEST RETURNDATASIZE SWAP2 POP PUSH2 0xF0F JUMP JUMPDEST PUSH4 0x4E487B71 PUSH1 0xE0 SHL DUP7 MSTORE PUSH1 0x32 PUSH1 0x4 MSTORE PUSH1 0x24 DUP7 REVERT JUMPDEST PUSH4 0x4E487B71 PUSH1 0xE0 SHL DUP8 MSTORE PUSH1 0x32 PUSH1 0x4 MSTORE PUSH1 0x24 DUP8 REVERT JUMPDEST PUSH1 0x40 MLOAD PUSH3 0x461BCD PUSH1 0xE5 SHL DUP2 MSTORE PUSH1 0x20 PUSH1 0x4 DUP3 ADD MSTORE PUSH1 0x26 PUSH1 0x24 DUP3 ADD MSTORE PUSH32 0x4B696C6C2053776974636820616374697665202D206F7065726174696F6E2062 PUSH1 0x44 DUP3 ADD MSTORE PUSH6 0x1B1BD8DAD959 PUSH1 0xD2 SHL PUSH1 0x64 DUP3 ADD MSTORE PUSH1 0x84 SWAP1 REVERT JUMPDEST PUSH1 0x40 MLOAD PUSH3 0x461BCD PUSH1 0xE5 SHL DUP2 MSTORE PUSH1 0x20 PUSH1 0x4 DUP3 ADD MSTORE PUSH1 0x18 PUSH1 0x24 DUP3 ADD MSTORE PUSH32 0x43616C6C6572206D757374206265204161766520506F6F6C0000000000000000 PUSH1 0x44 DUP3 ADD MSTORE PUSH1 0x64 SWAP1 REVERT JUMPDEST DUP8 DUP1 REVERT JUMPDEST DUP7 DUP1 REVERT JUMPDEST DUP5 DUP1 REVERT JUMPDEST DUP3 DUP1 REVERT JUMPDEST POP CALLVALUE PUSH2 0x122 JUMPI PUSH1 0x40 CALLDATASIZE PUSH1 0x3 NOT ADD SLT PUSH2 0x122 JUMPI PUSH1 0x2 SLOAD PUSH1 0x24 CALLDATALOAD SWAP1 PUSH1 0x4 CALLDATALOAD SWAP1 PUSH2 0x1043 SWAP1 CALLER PUSH1 0x1 PUSH1 0x1 PUSH1 0xA0 SHL SUB SWAP2 DUP3 AND EQ SWAP1 DUP2 ISZERO PUSH2 0x1103 JUMPI JUMPDEST POP PUSH2 0x1F72 JUMP JUMPDEST DUP1 DUP3 GT ISZERO PUSH2 0x10D7 JUMPI PUSH2 0x1055 DUP2 DUP4 PUSH2 0x1E76 JUMP JUMPDEST SWAP1 PUSH2 0x2710 SWAP2 DUP3 DUP2 MUL SWAP3 DUP2 DUP5 DIV EQ SWAP1 ISZERO OR ISZERO PUSH2 0x10C3 JUMPI DUP1 ISZERO PUSH2 0x10AD JUMPI PUSH32 0x16E812C03E46720953CEF9AF093F36F5C56311C55AE93B1EB127561AEF6B0CF7 SWAP3 DUP2 PUSH1 0x60 SWAP4 DIV SWAP1 JUMPDEST PUSH1 0x40 MLOAD SWAP3 DUP4 MSTORE PUSH1 0x20 DUP4 ADD MSTORE PUSH1 0x40 DUP3 ADD MSTORE LOG1 DUP1 RETURN JUMPDEST PUSH4 0x4E487B71 PUSH1 0xE0 SHL PUSH1 0x0 MSTORE PUSH1 0x12 PUSH1 0x4 MSTORE PUSH1 0x24 PUSH1 0x0 REVERT JUMPDEST PUSH4 0x4E487B71 PUSH1 0xE0 SHL DUP5 MSTORE PUSH1 0x11 PUSH1 0x4 MSTORE PUSH1 0x24 DUP5 REVERT JUMPDEST PUSH1 0x60 SWAP1 PUSH32 0x16E812C03E46720953CEF9AF093F36F5C56311C55AE93B1EB127561AEF6B0CF7 SWAP3 DUP5 SWAP1 PUSH2 0x1099 JUMP JUMPDEST SWAP1 POP PUSH32 0x0 AND CALLER EQ CODESIZE PUSH2 0x103D JUMP JUMPDEST POP CALLVALUE PUSH2 0x122 JUMPI DUP1 PUSH1 0x3 NOT CALLDATASIZE ADD SLT PUSH2 0x122 JUMPI PUSH1 0x40 MLOAD PUSH32 0x0 PUSH1 0x1 PUSH1 0x1 PUSH1 0xA0 SHL SUB AND DUP2 MSTORE PUSH1 0x20 SWAP1 RETURN JUMPDEST POP CALLVALUE PUSH2 0x122 JUMPI PUSH1 0x20 DUP1 PUSH1 0x3 NOT CALLDATASIZE ADD SLT PUSH2 0x12CE JUMPI PUSH2 0x118F PUSH2 0x1D00 JUMP JUMPDEST PUSH32 0x0 SWAP1 PUSH1 0x1 PUSH1 0x1 PUSH1 0xA0 SHL SUB SWAP1 PUSH2 0x11C7 CALLER DUP4 DUP6 AND EQ PUSH2 0x1D47 JUMP JUMPDEST AND PUSH1 0x40 MLOAD SWAP2 PUSH4 0x70A08231 PUSH1 0xE0 SHL DUP4 MSTORE ADDRESS PUSH1 0x4 DUP5 ADD MSTORE DUP4 DUP4 PUSH1 0x24 DUP2 DUP6 GAS STATICCALL SWAP3 DUP4 ISZERO PUSH2 0x9A7 JUMPI DUP6 SWAP4 PUSH2 0x129F JUMPI JUMPDEST POP DUP3 ISZERO PUSH2 0x1262 JUMPI PUSH1 0x40 MLOAD PUSH4 0xA9059CBB PUSH1 0xE0 SHL DUP2 MSTORE PUSH1 0x1 PUSH1 0x1 PUSH1 0xA0 SHL SUB SWAP2 SWAP1 SWAP2 AND PUSH1 0x4 DUP3 ADD MSTORE PUSH1 0x24 DUP2 ADD SWAP3 SWAP1 SWAP3 MSTORE DUP3 SWAP1 DUP3 SWAP1 PUSH1 0x44 SWAP1 DUP3 SWAP1 DUP8 SWAP1 GAS CALL DUP1 ISZERO PUSH2 0x1257 JUMPI PUSH2 0x123A JUMPI DUP3 DUP1 RETURN JUMPDEST DUP2 PUSH2 0x1250 SWAP3 SWAP1 RETURNDATASIZE LT PUSH2 0x909 JUMPI PUSH2 0x8FA DUP2 DUP4 PUSH2 0x1C06 JUMP JUMPDEST POP CODESIZE DUP1 DUP3 DUP1 RETURN JUMPDEST PUSH1 0x40 MLOAD RETURNDATASIZE DUP6 DUP3 RETURNDATACOPY RETURNDATASIZE SWAP1 REVERT JUMPDEST PUSH1 0x40 MLOAD PUSH3 0x461BCD PUSH1 0xE5 SHL DUP2 MSTORE PUSH1 0x4 DUP2 ADD DUP6 SWAP1 MSTORE PUSH1 0x15 PUSH1 0x24 DUP3 ADD MSTORE PUSH21 0x4E6F20746F6B656E7320746F207769746864726177 PUSH1 0x58 SHL PUSH1 0x44 DUP3 ADD MSTORE PUSH1 0x64 SWAP1 REVERT JUMPDEST SWAP1 SWAP3 POP DUP4 DUP2 DUP2 RETURNDATASIZE DUP4 GT PUSH2 0x12C7 JUMPI JUMPDEST PUSH2 0x12B7 DUP2 DUP4 PUSH2 0x1C06 JUMP JUMPDEST DUP2 ADD SUB SLT PUSH2 0xC3B JUMPI MLOAD SWAP2 CODESIZE PUSH2 0x11F2 JUMP JUMPDEST POP RETURNDATASIZE PUSH2 0x12AD JUMP JUMPDEST POP DUP1 REVERT JUMPDEST POP CALLVALUE PUSH2 0x122 JUMPI DUP1 PUSH1 0x3 NOT CALLDATASIZE ADD SLT PUSH2 0x122 JUMPI PUSH1 0x40 MLOAD PUSH32 0x0 PUSH1 0x1 PUSH1 0x1 PUSH1 0xA0 SHL SUB AND DUP2 MSTORE PUSH1 0x20 SWAP1 RETURN JUMPDEST POP CALLVALUE PUSH2 0x122 JUMPI DUP1 PUSH1 0x3 NOT CALLDATASIZE ADD SLT PUSH2 0x122 JUMPI PUSH1 0x20 PUSH1 0x1 SLOAD PUSH1 0x40 MLOAD SWAP1 DUP2 MSTORE RETURN JUMPDEST POP CALLVALUE PUSH2 0x122 JUMPI PUSH1 0x3 NOT PUSH1 0x80 CALLDATASIZE DUP3 ADD SLT PUSH2 0x12CE JUMPI PUSH2 0x1350 PUSH2 0x1D00 JUMP JUMPDEST SWAP1 PUSH1 0x1 PUSH1 0x1 PUSH1 0xA0 SHL SUB PUSH1 0x44 CALLDATALOAD DUP2 DUP2 AND SWAP3 SWAP1 DUP4 SWAP1 SUB PUSH2 0xFFF JUMPI PUSH2 0x1395 DUP3 PUSH32 0x0 AND CALLER EQ PUSH2 0x1D47 JUMP JUMPDEST PUSH1 0xFF PUSH1 0x4 SLOAD AND PUSH2 0x1553 JUMPI DUP5 SWAP3 PUSH1 0x40 MLOAD SWAP5 PUSH2 0x13AE DUP7 PUSH2 0x1BD4 JUMP JUMPDEST PUSH1 0x2 DUP7 MSTORE PUSH1 0x40 CALLDATASIZE PUSH1 0x20 DUP9 ADD CALLDATACOPY DUP4 PUSH2 0x13C4 DUP8 PUSH2 0x1D9D JUMP JUMPDEST SWAP2 AND SWAP1 MSTORE PUSH2 0x13D1 DUP6 PUSH2 0x1DAA JUMP JUMPDEST MSTORE PUSH1 0x40 MLOAD SWAP4 PUSH2 0x13DF DUP6 PUSH2 0x1BD4 JUMP JUMPDEST PUSH1 0x2 DUP6 MSTORE PUSH1 0x40 CALLDATASIZE PUSH1 0x20 DUP8 ADD CALLDATACOPY PUSH1 0x24 CALLDATALOAD PUSH2 0x13F7 DUP7 PUSH2 0x1D9D JUMP JUMPDEST MSTORE PUSH1 0x64 CALLDATALOAD PUSH2 0x1404 DUP7 PUSH2 0x1DAA JUMP JUMPDEST MSTORE PUSH1 0x40 MLOAD SWAP3 PUSH2 0x1412 DUP5 PUSH2 0x1BD4 JUMP JUMPDEST PUSH1 0x2 DUP5 MSTORE PUSH1 0x40 CALLDATASIZE PUSH1 0x20 DUP7 ADD CALLDATACOPY DUP5 PUSH2 0x1428 DUP6 PUSH2 0x1D9D JUMP JUMPDEST MSTORE DUP5 PUSH2 0x1433 DUP6 PUSH2 0x1DAA JUMP JUMPDEST MSTORE PUSH32 0x2494A915D576B32D2D414C253B041F04E4BE248421BD2A389D8DD8ACD08C6A6F PUSH1 0x40 MLOAD PUSH1 0x40 DUP2 MSTORE DUP1 PUSH2 0x147B PUSH2 0x146D PUSH1 0x40 DUP4 ADD DUP8 PUSH2 0x1DCE JUMP JUMPDEST DUP3 DUP2 SUB PUSH1 0x20 DUP5 ADD MSTORE DUP11 PUSH2 0x1E0B JUMP JUMPDEST SUB SWAP1 LOG1 PUSH32 0x0 AND SWAP2 DUP3 EXTCODESIZE ISZERO PUSH2 0xFFF JUMPI PUSH1 0x20 DUP6 SWAP2 DUP3 PUSH2 0x1500 PUSH2 0x14E0 SWAP8 PUSH2 0x14F0 PUSH1 0x40 MLOAD SWAP12 DUP13 SWAP11 DUP12 SWAP10 PUSH4 0xAB9C4B5D PUSH1 0xE0 SHL DUP12 MSTORE ADDRESS PUSH1 0x4 DUP13 ADD MSTORE PUSH1 0xE0 PUSH1 0x24 DUP13 ADD MSTORE PUSH1 0xE4 DUP12 ADD SWAP1 PUSH2 0x1DCE JUMP JUMPDEST SWAP1 DUP7 DUP11 DUP4 SUB ADD PUSH1 0x44 DUP12 ADD MSTORE PUSH2 0x1E0B JUMP JUMPDEST SWAP1 DUP5 DUP9 DUP4 SUB ADD PUSH1 0x64 DUP10 ADD MSTORE PUSH2 0x1E0B JUMP JUMPDEST ADDRESS PUSH1 0x84 DUP8 ADD MSTORE DUP6 DUP2 SUB SWAP3 DUP4 ADD PUSH1 0xA4 DUP8 ADD MSTORE MSTORE DUP3 PUSH1 0xC4 DUP6 ADD MSTORE ADD SWAP3 GAS CALL DUP1 ISZERO PUSH2 0xDDB JUMPI PUSH2 0x152A JUMPI POP DUP1 RETURN JUMPDEST PUSH8 0xFFFFFFFFFFFFFFFF DUP2 GT PUSH2 0x153F JUMPI PUSH1 0x40 MSTORE DUP1 RETURN JUMPDEST PUSH4 0x4E487B71 PUSH1 0xE0 SHL DUP3 MSTORE PUSH1 0x41 PUSH1 0x4 MSTORE PUSH1 0x24 DUP3 REVERT JUMPDEST PUSH1 0x40 MLOAD PUSH3 0x461BCD PUSH1 0xE5 SHL DUP2 MSTORE PUSH1 0x20 PUSH1 0x4 DUP3 ADD MSTORE PUSH1 0x23 PUSH1 0x24 DUP3 ADD MSTORE PUSH32 0x4B696C6C2053776974636820616374697661746564202D20626F742073746F70 PUSH1 0x44 DUP3 ADD MSTORE PUSH3 0x1C1959 PUSH1 0xEA SHL PUSH1 0x64 DUP3 ADD MSTORE PUSH1 0x84 SWAP1 REVERT JUMPDEST POP CALLVALUE PUSH2 0x122 JUMPI PUSH1 0x20 SWAP1 DUP2 PUSH1 0x3 NOT CALLDATASIZE ADD SLT PUSH2 0x122 JUMPI PUSH1 0x4 CALLDATALOAD PUSH1 0x6 SLOAD DUP2 LT ISZERO PUSH2 0x12CE JUMPI PUSH2 0x15CE SWAP1 PUSH2 0x1C79 JUMP JUMPDEST PUSH2 0x169B JUMPI PUSH1 0x40 MLOAD SWAP1 DUP3 DUP5 DUP3 SLOAD PUSH2 0x15E3 DUP2 PUSH2 0x1CC6 JUMP JUMPDEST SWAP3 DUP4 DUP7 MSTORE DUP3 DUP7 ADD SWAP5 PUSH1 0x1 SWAP3 DUP4 DUP2 AND SWAP1 DUP2 PUSH1 0x0 EQ PUSH2 0x1679 JUMPI POP PUSH1 0x1 EQ PUSH2 0x163E JUMPI JUMPDEST DUP4 PUSH1 0x40 DUP9 DUP9 PUSH2 0x1614 DUP3 DUP14 SUB DUP4 PUSH2 0x1C06 JUMP JUMPDEST PUSH2 0x1630 DUP4 MLOAD SWAP5 DUP6 SWAP4 DUP2 DUP6 MSTORE MLOAD SWAP3 DUP4 DUP1 SWAP3 DUP7 ADD MSTORE DUP6 DUP6 ADD SWAP1 PUSH2 0x1C28 JUMP JUMPDEST PUSH1 0x1F ADD PUSH1 0x1F NOT AND DUP2 ADD SUB ADD SWAP1 RETURN JUMPDEST SWAP1 DUP1 SWAP5 SWAP4 SWAP8 POP MSTORE DUP6 DUP4 KECCAK256 JUMPDEST DUP3 DUP5 LT PUSH2 0x1666 JUMPI POP POP POP DUP3 ADD SWAP1 SWAP3 ADD SWAP2 PUSH2 0x1614 DUP5 PUSH1 0x40 DUP5 CODESIZE PUSH2 0x1603 JUMP JUMPDEST DUP1 SLOAD DUP7 DUP6 ADD DUP9 ADD MSTORE SWAP3 DUP7 ADD SWAP3 DUP2 ADD PUSH2 0x1649 JUMP JUMPDEST PUSH1 0xFF NOT AND DUP8 MSTORE POP POP POP POP SWAP1 ISZERO ISZERO PUSH1 0x5 SHL DUP4 ADD ADD SWAP3 POP PUSH2 0x1614 DUP5 PUSH1 0x40 DUP5 CODESIZE PUSH2 0x1603 JUMP JUMPDEST PUSH4 0x4E487B71 PUSH1 0xE0 SHL DUP3 MSTORE PUSH1 0x4 DUP3 SWAP1 MSTORE PUSH1 0x24 DUP3 REVERT JUMPDEST POP CALLVALUE PUSH2 0x122 JUMPI PUSH1 0x20 CALLDATASIZE PUSH1 0x3 NOT ADD SLT PUSH2 0x122 JUMPI PUSH1 0x4 CALLDATALOAD PUSH8 0xFFFFFFFFFFFFFFFF DUP2 GT PUSH2 0x12CE JUMPI PUSH2 0x16E1 SWAP1 CALLDATASIZE SWAP1 PUSH1 0x4 ADD PUSH2 0x1C4B JUMP JUMPDEST PUSH1 0x2 SLOAD SWAP2 SWAP3 SWAP2 PUSH2 0x1705 SWAP1 CALLER PUSH1 0x1 PUSH1 0x1 PUSH1 0xA0 SHL SUB SWAP2 DUP3 AND EQ SWAP1 DUP2 ISZERO PUSH2 0x1103 JUMPI POP PUSH2 0x1F72 JUMP JUMPDEST PUSH1 0x40 MLOAD DUP2 DUP5 DUP3 CALLDATACOPY PUSH1 0x20 DUP2 DUP4 DUP2 ADD PUSH1 0x5 DUP2 MSTORE SUB ADD SWAP1 KECCAK256 PUSH2 0x1724 DUP2 SLOAD PUSH2 0x1F63 JUMP JUMPDEST SWAP1 SSTORE PUSH1 0x6 SWAP3 PUSH1 0xA DUP5 SLOAD LT PUSH1 0x0 EQ PUSH2 0x177A JUMPI DUP4 SLOAD SWAP4 PUSH9 0x10000000000000000 DUP6 LT ISZERO PUSH2 0x1766 JUMPI DUP5 PUSH2 0x175D SWAP2 PUSH1 0x1 PUSH2 0x1763 SWAP7 SWAP8 ADD SWAP1 SSTORE PUSH2 0x1C79 JUMP JUMPDEST SWAP1 PUSH2 0x20EA JUMP JUMPDEST DUP1 RETURN JUMPDEST PUSH4 0x4E487B71 PUSH1 0xE0 SHL DUP5 MSTORE PUSH1 0x41 PUSH1 0x4 MSTORE PUSH1 0x24 DUP5 REVERT JUMPDEST SWAP1 DUP3 SWAP4 SWAP3 JUMPDEST DUP4 SLOAD PUSH1 0x0 NOT DUP2 ADD SWAP1 DUP2 GT PUSH2 0x17E2 JUMPI DUP2 LT ISZERO PUSH2 0x17F6 JUMPI PUSH1 0x1 DUP2 ADD DUP1 DUP3 GT PUSH2 0x17E2 JUMPI PUSH2 0x17A8 SWAP1 PUSH2 0x1C79 JUMP JUMPDEST POP PUSH2 0x17B2 DUP3 PUSH2 0x1C79 JUMP JUMPDEST PUSH2 0x17CE JUMPI PUSH2 0x17C9 SWAP3 SWAP2 PUSH2 0x17C4 SWAP2 PUSH2 0x200B JUMP JUMPDEST PUSH2 0x1F63 JUMP JUMPDEST PUSH2 0x177F JUMP JUMPDEST PUSH4 0x4E487B71 PUSH1 0xE0 SHL DUP8 MSTORE PUSH1 0x4 DUP8 SWAP1 MSTORE PUSH1 0x24 DUP8 REVERT JUMPDEST PUSH4 0x4E487B71 PUSH1 0xE0 SHL DUP7 MSTORE PUSH1 0x11 PUSH1 0x4 MSTORE PUSH1 0x24 DUP7 REVERT JUMPDEST POP SWAP2 SLOAD PUSH1 0x0 NOT DUP2 ADD SWAP4 SWAP3 SWAP2 SWAP1 DUP5 GT PUSH2 0x1815 JUMPI PUSH2 0x175D PUSH2 0x1763 SWAP4 SWAP5 PUSH2 0x1C79 JUMP JUMPDEST PUSH4 0x4E487B71 PUSH1 0xE0 SHL DUP4 MSTORE PUSH1 0x11 PUSH1 0x4 MSTORE PUSH1 0x24 DUP4 REVERT JUMPDEST POP CALLVALUE PUSH2 0x122 JUMPI DUP1 PUSH1 0x3 NOT CALLDATASIZE ADD SLT PUSH2 0x122 JUMPI PUSH1 0x20 PUSH1 0xFF PUSH1 0x4 SLOAD AND PUSH1 0x40 MLOAD SWAP1 ISZERO ISZERO DUP2 MSTORE RETURN JUMPDEST POP CALLVALUE PUSH2 0x122 JUMPI PUSH1 0x20 CALLDATASIZE PUSH1 0x3 NOT ADD SLT PUSH2 0x122 JUMPI PUSH32 0x185DAF617C465DE5E0042F7AAE1503B1A216EA8927CACF296E58B516E82AFEA8 PUSH1 0xA0 PUSH1 0x4 CALLDATALOAD PUSH2 0x18A1 PUSH1 0x1 DUP1 DUP5 SHL SUB DUP1 PUSH1 0x2 SLOAD AND CALLER EQ SWAP1 DUP2 ISZERO PUSH2 0x1103 JUMPI POP PUSH2 0x1F72 JUMP JUMPDEST PUSH1 0x1 SLOAD SWAP1 DUP1 PUSH1 0x1 SSTORE PUSH1 0x40 MLOAD SWAP2 PUSH1 0x60 DUP4 MSTORE PUSH1 0x12 PUSH1 0x60 DUP5 ADD MSTORE PUSH18 0x1B5A5B941C9BD99A5D151A1C995CDA1BDB19 PUSH1 0x72 SHL PUSH1 0x80 DUP5 ADD MSTORE PUSH1 0x20 DUP4 ADD MSTORE PUSH1 0x40 DUP3 ADD MSTORE LOG1 DUP1 RETURN JUMPDEST POP CALLVALUE PUSH2 0x122 JUMPI DUP1 PUSH1 0x3 NOT CALLDATASIZE ADD SLT PUSH2 0x122 JUMPI PUSH2 0x1926 CALLER PUSH32 0x0 PUSH1 0x1 PUSH1 0x1 PUSH1 0xA0 SHL SUB AND EQ PUSH2 0x1D47 JUMP JUMPDEST PUSH1 0x4 SLOAD PUSH1 0xFF DUP2 AND ISZERO PUSH2 0x1940 JUMPI PUSH1 0xFF NOT AND PUSH1 0x4 SSTORE DUP1 PUSH1 0x3 SSTORE DUP1 RETURN JUMPDEST PUSH1 0x40 MLOAD PUSH3 0x461BCD PUSH1 0xE5 SHL DUP2 MSTORE PUSH1 0x20 PUSH1 0x4 DUP3 ADD MSTORE PUSH1 0x19 PUSH1 0x24 DUP3 ADD MSTORE PUSH32 0x4B696C6C20537769746368206973206E6F742061637469766500000000000000 PUSH1 0x44 DUP3 ADD MSTORE PUSH1 0x64 SWAP1 REVERT JUMPDEST POP CALLVALUE PUSH2 0x122 JUMPI PUSH1 0x20 CALLDATASIZE PUSH1 0x3 NOT ADD SLT PUSH2 0x122 JUMPI PUSH1 0x4 CALLDATALOAD DUP1 ISZERO ISZERO DUP1 SWAP2 SUB PUSH2 0x12CE JUMPI PUSH2 0x19D8 CALLER PUSH32 0x0 PUSH1 0x1 PUSH1 0x1 PUSH1 0xA0 SHL SUB AND EQ PUSH2 0x1D47 JUMP JUMPDEST PUSH1 0x2 DUP1 SLOAD PUSH1 0xFF PUSH1 0xA0 SHL NOT AND PUSH1 0xA0 SWAP3 SWAP1 SWAP3 SHL PUSH1 0xFF PUSH1 0xA0 SHL AND SWAP2 SWAP1 SWAP2 OR SWAP1 SSTORE DUP1 RETURN JUMPDEST POP CALLVALUE PUSH2 0x122 JUMPI PUSH1 0x20 CALLDATASIZE PUSH1 0x3 NOT ADD SLT PUSH2 0x122 JUMPI PUSH1 0x2 SLOAD PUSH1 0x4 CALLDATALOAD SWAP1 PUSH2 0x1A2F SWAP1 CALLER PUSH1 0x1 PUSH1 0x1 PUSH1 0xA0 SHL SUB SWAP2 DUP3 AND EQ SWAP1 DUP2 ISZERO PUSH2 0x1103 JUMPI POP PUSH2 0x1F72 JUMP JUMPDEST PUSH2 0x384 DUP2 LT ISZERO DUP1 PUSH2 0x1AE6 JUMPI JUMPDEST ISZERO PUSH2 0x1AA1 JUMPI PUSH1 0xA0 PUSH32 0x185DAF617C465DE5E0042F7AAE1503B1A216EA8927CACF296E58B516E82AFEA8 SWAP2 DUP4 SLOAD SWAP1 DUP1 DUP6 SSTORE PUSH1 0x40 MLOAD SWAP2 PUSH1 0x60 DUP4 MSTORE PUSH1 0x11 PUSH1 0x60 DUP5 ADD MSTORE PUSH17 0x736C697070616765546F6C6572616E6365 PUSH1 0x78 SHL PUSH1 0x80 DUP5 ADD MSTORE PUSH1 0x20 DUP4 ADD MSTORE PUSH1 0x40 DUP3 ADD MSTORE LOG1 DUP1 RETURN JUMPDEST PUSH1 0x40 MLOAD PUSH3 0x461BCD PUSH1 0xE5 SHL DUP2 MSTORE PUSH1 0x20 PUSH1 0x4 DUP3 ADD MSTORE PUSH1 0x1A PUSH1 0x24 DUP3 ADD MSTORE PUSH32 0x496E76616C696420736C697070616765202839302D3130302529000000000000 PUSH1 0x44 DUP3 ADD MSTORE PUSH1 0x64 SWAP1 REVERT JUMPDEST POP PUSH2 0x3E8 DUP2 GT ISZERO PUSH2 0x1A3B JUMP JUMPDEST POP CALLVALUE PUSH2 0x122 JUMPI DUP1 PUSH1 0x3 NOT CALLDATASIZE ADD SLT PUSH2 0x122 JUMPI PUSH1 0x40 MLOAD PUSH32 0x0 PUSH1 0x1 PUSH1 0x1 PUSH1 0xA0 SHL SUB AND DUP2 MSTORE PUSH1 0x20 SWAP1 RETURN JUMPDEST DUP3 CALLVALUE PUSH2 0x122 JUMPI PUSH1 0x20 SWAP2 DUP3 PUSH1 0x3 NOT CALLDATASIZE ADD SLT PUSH2 0x12CE JUMPI PUSH1 0x4 CALLDATALOAD SWAP2 PUSH8 0xFFFFFFFFFFFFFFFF DUP1 DUP5 GT PUSH2 0x12CE JUMPI CALLDATASIZE PUSH1 0x23 DUP6 ADD SLT ISZERO PUSH2 0x12CE JUMPI DUP4 PUSH1 0x4 ADD CALLDATALOAD SWAP1 DUP2 GT PUSH2 0x153F JUMPI PUSH2 0x1B89 PUSH1 0x1F DUP3 ADD PUSH1 0x1F NOT AND DUP7 ADD DUP5 PUSH2 0x1C06 JUMP JUMPDEST DUP1 DUP4 MSTORE DUP5 DUP4 ADD SWAP4 CALLDATASIZE PUSH1 0x24 DUP4 DUP4 ADD ADD GT PUSH2 0x1003 JUMPI SWAP2 DUP6 DUP3 DUP2 SWAP6 SWAP4 PUSH1 0x24 PUSH2 0x1BC1 SWAP9 SWAP7 ADD DUP7 CALLDATACOPY DUP4 ADD ADD MSTORE PUSH1 0x40 MLOAD SWAP4 DUP5 SWAP3 DUP4 SWAP3 MLOAD SWAP3 DUP4 SWAP2 PUSH2 0x1C28 JUMP JUMPDEST DUP2 ADD PUSH1 0x5 DUP2 MSTORE SUB ADD SWAP1 KECCAK256 SLOAD PUSH1 0x40 MLOAD SWAP1 DUP2 MSTORE RETURN JUMPDEST PUSH1 0x60 DUP2 ADD SWAP1 DUP2 LT PUSH8 0xFFFFFFFFFFFFFFFF DUP3 GT OR PUSH2 0x1BF0 JUMPI PUSH1 0x40 MSTORE JUMP JUMPDEST PUSH4 0x4E487B71 PUSH1 0xE0 SHL PUSH1 0x0 MSTORE PUSH1 0x41 PUSH1 0x4 MSTORE PUSH1 0x24 PUSH1 0x0 REVERT JUMPDEST SWAP1 PUSH1 0x1F DUP1 NOT SWAP2 ADD AND DUP2 ADD SWAP1 DUP2 LT PUSH8 0xFFFFFFFFFFFFFFFF DUP3 GT OR PUSH2 0x1BF0 JUMPI PUSH1 0x40 MSTORE JUMP JUMPDEST PUSH1 0x0 JUMPDEST DUP4 DUP2 LT PUSH2 0x1C3B JUMPI POP POP PUSH1 0x0 SWAP2 ADD MSTORE JUMP JUMPDEST DUP2 DUP2 ADD MLOAD DUP4 DUP3 ADD MSTORE PUSH1 0x20 ADD PUSH2 0x1C2B JUMP JUMPDEST SWAP2 DUP2 PUSH1 0x1F DUP5 ADD SLT ISZERO PUSH2 0xC3B JUMPI DUP3 CALLDATALOAD SWAP2 PUSH8 0xFFFFFFFFFFFFFFFF DUP4 GT PUSH2 0xC3B JUMPI PUSH1 0x20 DUP4 DUP2 DUP7 ADD SWAP6 ADD ADD GT PUSH2 0xC3B JUMPI JUMP JUMPDEST PUSH1 0x6 SLOAD DUP2 LT ISZERO PUSH2 0x1CB0 JUMPI PUSH1 0x6 PUSH1 0x0 MSTORE PUSH32 0xF652222313E28459528D920B65115C16C04F3EFC82AAEDC97BE59F3F377C0D3F ADD SWAP1 PUSH1 0x0 SWAP1 JUMP JUMPDEST PUSH4 0x4E487B71 PUSH1 0xE0 SHL PUSH1 0x0 MSTORE PUSH1 0x32 PUSH1 0x4 MSTORE PUSH1 0x24 PUSH1 0x0 REVERT JUMPDEST SWAP1 PUSH1 0x1 DUP3 DUP2 SHR SWAP3 AND DUP1 ISZERO PUSH2 0x1CF6 JUMPI JUMPDEST PUSH1 0x20 DUP4 LT EQ PUSH2 0x1CE0 JUMPI JUMP JUMPDEST PUSH4 0x4E487B71 PUSH1 0xE0 SHL PUSH1 0x0 MSTORE PUSH1 0x22 PUSH1 0x4 MSTORE PUSH1 0x24 PUSH1 0x0 REVERT JUMPDEST SWAP2 PUSH1 0x7F AND SWAP2 PUSH2 0x1CD5 JUMP JUMPDEST PUSH1 0x4 CALLDATALOAD SWAP1 PUSH1 0x1 PUSH1 0x1 PUSH1 0xA0 SHL SUB DUP3 AND DUP3 SUB PUSH2 0xC3B JUMPI JUMP JUMPDEST SWAP2 DUP2 PUSH1 0x1F DUP5 ADD SLT ISZERO PUSH2 0xC3B JUMPI DUP3 CALLDATALOAD SWAP2 PUSH8 0xFFFFFFFFFFFFFFFF DUP4 GT PUSH2 0xC3B JUMPI PUSH1 0x20 DUP1 DUP6 ADD SWAP5 DUP5 PUSH1 0x5 SHL ADD ADD GT PUSH2 0xC3B JUMPI JUMP JUMPDEST ISZERO PUSH2 0x1D4E JUMPI JUMP JUMPDEST PUSH1 0x40 MLOAD PUSH3 0x461BCD PUSH1 0xE5 SHL DUP2 MSTORE PUSH1 0x20 PUSH1 0x4 DUP3 ADD MSTORE PUSH1 0x21 PUSH1 0x24 DUP3 ADD MSTORE PUSH32 0x4F6E6C7920636F6E7472616374206F776E65722063616E2063616C6C20746869 PUSH1 0x44 DUP3 ADD MSTORE PUSH1 0x73 PUSH1 0xF8 SHL PUSH1 0x64 DUP3 ADD MSTORE PUSH1 0x84 SWAP1 REVERT JUMPDEST DUP1 MLOAD ISZERO PUSH2 0x1CB0 JUMPI PUSH1 0x20 ADD SWAP1 JUMP JUMPDEST DUP1 MLOAD PUSH1 0x1 LT ISZERO PUSH2 0x1CB0 JUMPI PUSH1 0x40 ADD SWAP1 JUMP JUMPDEST DUP1 MLOAD DUP3 LT ISZERO PUSH2 0x1CB0 JUMPI PUSH1 0x20 SWAP2 PUSH1 0x5 SHL ADD ADD SWAP1 JUMP JUMPDEST SWAP1 DUP2 MLOAD DUP1 DUP3 MSTORE PUSH1 0x20 DUP1 DUP1 SWAP4 ADD SWAP4 ADD SWAP2 PUSH1 0x0 JUMPDEST DUP3 DUP2 LT PUSH2 0x1DEE JUMPI POP POP POP POP SWAP1 JUMP JUMPDEST DUP4 MLOAD PUSH1 0x1 PUSH1 0x1 PUSH1 0xA0 SHL SUB AND DUP6 MSTORE SWAP4 DUP2 ADD SWAP4 SWAP3 DUP2 ADD SWAP3 PUSH1 0x1 ADD PUSH2 0x1DE0 JUMP JUMPDEST SWAP1 DUP2 MLOAD DUP1 DUP3 MSTORE PUSH1 0x20 DUP1 DUP1 SWAP4 ADD SWAP4 ADD SWAP2 PUSH1 0x0 JUMPDEST DUP3 DUP2 LT PUSH2 0x1E2B JUMPI POP POP POP POP SWAP1 JUMP JUMPDEST DUP4 MLOAD DUP6 MSTORE SWAP4 DUP2 ADD SWAP4 SWAP3 DUP2 ADD SWAP3 PUSH1 0x1 ADD PUSH2 0x1E1D JUMP JUMPDEST CALLDATALOAD PUSH1 0x1 PUSH1 0x1 PUSH1 0xA0 SHL SUB DUP2 AND DUP2 SUB PUSH2 0xC3B JUMPI SWAP1 JUMP JUMPDEST SWAP2 SWAP1 DUP3 ADD DUP1 SWAP3 GT PUSH2 0x1E60 JUMPI JUMP JUMPDEST PUSH4 0x4E487B71 PUSH1 0xE0 SHL PUSH1 0x0 MSTORE PUSH1 0x11 PUSH1 0x4 MSTORE PUSH1 0x24 PUSH1 0x0 REVERT JUMPDEST SWAP2 SWAP1 DUP3 SUB SWAP2 DUP3 GT PUSH2 0x1E60 JUMPI JUMP JUMPDEST SWAP1 DUP2 PUSH1 0x20 SWAP2 SUB SLT PUSH2 0xC3B JUMPI MLOAD DUP1 ISZERO ISZERO DUP2 SUB PUSH2 0xC3B JUMPI SWAP1 JUMP JUMPDEST DUP2 DUP2 MUL SWAP3 SWAP2 DUP2 ISZERO SWAP2 DUP5 DIV EQ OR ISZERO PUSH2 0x1E60 JUMPI JUMP JUMPDEST SWAP1 PUSH1 0x20 SWAP1 DUP2 DUP4 DUP3 SUB SLT PUSH2 0xC3B JUMPI DUP3 MLOAD PUSH8 0xFFFFFFFFFFFFFFFF SWAP4 DUP5 DUP3 GT PUSH2 0xC3B JUMPI ADD DUP2 PUSH1 0x1F DUP3 ADD SLT ISZERO PUSH2 0xC3B JUMPI DUP1 MLOAD SWAP4 DUP5 GT PUSH2 0x1BF0 JUMPI DUP4 PUSH1 0x5 SHL SWAP1 PUSH1 0x40 MLOAD SWAP5 PUSH2 0x1EF8 DUP6 DUP5 ADD DUP8 PUSH2 0x1C06 JUMP JUMPDEST DUP6 MSTORE DUP4 DUP1 DUP7 ADD SWAP3 DUP3 ADD ADD SWAP3 DUP4 GT PUSH2 0xC3B JUMPI DUP4 ADD SWAP1 JUMPDEST DUP3 DUP3 LT PUSH2 0x1F1B JUMPI POP POP POP POP SWAP1 JUMP JUMPDEST DUP2 MLOAD DUP2 MSTORE SWAP1 DUP4 ADD SWAP1 DUP4 ADD PUSH2 0x1F0D JUMP JUMPDEST SWAP2 SWAP3 PUSH1 0x80 SWAP4 PUSH2 0x1F4F SWAP3 SWAP8 SWAP7 SWAP6 SWAP8 DUP5 MSTORE PUSH1 0x20 DUP5 ADD MSTORE PUSH1 0xA0 PUSH1 0x40 DUP5 ADD MSTORE PUSH1 0xA0 DUP4 ADD SWAP1 PUSH2 0x1DCE JUMP JUMPDEST PUSH1 0x1 PUSH1 0x1 PUSH1 0xA0 SHL SUB SWAP1 SWAP6 AND PUSH1 0x60 DUP3 ADD MSTORE ADD MSTORE JUMP JUMPDEST PUSH1 0x0 NOT DUP2 EQ PUSH2 0x1E60 JUMPI PUSH1 0x1 ADD SWAP1 JUMP JUMPDEST ISZERO PUSH2 0x1F79 JUMPI JUMP JUMPDEST PUSH1 0x40 MLOAD PUSH3 0x461BCD PUSH1 0xE5 SHL DUP2 MSTORE PUSH1 0x20 PUSH1 0x4 DUP3 ADD MSTORE PUSH1 0x16 PUSH1 0x24 DUP3 ADD MSTORE PUSH22 0x27B7363C903BB0BA31B43237B39037B91037BBB732B9 PUSH1 0x51 SHL PUSH1 0x44 DUP3 ADD MSTORE PUSH1 0x64 SWAP1 REVERT JUMPDEST SWAP1 PUSH1 0x1F DUP2 GT PUSH2 0x1FC5 JUMPI POP POP POP JUMP JUMPDEST PUSH1 0x0 SWAP2 DUP3 MSTORE PUSH1 0x20 DUP3 KECCAK256 SWAP1 PUSH1 0x20 PUSH1 0x1F DUP6 ADD PUSH1 0x5 SHR DUP4 ADD SWAP5 LT PUSH2 0x2001 JUMPI JUMPDEST PUSH1 0x1F ADD PUSH1 0x5 SHR ADD SWAP2 JUMPDEST DUP3 DUP2 LT PUSH2 0x1FF6 JUMPI POP POP POP JUMP JUMPDEST DUP2 DUP2 SSTORE PUSH1 0x1 ADD PUSH2 0x1FEA JUMP JUMPDEST SWAP1 SWAP3 POP DUP3 SWAP1 PUSH2 0x1FE1 JUMP JUMPDEST SWAP1 DUP1 DUP3 EQ PUSH2 0x20E6 JUMPI PUSH2 0x201D DUP2 SLOAD PUSH2 0x1CC6 JUMP JUMPDEST SWAP1 PUSH8 0xFFFFFFFFFFFFFFFF DUP3 GT PUSH2 0x1BF0 JUMPI DUP2 SWAP1 PUSH2 0x2043 DUP3 PUSH2 0x203D DUP7 SLOAD PUSH2 0x1CC6 JUMP JUMPDEST DUP7 PUSH2 0x1FB7 JUMP JUMPDEST PUSH1 0x0 SWAP1 PUSH1 0x1F DUP4 GT PUSH1 0x1 EQ PUSH2 0x207A JUMPI PUSH1 0x0 SWAP3 PUSH2 0x206F JUMPI JUMPDEST POP POP DUP2 PUSH1 0x1 SHL SWAP2 PUSH1 0x0 NOT SWAP1 PUSH1 0x3 SHL SHR NOT AND OR SWAP1 SSTORE JUMP JUMPDEST ADD SLOAD SWAP1 POP CODESIZE DUP1 PUSH2 0x2059 JUMP JUMPDEST DUP2 MSTORE PUSH1 0x20 DUP1 DUP3 KECCAK256 DUP6 DUP4 MSTORE DUP2 DUP4 KECCAK256 SWAP4 POP SWAP1 PUSH1 0x1F NOT DUP6 AND SWAP1 DUP4 SWAP1 JUMPDEST DUP3 DUP3 LT PUSH2 0x20CD JUMPI POP POP SWAP1 DUP5 PUSH1 0x1 SWAP6 SWAP5 SWAP4 SWAP3 LT PUSH2 0x20B4 JUMPI JUMPDEST POP POP POP DUP2 SHL ADD SWAP1 SSTORE JUMP JUMPDEST ADD SLOAD PUSH1 0x0 NOT PUSH1 0xF8 DUP5 PUSH1 0x3 SHL AND SHR NOT AND SWAP1 SSTORE CODESIZE DUP1 DUP1 PUSH2 0x20AA JUMP JUMPDEST DUP5 SWAP6 DUP2 SWAP3 SWAP6 DUP6 ADD SLOAD DUP2 SSTORE PUSH1 0x1 DUP1 SWAP2 ADD SWAP7 ADD SWAP5 ADD SWAP1 PUSH2 0x2093 JUMP JUMPDEST POP POP JUMP JUMPDEST SWAP2 SWAP4 SWAP3 SWAP1 PUSH2 0x21B1 JUMPI PUSH8 0xFFFFFFFFFFFFFFFF DUP2 GT PUSH2 0x1BF0 JUMPI PUSH2 0x2115 DUP2 PUSH2 0x210F DUP5 SLOAD PUSH2 0x1CC6 JUMP JUMPDEST DUP5 PUSH2 0x1FB7 JUMP JUMPDEST PUSH1 0x0 PUSH1 0x1F DUP3 GT PUSH1 0x1 EQ PUSH2 0x214E JUMPI DUP2 SWAP3 SWAP4 SWAP5 PUSH1 0x0 SWAP3 PUSH2 0x2143 JUMPI POP POP DUP2 PUSH1 0x1 SHL SWAP2 PUSH1 0x0 NOT SWAP1 PUSH1 0x3 SHL SHR NOT AND OR SWAP1 SSTORE JUMP JUMPDEST ADD CALLDATALOAD SWAP1 POP CODESIZE DUP1 PUSH2 0x2059 JUMP JUMPDEST PUSH1 0x1F NOT DUP3 AND SWAP5 DUP4 DUP3 MSTORE PUSH1 0x20 SWAP2 DUP3 DUP2 KECCAK256 SWAP3 DUP2 SWAP1 JUMPDEST DUP9 DUP3 LT PUSH2 0x2199 JUMPI POP POP DUP4 PUSH1 0x1 SWAP6 SWAP7 SWAP8 LT PUSH2 0x217F JUMPI POP POP POP DUP2 SHL ADD SWAP1 SSTORE JUMP JUMPDEST ADD CALLDATALOAD PUSH1 0x0 NOT PUSH1 0x3 DUP5 SWAP1 SHL PUSH1 0xF8 AND SHR NOT AND SWAP1 SSTORE CODESIZE DUP1 DUP1 PUSH2 0x20AA JUMP JUMPDEST DUP1 PUSH1 0x1 DUP5 SWAP7 DUP3 SWAP5 SWAP6 DUP8 ADD CALLDATALOAD DUP2 SSTORE ADD SWAP6 ADD SWAP3 ADD SWAP1 PUSH2 0x2161 JUMP JUMPDEST PUSH4 0x4E487B71 PUSH1 0xE0 SHL PUSH1 0x0 MSTORE PUSH1 0x0 PUSH1 0x4 MSTORE PUSH1 0x24 PUSH1 0x0 REVERT INVALID LOG2 PUSH5 0x6970667358 0x22 SLT KECCAK256 0x28 OR 0xB2 BALANCE STOP CREATE2 0xF6 0xB9 DUP10 PUSH8 0x76282E615A0D50EF 0xFB PUSH28 0x7E2C80380D57CF7D48415A2464736F6C634300081400330000000000 "},"methodIdentifiers":{"ADDRESSES_PROVIDER()":"0542975c","POOL()":"7535d246","autoRepairEnabled()":"ef0a1751","captureMarketData(uint256,uint256)":"90f37076","enableAutoRepair(bool)":"38ef4c3d","errorFrequency(string)":"03116b89","executeMultiFlashLoan(address,uint256,address,uint256)":"6ac59057","executeOperation(address[],uint256[],uint256[],address,bytes)":"920f5c84","isStopped()":"3f683b6a","logError(string)":"442017cc","minProfitThreshold()":"7341ab8c","owner()":"8da5cb5b","recentErrors(uint256)":"4af62206","resetKillSwitch()":"393c412c","setWatchdogAddress(address)":"c69985ee","slippageTolerance()":"d03153aa","updateMinProfit(uint256)":"3b42e5e2","updateSlippageTolerance(uint256)":"0f9da743","watchdogAddress()":"a361342f","withdrawToken(address)":"89476069"}}}}}