{"contracts/AfetiDevranArbitrage.sol":{"AfetiDevranArbitrage":{"abi":[{"inputs":[],"stateMutability":"nonpayable","type":"constructor"},{"anonymous":false,"inputs":[{"indexed":false,"internalType":"uint256","name":"netProfit","type":"uint256"},{"indexed":true,"internalType":"address","name":"asset","type":"address"}],"name":"ArbitrageSuccess","type":"event"},{"anonymous":false,"inputs":[{"indexed":false,"internalType":"string","name":"reason","type":"string"},{"indexed":false,"internalType":"uint256","name":"attemptNumber","type":"uint256"}],"name":"FailureLogged","type":"event"},{"anonymous":false,"inputs":[{"indexed":false,"internalType":"uint256","name":"failureCount","type":"uint256"}],"name":"KillSwitchActivated","type":"event"},{"anonymous":false,"inputs":[{"indexed":false,"internalType":"address[]","name":"assets","type":"address[]"},{"indexed":false,"internalType":"uint256[]","name":"amounts","type":"uint256[]"}],"name":"MultiFlashLoanInitiated","type":"event"},{"anonymous":false,"inputs":[{"indexed":false,"internalType":"string","name":"exchange","type":"string"},{"indexed":false,"internalType":"uint256","name":"inputAmount","type":"uint256"},{"indexed":false,"internalType":"uint256","name":"outputAmount","type":"uint256"}],"name":"SwapExecuted","type":"event"},{"inputs":[],"name":"ADDRESSES_PROVIDER","outputs":[{"internalType":"contract IPoolAddressesProvider","name":"","type":"address"}],"stateMutability":"view","type":"function"},{"inputs":[],"name":"POOL","outputs":[{"internalType":"contract IPool","name":"","type":"address"}],"stateMutability":"view","type":"function"},{"inputs":[{"internalType":"address","name":"tradeAsset","type":"address"},{"internalType":"uint256","name":"tradeAmount","type":"uint256"},{"internalType":"address","name":"gasAsset","type":"address"},{"internalType":"uint256","name":"gasAmount","type":"uint256"}],"name":"executeMultiFlashLoan","outputs":[],"stateMutability":"nonpayable","type":"function"},{"inputs":[{"internalType":"address[]","name":"assets","type":"address[]"},{"internalType":"uint256[]","name":"amounts","type":"uint256[]"},{"internalType":"uint256[]","name":"premiums","type":"uint256[]"},{"internalType":"address","name":"initiator","type":"address"},{"internalType":"bytes","name":"params","type":"bytes"}],"name":"executeOperation","outputs":[{"internalType":"bool","name":"","type":"bool"}],"stateMutability":"nonpayable","type":"function"},{"inputs":[],"name":"isStopped","outputs":[{"internalType":"bool","name":"","type":"bool"}],"stateMutability":"view","type":"function"},{"inputs":[],"name":"owner","outputs":[{"internalType":"address","name":"","type":"address"}],"stateMutability":"view","type":"function"},{"inputs":[],"name":"resetKillSwitch","outputs":[],"stateMutability":"nonpayable","type":"function"},{"inputs":[{"internalType":"address","name":"token","type":"address"}],"name":"withdrawToken","outputs":[],"stateMutability":"nonpayable","type":"function"}],"evm":{"bytecode":{"linkReferences":{},"object":"60e080604052346100b2576000805560ff19600154166001553360805273a97684ead0e402dc232d5a524153d7b0b733b4e360a05273794a61358d6845594f94dc1db02a252b5b4814ad60c05261175490816100b8823960805181818161075d0152818161080201528181610f1a01528181610f66015281816111250152611395015260a05181611435015260c051818181610125015281816106030152818161066c015281816110bd01526112370152f35b600080fdfe608080604052600436101561001357600080fd5b600090813560e01c9081630542975c1461142157508063393c412c1461137e5780633f683b6a1461135b5780636ac59057146110ec5780637535d246146110a75780638947606914610f495780638da5cb5b14610f045763920f5c841461007957600080fd5b34610f015760a0366003190112610f015767ffffffffffffffff600435818111610efd576100ab90369060040161147a565b602492919235828111610ef9576100c690369060040161147a565b939092604435818111610ef1576100e190369060040161147a565b9290916064356001600160a01b03811603610b235760843590808211610ef55736602383011215610ef5578160040135908111610ef55736910160240111610ef1577f00000000000000000000000000000000000000000000000000000000000000006001600160a01b03163303610eac5760ff60015416610e58578315610e445761016c8161160d565b9360011015610e44576020610181910161160d565b948015610e445760011015610e30578115610e30576101a281358535611621565b9160011015610e305760206101bd9101356020850135611621565b6040516370a0823160e01b81523060048201529092906020816024816001600160a01b0386165afa8015610b62578790610dfc575b6101ff9150853590611644565b93737ceb23fd6bc0add59e62ac25578270cff1b9f6196001600160a01b0383168114610de1575b60405163095ea7b360e01b815273a5e0829caced8ffdd4de3c43696c57f7d7a678ff6004820152823560248201526020816044818c6001600160a01b0389165af18015610d8957610dc2575b5060405161027f81611501565b6002815260403660208301376001600160a01b03841661029e82611555565b526102a881611578565b6001600160a01b03831690524261012c810110610d285782356103e3843502046103e3148335151715610d28578861030891604051809381926338ed173960e01b835261012c42019030906103e86103e38b3502048a35600487016116e5565b03818373a5e0829caced8ffdd4de3c43696c57f7d7a678ff5af1908115610d89578991610da8575b50805180600019810111610d94576103707f1aa376f6c3660ad1294c58a3a8ebee1be7c326c3c8a9c3d2ed91f3e7c8167a2a9260a0926000190190611588565b5193604051906060825260096060830152680517569636b537761760bc1b6080830152356020820152846040820152a160405163095ea7b360e01b8152731b02da8cb0d097eb8d57a175b88c7d8b479975066004820152602481018390526020816044818c6001600160a01b0387165af18015610d8957610d6a575b50604051906103fa82611501565b6002825260403660208401376001600160a01b031661041882611555565b526001600160a01b03831661042c82611578565b52816103e38102046103e31482151715610d56578761047191604051809381926338ed173960e01b835261012c42019030906103e86103e38a020489600487016116e5565b038183731b02da8cb0d097eb8d57a175b88c7d8b479975065af1908115610a23578891610d3c575b50805180600019810111610d2857916104da60a0927f1aa376f6c3660ad1294c58a3a8ebee1be7c326c3c8a9c3d2ed91f3e7c8167a2a946000190190611588565b516040519160608352600960608401526805375736869537761760bc1b608084015260208301526040820152a16040516370a0823160e01b81523060048201526020816024816001600160a01b0386165afa908115610b62578791610cf6575b506040516370a0823160e01b815230600482015287906020816024816001600160a01b038c165afa908115610cb6578291610cc1575b50858110610b6d575b50506040516370a0823160e01b815230600482015290506020816024816001600160a01b0386165afa908115610b62578791610b30575b506040516370a0823160e01b8152306004820152926020846024816001600160a01b038b165afa938415610a23578894610af7575b50808210610aa157848410610a4d5760405163095ea7b360e01b81527f00000000000000000000000000000000000000000000000000000000000000006001600160a01b0316600482015260248101829052889690602081806044810103818b6001600160a01b038a165af18015610a2357610a2e575b5060405163095ea7b360e01b81527f00000000000000000000000000000000000000000000000000000000000000006001600160a01b031660048201526024810187905290602082806044810103818b6001600160a01b038e165af1918215610a23576106d892610a04575b506106d38385611644565b611644565b91821561088157868055604051928352610722926001600160a01b038516907f480ed265ba9142fb949fe7ff65880fe1244f8f4d6c80cfa8759f5d87e8d3bccf90602090a2611644565b806107eb575b50506107349250611644565b9081610746575b602060405160018152f35b60405163a9059cbb60e01b81526001600160a01b037f00000000000000000000000000000000000000000000000000000000000000008116600483015260248201939093529291602091849160449183918691165af19081156107df57506107b0575b808061073b565b6107d19060203d6020116107d8575b6107c98183611533565b810190611651565b50386107a9565b503d6107bf565b604051903d90823e3d90fd5b60405163a9059cbb60e01b81526001600160a01b037f000000000000000000000000000000000000000000000000000000000000000081166004830152602482019290925294602092869260449284929091165af19283156108765761073493610857575b8593610728565b61086f9060203d6020116107d8576107c98183611533565b5038610850565b6040513d87823e3d90fd5b86548760001982146109f057600182017f8f112d5fa1bd402e65a01266ee77605e7eab3204fac5336580cab66a03b8914d608060405160408152601960408201527f4e65676174697665206172626974726167652070726f666974000000000000006060820152836020820152a1600381101561096e5760405162461bcd60e51b815260206004820152604260248201527f41726269747261676520756e70726f66697461626c65202d20696e737566666960448201527f6369656e7420737072656164206f722065786365737369766520736c69707061606482015261676560f01b608482015260a490fd5b60207fd0ca21e9326df06d11abee438088c4a3b9e87ce126ba6b8f0621013e78c568af91604051908152a160405162461bcd60e51b815260206004820152602960248201527f4b696c6c2053776974636820747269676765726564202d2033206661696c656460448201526820617474656d70747360b81b6064820152608490fd5b634e487b7160e01b81526011600452602490fd5b610a1c9060203d6020116107d8576107c98183611533565b50386106c8565b6040513d8a823e3d90fd5b610a469060203d6020116107d8576107c98183611533565b503861065c565b60405162461bcd60e51b815260206004820152602660248201527f496e73756666696369656e74206761732062616c616e636520666f7220726570604482015265185e5b595b9d60d21b6064820152608490fd5b60405162461bcd60e51b815260206004820152602860248201527f496e73756666696369656e742074726164652062616c616e636520666f722072604482015267195c185e5b595b9d60c21b6064820152608490fd5b9093506020813d602011610b28575b81610b1360209383611533565b81010312610b23575192386105e5565b600080fd5b3d9150610b06565b90506020813d602011610b5a575b81610b4b60209383611533565b81010312610b235751386105b0565b3d9150610b3e565b6040513d89823e3d90fd5b610b779086611644565b60405163095ea7b360e01b815273a5e0829caced8ffdd4de3c43696c57f7d7a678ff60048201526024810193909352602083604481856001600160a01b0389165af1928315610cb657610c3993610c97575b5060405190610bd782611501565b6002825260403660208401376001600160a01b038516610bf683611555565b526001600160a01b038916610c0a83611578565b5260405193849283926338ed173960e01b8452600484015284602484015260a0604484015260a483019061159c565b30606483015261012c4201608483015203818373a5e0829caced8ffdd4de3c43696c57f7d7a678ff5af18015610b6257610c75575b8681610579565b610c90903d8089833e610c888183611533565b810190611669565b5038610c6e565b610caf9060203d6020116107d8576107c98183611533565b5038610bc9565b6040513d84823e3d90fd5b9150506020813d602011610cee575b81610cdd60209383611533565b81010312610b235787905138610570565b3d9150610cd0565b90506020813d602011610d20575b81610d1160209383611533565b81010312610b2357513861053a565b3d9150610d04565b634e487b7160e01b89526011600452602489fd5b610d5091503d808a833e610c888183611533565b38610499565b634e487b7160e01b88526011600452602488fd5b610d829060203d6020116107d8576107c98183611533565b50386103ec565b6040513d8b823e3d90fd5b634e487b7160e01b8a52601160045260248afd5b610dbc91503d808b833e610c888183611533565b38610330565b610dda9060203d6020116107d8576107c98183611533565b5038610272565b50732791bca1f2de4661ed88a30c99a7a9449aa84174610226565b506020813d602011610e28575b81610e1660209383611533565b81010312610b23576101ff90516101f2565b3d9150610e09565b634e487b7160e01b86526032600452602486fd5b634e487b7160e01b87526032600452602487fd5b60405162461bcd60e51b815260206004820152602660248201527f4b696c6c2053776974636820616374697665202d206f7065726174696f6e20626044820152651b1bd8dad95960d21b6064820152608490fd5b60405162461bcd60e51b815260206004820152601860248201527f43616c6c6572206d757374206265204161766520506f6f6c00000000000000006044820152606490fd5b8680fd5b8880fd5b8480fd5b8280fd5b80fd5b5034610f015780600319360112610f01576040517f00000000000000000000000000000000000000000000000000000000000000006001600160a01b03168152602090f35b5034610f01576020806003193601126110a357610f64611464565b7f0000000000000000000000000000000000000000000000000000000000000000906001600160a01b0390610f9c33838516146114ab565b16604051916370a0823160e01b83523060048401528383602481855afa928315610876578593611074575b5082156110375760405163a9059cbb60e01b81526001600160a01b03919091166004820152602481019290925282908290604490829087905af1801561102c5761100f578280f35b8161102592903d106107d8576107c98183611533565b5038808280f35b6040513d85823e3d90fd5b60405162461bcd60e51b81526004810185905260156024820152744e6f20746f6b656e7320746f20776974686472617760581b6044820152606490fd5b9092508381813d831161109c575b61108c8183611533565b81010312610b2357519138610fc7565b503d611082565b5080fd5b5034610f015780600319360112610f01576040517f00000000000000000000000000000000000000000000000000000000000000006001600160a01b03168152602090f35b5034610f01576003196080368201126110a357611107611464565b906001600160a01b036044358181169290839003610ef95761114c827f00000000000000000000000000000000000000000000000000000000000000001633146114ab565b60ff6001541661130a5784926040519461116586611501565b6002865260403660208801378361117b87611555565b9116905261118885611578565b526040519361119685611501565b6002855260403660208701376024356111ae86611555565b526064356111bb86611578565b52604051926111c984611501565b600284526040366020860137846111df85611555565b52846111ea85611578565b527f2494a915d576b32d2d414c253b041f04e4be248421bd2a389d8dd8acd08c6a6f6040516040815280611232611224604083018761159c565b82810360208401528a6115d9565b0390a17f00000000000000000000000000000000000000000000000000000000000000001691823b15610ef95760208591826112b7611297976112a76040519b8c9a8b9963ab9c4b5d60e01b8b523060048c015260e060248c015260e48b019061159c565b90868a83030160448b01526115d9565b90848883030160648901526115d9565b30608487015285810392830160a4870152528260c485015201925af18015610cb6576112e1575080f35b67ffffffffffffffff81116112f65760405280f35b634e487b7160e01b82526041600452602482fd5b60405162461bcd60e51b815260206004820152602360248201527f4b696c6c2053776974636820616374697661746564202d20626f742073746f706044820152621c195960ea1b6064820152608490fd5b5034610f015780600319360112610f0157602060ff600154166040519015158152f35b5034610f015780600319360112610f01576113c3337f00000000000000000000000000000000000000000000000000000000000000006001600160a01b0316146114ab565b60015460ff8116156113dc5760ff191660015580805580f35b60405162461bcd60e51b815260206004820152601960248201527f4b696c6c20537769746368206973206e6f7420616374697665000000000000006044820152606490fd5b9050346110a357816003193601126110a3577f00000000000000000000000000000000000000000000000000000000000000006001600160a01b03168152602090f35b600435906001600160a01b0382168203610b2357565b9181601f84011215610b235782359167ffffffffffffffff8311610b23576020808501948460051b010111610b2357565b156114b257565b60405162461bcd60e51b815260206004820152602160248201527f4f6e6c7920636f6e7472616374206f776e65722063616e2063616c6c207468696044820152607360f81b6064820152608490fd5b6060810190811067ffffffffffffffff82111761151d57604052565b634e487b7160e01b600052604160045260246000fd5b90601f8019910116810190811067ffffffffffffffff82111761151d57604052565b8051156115625760200190565b634e487b7160e01b600052603260045260246000fd5b8051600110156115625760400190565b80518210156115625760209160051b010190565b90815180825260208080930193019160005b8281106115bc575050505090565b83516001600160a01b0316855293810193928101926001016115ae565b90815180825260208080930193019160005b8281106115f9575050505090565b8351855293810193928101926001016115eb565b356001600160a01b0381168103610b235790565b9190820180921161162e57565b634e487b7160e01b600052601160045260246000fd5b9190820391821161162e57565b90816020910312610b2357518015158103610b235790565b906020908183820312610b2357825167ffffffffffffffff93848211610b23570181601f82011215610b2357805193841161151d578360051b90604051946116b385840187611533565b85528380860192820101928311610b23578301905b8282106116d6575050505090565b815181529083019083016116c8565b919260809361170a92979695978452602084015260a0604084015260a083019061159c565b6001600160a01b039095166060820152015256fea26469706673582212204c118a6378bf3f6f0a083c9250234fa86cff160a56a706282f3e2e594d1619db64736f6c63430008140033","opcodes":"PUSH1 0xE0 DUP1 PUSH1 0x40 MSTORE CALLVALUE PUSH2 0xB2 JUMPI PUSH1 0x0 DUP1 SSTORE PUSH1 0xFF NOT PUSH1 0x1 SLOAD AND PUSH1 0x1 SSTORE CALLER PUSH1 0x80 MSTORE PUSH20 0xA97684EAD0E402DC232D5A524153D7B0B733B4E3 PUSH1 0xA0 MSTORE PUSH20 0x794A61358D6845594F94DC1DB02A252B5B4814AD PUSH1 0xC0 MSTORE PUSH2 0x1754 SWAP1 DUP2 PUSH2 0xB8 DUP3 CODECOPY PUSH1 0x80 MLOAD DUP2 DUP2 DUP2 PUSH2 0x75D ADD MSTORE DUP2 DUP2 PUSH2 0x802 ADD MSTORE DUP2 DUP2 PUSH2 0xF1A ADD MSTORE DUP2 DUP2 PUSH2 0xF66 ADD MSTORE DUP2 DUP2 PUSH2 0x1125 ADD MSTORE PUSH2 0x1395 ADD MSTORE PUSH1 0xA0 MLOAD DUP2 PUSH2 0x1435 ADD MSTORE PUSH1 0xC0 MLOAD DUP2 DUP2 DUP2 PUSH2 0x125 ADD MSTORE DUP2 DUP2 PUSH2 0x603 ADD MSTORE DUP2 DUP2 PUSH2 0x66C ADD MSTORE DUP2 DUP2 PUSH2 0x10BD ADD MSTORE PUSH2 0x1237 ADD MSTORE RETURN JUMPDEST PUSH1 0x0 DUP1 REVERT INVALID PUSH1 0x80 DUP1 PUSH1 0x40 MSTORE PUSH1 0x4 CALLDATASIZE LT ISZERO PUSH2 0x13 JUMPI PUSH1 0x0 DUP1 REVERT JUMPDEST PUSH1 0x0 SWAP1 DUP2 CALLDATALOAD PUSH1 0xE0 SHR SWAP1 DUP2 PUSH4 0x542975C EQ PUSH2 0x1421 JUMPI POP DUP1 PUSH4 0x393C412C EQ PUSH2 0x137E JUMPI DUP1 PUSH4 0x3F683B6A EQ PUSH2 0x135B JUMPI DUP1 PUSH4 0x6AC59057 EQ PUSH2 0x10EC JUMPI DUP1 PUSH4 0x7535D246 EQ PUSH2 0x10A7 JUMPI DUP1 PUSH4 0x89476069 EQ PUSH2 0xF49 JUMPI DUP1 PUSH4 0x8DA5CB5B EQ PUSH2 0xF04 JUMPI PUSH4 0x920F5C84 EQ PUSH2 0x79 JUMPI PUSH1 0x0 DUP1 REVERT JUMPDEST CALLVALUE PUSH2 0xF01 JUMPI PUSH1 0xA0 CALLDATASIZE PUSH1 0x3 NOT ADD SLT PUSH2 0xF01 JUMPI PUSH8 0xFFFFFFFFFFFFFFFF PUSH1 0x4 CALLDATALOAD DUP2 DUP2 GT PUSH2 0xEFD JUMPI PUSH2 0xAB SWAP1 CALLDATASIZE SWAP1 PUSH1 0x4 ADD PUSH2 0x147A JUMP JUMPDEST PUSH1 0x24 SWAP3 SWAP2 SWAP3 CALLDATALOAD DUP3 DUP2 GT PUSH2 0xEF9 JUMPI PUSH2 0xC6 SWAP1 CALLDATASIZE SWAP1 PUSH1 0x4 ADD PUSH2 0x147A JUMP JUMPDEST SWAP4 SWAP1 SWAP3 PUSH1 0x44 CALLDATALOAD DUP2 DUP2 GT PUSH2 0xEF1 JUMPI PUSH2 0xE1 SWAP1 CALLDATASIZE SWAP1 PUSH1 0x4 ADD PUSH2 0x147A JUMP JUMPDEST SWAP3 SWAP1 SWAP2 PUSH1 0x64 CALLDATALOAD PUSH1 0x1 PUSH1 0x1 PUSH1 0xA0 SHL SUB DUP2 AND SUB PUSH2 0xB23 JUMPI PUSH1 0x84 CALLDATALOAD SWAP1 DUP1 DUP3 GT PUSH2 0xEF5 JUMPI CALLDATASIZE PUSH1 0x23 DUP4 ADD SLT ISZERO PUSH2 0xEF5 JUMPI DUP2 PUSH1 0x4 ADD CALLDATALOAD SWAP1 DUP2 GT PUSH2 0xEF5 JUMPI CALLDATASIZE SWAP2 ADD PUSH1 0x24 ADD GT PUSH2 0xEF1 JUMPI PUSH32 0x0 PUSH1 0x1 PUSH1 0x1 PUSH1 0xA0 SHL SUB AND CALLER SUB PUSH2 0xEAC JUMPI PUSH1 0xFF PUSH1 0x1 SLOAD AND PUSH2 0xE58 JUMPI DUP4 ISZERO PUSH2 0xE44 JUMPI PUSH2 0x16C DUP2 PUSH2 0x160D JUMP JUMPDEST SWAP4 PUSH1 0x1 LT ISZERO PUSH2 0xE44 JUMPI PUSH1 0x20 PUSH2 0x181 SWAP2 ADD PUSH2 0x160D JUMP JUMPDEST SWAP5 DUP1 ISZERO PUSH2 0xE44 JUMPI PUSH1 0x1 LT ISZERO PUSH2 0xE30 JUMPI DUP2 ISZERO PUSH2 0xE30 JUMPI PUSH2 0x1A2 DUP2 CALLDATALOAD DUP6 CALLDATALOAD PUSH2 0x1621 JUMP JUMPDEST SWAP2 PUSH1 0x1 LT ISZERO PUSH2 0xE30 JUMPI PUSH1 0x20 PUSH2 0x1BD SWAP2 ADD CALLDATALOAD PUSH1 0x20 DUP6 ADD CALLDATALOAD PUSH2 0x1621 JUMP JUMPDEST PUSH1 0x40 MLOAD PUSH4 0x70A08231 PUSH1 0xE0 SHL DUP2 MSTORE ADDRESS PUSH1 0x4 DUP3 ADD MSTORE SWAP1 SWAP3 SWAP1 PUSH1 0x20 DUP2 PUSH1 0x24 DUP2 PUSH1 0x1 PUSH1 0x1 PUSH1 0xA0 SHL SUB DUP7 AND GAS STATICCALL DUP1 ISZERO PUSH2 0xB62 JUMPI DUP8 SWAP1 PUSH2 0xDFC JUMPI JUMPDEST PUSH2 0x1FF SWAP2 POP DUP6 CALLDATALOAD SWAP1 PUSH2 0x1644 JUMP JUMPDEST SWAP4 PUSH20 0x7CEB23FD6BC0ADD59E62AC25578270CFF1B9F619 PUSH1 0x1 PUSH1 0x1 PUSH1 0xA0 SHL SUB DUP4 AND DUP2 EQ PUSH2 0xDE1 JUMPI JUMPDEST PUSH1 0x40 MLOAD PUSH4 0x95EA7B3 PUSH1 0xE0 SHL DUP2 MSTORE PUSH20 0xA5E0829CACED8FFDD4DE3C43696C57F7D7A678FF PUSH1 0x4 DUP3 ADD MSTORE DUP3 CALLDATALOAD PUSH1 0x24 DUP3 ADD MSTORE PUSH1 0x20 DUP2 PUSH1 0x44 DUP2 DUP13 PUSH1 0x1 PUSH1 0x1 PUSH1 0xA0 SHL SUB DUP10 AND GAS CALL DUP1 ISZERO PUSH2 0xD89 JUMPI PUSH2 0xDC2 JUMPI JUMPDEST POP PUSH1 0x40 MLOAD PUSH2 0x27F DUP2 PUSH2 0x1501 JUMP JUMPDEST PUSH1 0x2 DUP2 MSTORE PUSH1 0x40 CALLDATASIZE PUSH1 0x20 DUP4 ADD CALLDATACOPY PUSH1 0x1 PUSH1 0x1 PUSH1 0xA0 SHL SUB DUP5 AND PUSH2 0x29E DUP3 PUSH2 0x1555 JUMP JUMPDEST MSTORE PUSH2 0x2A8 DUP2 PUSH2 0x1578 JUMP JUMPDEST PUSH1 0x1 PUSH1 0x1 PUSH1 0xA0 SHL SUB DUP4 AND SWAP1 MSTORE TIMESTAMP PUSH2 0x12C DUP2 ADD LT PUSH2 0xD28 JUMPI DUP3 CALLDATALOAD PUSH2 0x3E3 DUP5 CALLDATALOAD MUL DIV PUSH2 0x3E3 EQ DUP4 CALLDATALOAD ISZERO OR ISZERO PUSH2 0xD28 JUMPI DUP9 PUSH2 0x308 SWAP2 PUSH1 0x40 MLOAD DUP1 SWAP4 DUP2 SWAP3 PUSH4 0x38ED1739 PUSH1 0xE0 SHL DUP4 MSTORE PUSH2 0x12C TIMESTAMP ADD SWAP1 ADDRESS SWAP1 PUSH2 0x3E8 PUSH2 0x3E3 DUP12 CALLDATALOAD MUL DIV DUP11 CALLDATALOAD PUSH1 0x4 DUP8 ADD PUSH2 0x16E5 JUMP JUMPDEST SUB DUP2 DUP4 PUSH20 0xA5E0829CACED8FFDD4DE3C43696C57F7D7A678FF GAS CALL SWAP1 DUP2 ISZERO PUSH2 0xD89 JUMPI DUP10 SWAP2 PUSH2 0xDA8 JUMPI JUMPDEST POP DUP1 MLOAD DUP1 PUSH1 0x0 NOT DUP2 ADD GT PUSH2 0xD94 JUMPI PUSH2 0x370 PUSH32 0x1AA376F6C3660AD1294C58A3A8EBEE1BE7C326C3C8A9C3D2ED91F3E7C8167A2A SWAP3 PUSH1 0xA0 SWAP3 PUSH1 0x0 NOT ADD SWAP1 PUSH2 0x1588 JUMP JUMPDEST MLOAD SWAP4 PUSH1 0x40 MLOAD SWAP1 PUSH1 0x60 DUP3 MSTORE PUSH1 0x9 PUSH1 0x60 DUP4 ADD MSTORE PUSH9 0x517569636B5377617 PUSH1 0xBC SHL PUSH1 0x80 DUP4 ADD MSTORE CALLDATALOAD PUSH1 0x20 DUP3 ADD MSTORE DUP5 PUSH1 0x40 DUP3 ADD MSTORE LOG1 PUSH1 0x40 MLOAD PUSH4 0x95EA7B3 PUSH1 0xE0 SHL DUP2 MSTORE PUSH20 0x1B02DA8CB0D097EB8D57A175B88C7D8B47997506 PUSH1 0x4 DUP3 ADD MSTORE PUSH1 0x24 DUP2 ADD DUP4 SWAP1 MSTORE PUSH1 0x20 DUP2 PUSH1 0x44 DUP2 DUP13 PUSH1 0x1 PUSH1 0x1 PUSH1 0xA0 SHL SUB DUP8 AND GAS CALL DUP1 ISZERO PUSH2 0xD89 JUMPI PUSH2 0xD6A JUMPI JUMPDEST POP PUSH1 0x40 MLOAD SWAP1 PUSH2 0x3FA DUP3 PUSH2 0x1501 JUMP JUMPDEST PUSH1 0x2 DUP3 MSTORE PUSH1 0x40 CALLDATASIZE PUSH1 0x20 DUP5 ADD CALLDATACOPY PUSH1 0x1 PUSH1 0x1 PUSH1 0xA0 SHL SUB AND PUSH2 0x418 DUP3 PUSH2 0x1555 JUMP JUMPDEST MSTORE PUSH1 0x1 PUSH1 0x1 PUSH1 0xA0 SHL SUB DUP4 AND PUSH2 0x42C DUP3 PUSH2 0x1578 JUMP JUMPDEST MSTORE DUP2 PUSH2 0x3E3 DUP2 MUL DIV PUSH2 0x3E3 EQ DUP3 ISZERO OR ISZERO PUSH2 0xD56 JUMPI DUP8 PUSH2 0x471 SWAP2 PUSH1 0x40 MLOAD DUP1 SWAP4 DUP2 SWAP3 PUSH4 0x38ED1739 PUSH1 0xE0 SHL DUP4 MSTORE PUSH2 0x12C TIMESTAMP ADD SWAP1 ADDRESS SWAP1 PUSH2 0x3E8 PUSH2 0x3E3 DUP11 MUL DIV DUP10 PUSH1 0x4 DUP8 ADD PUSH2 0x16E5 JUMP JUMPDEST SUB DUP2 DUP4 PUSH20 0x1B02DA8CB0D097EB8D57A175B88C7D8B47997506 GAS CALL SWAP1 DUP2 ISZERO PUSH2 0xA23 JUMPI DUP9 SWAP2 PUSH2 0xD3C JUMPI JUMPDEST POP DUP1 MLOAD DUP1 PUSH1 0x0 NOT DUP2 ADD GT PUSH2 0xD28 JUMPI SWAP2 PUSH2 0x4DA PUSH1 0xA0 SWAP3 PUSH32 0x1AA376F6C3660AD1294C58A3A8EBEE1BE7C326C3C8A9C3D2ED91F3E7C8167A2A SWAP5 PUSH1 0x0 NOT ADD SWAP1 PUSH2 0x1588 JUMP JUMPDEST MLOAD PUSH1 0x40 MLOAD SWAP2 PUSH1 0x60 DUP4 MSTORE PUSH1 0x9 PUSH1 0x60 DUP5 ADD MSTORE PUSH9 0x53757368695377617 PUSH1 0xBC SHL PUSH1 0x80 DUP5 ADD MSTORE PUSH1 0x20 DUP4 ADD MSTORE PUSH1 0x40 DUP3 ADD MSTORE LOG1 PUSH1 0x40 MLOAD PUSH4 0x70A08231 PUSH1 0xE0 SHL DUP2 MSTORE ADDRESS PUSH1 0x4 DUP3 ADD MSTORE PUSH1 0x20 DUP2 PUSH1 0x24 DUP2 PUSH1 0x1 PUSH1 0x1 PUSH1 0xA0 SHL SUB DUP7 AND GAS STATICCALL SWAP1 DUP2 ISZERO PUSH2 0xB62 JUMPI DUP8 SWAP2 PUSH2 0xCF6 JUMPI JUMPDEST POP PUSH1 0x40 MLOAD PUSH4 0x70A08231 PUSH1 0xE0 SHL DUP2 MSTORE ADDRESS PUSH1 0x4 DUP3 ADD MSTORE DUP8 SWAP1 PUSH1 0x20 DUP2 PUSH1 0x24 DUP2 PUSH1 0x1 PUSH1 0x1 PUSH1 0xA0 SHL SUB DUP13 AND GAS STATICCALL SWAP1 DUP2 ISZERO PUSH2 0xCB6 JUMPI DUP3 SWAP2 PUSH2 0xCC1 JUMPI JUMPDEST POP DUP6 DUP2 LT PUSH2 0xB6D JUMPI JUMPDEST POP POP PUSH1 0x40 MLOAD PUSH4 0x70A08231 PUSH1 0xE0 SHL DUP2 MSTORE ADDRESS PUSH1 0x4 DUP3 ADD MSTORE SWAP1 POP PUSH1 0x20 DUP2 PUSH1 0x24 DUP2 PUSH1 0x1 PUSH1 0x1 PUSH1 0xA0 SHL SUB DUP7 AND GAS STATICCALL SWAP1 DUP2 ISZERO PUSH2 0xB62 JUMPI DUP8 SWAP2 PUSH2 0xB30 JUMPI JUMPDEST POP PUSH1 0x40 MLOAD PUSH4 0x70A08231 PUSH1 0xE0 SHL DUP2 MSTORE ADDRESS PUSH1 0x4 DUP3 ADD MSTORE SWAP3 PUSH1 0x20 DUP5 PUSH1 0x24 DUP2 PUSH1 0x1 PUSH1 0x1 PUSH1 0xA0 SHL SUB DUP12 AND GAS STATICCALL SWAP4 DUP5 ISZERO PUSH2 0xA23 JUMPI DUP9 SWAP5 PUSH2 0xAF7 JUMPI JUMPDEST POP DUP1 DUP3 LT PUSH2 0xAA1 JUMPI DUP5 DUP5 LT PUSH2 0xA4D JUMPI PUSH1 0x40 MLOAD PUSH4 0x95EA7B3 PUSH1 0xE0 SHL DUP2 MSTORE PUSH32 0x0 PUSH1 0x1 PUSH1 0x1 PUSH1 0xA0 SHL SUB AND PUSH1 0x4 DUP3 ADD MSTORE PUSH1 0x24 DUP2 ADD DUP3 SWAP1 MSTORE DUP9 SWAP7 SWAP1 PUSH1 0x20 DUP2 DUP1 PUSH1 0x44 DUP2 ADD SUB DUP2 DUP12 PUSH1 0x1 PUSH1 0x1 PUSH1 0xA0 SHL SUB DUP11 AND GAS CALL DUP1 ISZERO PUSH2 0xA23 JUMPI PUSH2 0xA2E JUMPI JUMPDEST POP PUSH1 0x40 MLOAD PUSH4 0x95EA7B3 PUSH1 0xE0 SHL DUP2 MSTORE PUSH32 0x0 PUSH1 0x1 PUSH1 0x1 PUSH1 0xA0 SHL SUB AND PUSH1 0x4 DUP3 ADD MSTORE PUSH1 0x24 DUP2 ADD DUP8 SWAP1 MSTORE SWAP1 PUSH1 0x20 DUP3 DUP1 PUSH1 0x44 DUP2 ADD SUB DUP2 DUP12 PUSH1 0x1 PUSH1 0x1 PUSH1 0xA0 SHL SUB DUP15 AND GAS CALL SWAP2 DUP3 ISZERO PUSH2 0xA23 JUMPI PUSH2 0x6D8 SWAP3 PUSH2 0xA04 JUMPI JUMPDEST POP PUSH2 0x6D3 DUP4 DUP6 PUSH2 0x1644 JUMP JUMPDEST PUSH2 0x1644 JUMP JUMPDEST SWAP2 DUP3 ISZERO PUSH2 0x881 JUMPI DUP7 DUP1 SSTORE PUSH1 0x40 MLOAD SWAP3 DUP4 MSTORE PUSH2 0x722 SWAP3 PUSH1 0x1 PUSH1 0x1 PUSH1 0xA0 SHL SUB DUP6 AND SWAP1 PUSH32 0x480ED265BA9142FB949FE7FF65880FE1244F8F4D6C80CFA8759F5D87E8D3BCCF SWAP1 PUSH1 0x20 SWAP1 LOG2 PUSH2 0x1644 JUMP JUMPDEST DUP1 PUSH2 0x7EB JUMPI JUMPDEST POP POP PUSH2 0x734 SWAP3 POP PUSH2 0x1644 JUMP JUMPDEST SWAP1 DUP2 PUSH2 0x746 JUMPI JUMPDEST PUSH1 0x20 PUSH1 0x40 MLOAD PUSH1 0x1 DUP2 MSTORE RETURN JUMPDEST PUSH1 0x40 MLOAD PUSH4 0xA9059CBB PUSH1 0xE0 SHL DUP2 MSTORE PUSH1 0x1 PUSH1 0x1 PUSH1 0xA0 SHL SUB PUSH32 0x0 DUP2 AND PUSH1 0x4 DUP4 ADD MSTORE PUSH1 0x24 DUP3 ADD SWAP4 SWAP1 SWAP4 MSTORE SWAP3 SWAP2 PUSH1 0x20 SWAP2 DUP5 SWAP2 PUSH1 0x44 SWAP2 DUP4 SWAP2 DUP7 SWAP2 AND GAS CALL SWAP1 DUP2 ISZERO PUSH2 0x7DF JUMPI POP PUSH2 0x7B0 JUMPI JUMPDEST DUP1 DUP1 PUSH2 0x73B JUMP JUMPDEST PUSH2 0x7D1 SWAP1 PUSH1 0x20 RETURNDATASIZE PUSH1 0x20 GT PUSH2 0x7D8 JUMPI JUMPDEST PUSH2 0x7C9 DUP2 DUP4 PUSH2 0x1533 JUMP JUMPDEST DUP2 ADD SWAP1 PUSH2 0x1651 JUMP JUMPDEST POP CODESIZE PUSH2 0x7A9 JUMP JUMPDEST POP RETURNDATASIZE PUSH2 0x7BF JUMP JUMPDEST PUSH1 0x40 MLOAD SWAP1 RETURNDATASIZE SWAP1 DUP3 RETURNDATACOPY RETURNDATASIZE SWAP1 REVERT JUMPDEST PUSH1 0x40 MLOAD PUSH4 0xA9059CBB PUSH1 0xE0 SHL DUP2 MSTORE PUSH1 0x1 PUSH1 0x1 PUSH1 0xA0 SHL SUB PUSH32 0x0 DUP2 AND PUSH1 0x4 DUP4 ADD MSTORE PUSH1 0x24 DUP3 ADD SWAP3 SWAP1 SWAP3 MSTORE SWAP5 PUSH1 0x20 SWAP3 DUP7 SWAP3 PUSH1 0x44 SWAP3 DUP5 SWAP3 SWAP1 SWAP2 AND GAS CALL SWAP3 DUP4 ISZERO PUSH2 0x876 JUMPI PUSH2 0x734 SWAP4 PUSH2 0x857 JUMPI JUMPDEST DUP6 SWAP4 PUSH2 0x728 JUMP JUMPDEST PUSH2 0x86F SWAP1 PUSH1 0x20 RETURNDATASIZE PUSH1 0x20 GT PUSH2 0x7D8 JUMPI PUSH2 0x7C9 DUP2 DUP4 PUSH2 0x1533 JUMP JUMPDEST POP CODESIZE PUSH2 0x850 JUMP JUMPDEST PUSH1 0x40 MLOAD RETURNDATASIZE DUP8 DUP3 RETURNDATACOPY RETURNDATASIZE SWAP1 REVERT JUMPDEST DUP7 SLOAD DUP8 PUSH1 0x0 NOT DUP3 EQ PUSH2 0x9F0 JUMPI PUSH1 0x1 DUP3 ADD PUSH32 0x8F112D5FA1BD402E65A01266EE77605E7EAB3204FAC5336580CAB66A03B8914D PUSH1 0x80 PUSH1 0x40 MLOAD PUSH1 0x40 DUP2 MSTORE PUSH1 0x19 PUSH1 0x40 DUP3 ADD MSTORE PUSH32 0x4E65676174697665206172626974726167652070726F66697400000000000000 PUSH1 0x60 DUP3 ADD MSTORE DUP4 PUSH1 0x20 DUP3 ADD MSTORE LOG1 PUSH1 0x3 DUP2 LT ISZERO PUSH2 0x96E JUMPI PUSH1 0x40 MLOAD PUSH3 0x461BCD PUSH1 0xE5 SHL DUP2 MSTORE PUSH1 0x20 PUSH1 0x4 DUP3 ADD MSTORE PUSH1 0x42 PUSH1 0x24 DUP3 ADD MSTORE PUSH32 0x41726269747261676520756E70726F66697461626C65202D20696E7375666669 PUSH1 0x44 DUP3 ADD MSTORE PUSH32 0x6369656E7420737072656164206F722065786365737369766520736C69707061 PUSH1 0x64 DUP3 ADD MSTORE PUSH2 0x6765 PUSH1 0xF0 SHL PUSH1 0x84 DUP3 ADD MSTORE PUSH1 0xA4 SWAP1 REVERT JUMPDEST PUSH1 0x20 PUSH32 0xD0CA21E9326DF06D11ABEE438088C4A3B9E87CE126BA6B8F0621013E78C568AF SWAP2 PUSH1 0x40 MLOAD SWAP1 DUP2 MSTORE LOG1 PUSH1 0x40 MLOAD PUSH3 0x461BCD PUSH1 0xE5 SHL DUP2 MSTORE PUSH1 0x20 PUSH1 0x4 DUP3 ADD MSTORE PUSH1 0x29 PUSH1 0x24 DUP3 ADD MSTORE PUSH32 0x4B696C6C2053776974636820747269676765726564202D2033206661696C6564 PUSH1 0x44 DUP3 ADD MSTORE PUSH9 0x20617474656D707473 PUSH1 0xB8 SHL PUSH1 0x64 DUP3 ADD MSTORE PUSH1 0x84 SWAP1 REVERT JUMPDEST PUSH4 0x4E487B71 PUSH1 0xE0 SHL DUP2 MSTORE PUSH1 0x11 PUSH1 0x4 MSTORE PUSH1 0x24 SWAP1 REVERT JUMPDEST PUSH2 0xA1C SWAP1 PUSH1 0x20 RETURNDATASIZE PUSH1 0x20 GT PUSH2 0x7D8 JUMPI PUSH2 0x7C9 DUP2 DUP4 PUSH2 0x1533 JUMP JUMPDEST POP CODESIZE PUSH2 0x6C8 JUMP JUMPDEST PUSH1 0x40 MLOAD RETURNDATASIZE DUP11 DUP3 RETURNDATACOPY RETURNDATASIZE SWAP1 REVERT JUMPDEST PUSH2 0xA46 SWAP1 PUSH1 0x20 RETURNDATASIZE PUSH1 0x20 GT PUSH2 0x7D8 JUMPI PUSH2 0x7C9 DUP2 DUP4 PUSH2 0x1533 JUMP JUMPDEST POP CODESIZE PUSH2 0x65C JUMP JUMPDEST PUSH1 0x40 MLOAD PUSH3 0x461BCD PUSH1 0xE5 SHL DUP2 MSTORE PUSH1 0x20 PUSH1 0x4 DUP3 ADD MSTORE PUSH1 0x26 PUSH1 0x24 DUP3 ADD MSTORE PUSH32 0x496E73756666696369656E74206761732062616C616E636520666F7220726570 PUSH1 0x44 DUP3 ADD MSTORE PUSH6 0x185E5B595B9D PUSH1 0xD2 SHL PUSH1 0x64 DUP3 ADD MSTORE PUSH1 0x84 SWAP1 REVERT JUMPDEST PUSH1 0x40 MLOAD PUSH3 0x461BCD PUSH1 0xE5 SHL DUP2 MSTORE PUSH1 0x20 PUSH1 0x4 DUP3 ADD MSTORE PUSH1 0x28 PUSH1 0x24 DUP3 ADD MSTORE PUSH32 0x496E73756666696369656E742074726164652062616C616E636520666F722072 PUSH1 0x44 DUP3 ADD MSTORE PUSH8 0x195C185E5B595B9D PUSH1 0xC2 SHL PUSH1 0x64 DUP3 ADD MSTORE PUSH1 0x84 SWAP1 REVERT JUMPDEST SWAP1 SWAP4 POP PUSH1 0x20 DUP2 RETURNDATASIZE PUSH1 0x20 GT PUSH2 0xB28 JUMPI JUMPDEST DUP2 PUSH2 0xB13 PUSH1 0x20 SWAP4 DUP4 PUSH2 0x1533 JUMP JUMPDEST DUP2 ADD SUB SLT PUSH2 0xB23 JUMPI MLOAD SWAP3 CODESIZE PUSH2 0x5E5 JUMP JUMPDEST PUSH1 0x0 DUP1 REVERT JUMPDEST RETURNDATASIZE SWAP2 POP PUSH2 0xB06 JUMP JUMPDEST SWAP1 POP PUSH1 0x20 DUP2 RETURNDATASIZE PUSH1 0x20 GT PUSH2 0xB5A JUMPI JUMPDEST DUP2 PUSH2 0xB4B PUSH1 0x20 SWAP4 DUP4 PUSH2 0x1533 JUMP JUMPDEST DUP2 ADD SUB SLT PUSH2 0xB23 JUMPI MLOAD CODESIZE PUSH2 0x5B0 JUMP JUMPDEST RETURNDATASIZE SWAP2 POP PUSH2 0xB3E JUMP JUMPDEST PUSH1 0x40 MLOAD RETURNDATASIZE DUP10 DUP3 RETURNDATACOPY RETURNDATASIZE SWAP1 REVERT JUMPDEST PUSH2 0xB77 SWAP1 DUP7 PUSH2 0x1644 JUMP JUMPDEST PUSH1 0x40 MLOAD PUSH4 0x95EA7B3 PUSH1 0xE0 SHL DUP2 MSTORE PUSH20 0xA5E0829CACED8FFDD4DE3C43696C57F7D7A678FF PUSH1 0x4 DUP3 ADD MSTORE PUSH1 0x24 DUP2 ADD SWAP4 SWAP1 SWAP4 MSTORE PUSH1 0x20 DUP4 PUSH1 0x44 DUP2 DUP6 PUSH1 0x1 PUSH1 0x1 PUSH1 0xA0 SHL SUB DUP10 AND GAS CALL SWAP3 DUP4 ISZERO PUSH2 0xCB6 JUMPI PUSH2 0xC39 SWAP4 PUSH2 0xC97 JUMPI JUMPDEST POP PUSH1 0x40 MLOAD SWAP1 PUSH2 0xBD7 DUP3 PUSH2 0x1501 JUMP JUMPDEST PUSH1 0x2 DUP3 MSTORE PUSH1 0x40 CALLDATASIZE PUSH1 0x20 DUP5 ADD CALLDATACOPY PUSH1 0x1 PUSH1 0x1 PUSH1 0xA0 SHL SUB DUP6 AND PUSH2 0xBF6 DUP4 PUSH2 0x1555 JUMP JUMPDEST MSTORE PUSH1 0x1 PUSH1 0x1 PUSH1 0xA0 SHL SUB DUP10 AND PUSH2 0xC0A DUP4 PUSH2 0x1578 JUMP JUMPDEST MSTORE PUSH1 0x40 MLOAD SWAP4 DUP5 SWAP3 DUP4 SWAP3 PUSH4 0x38ED1739 PUSH1 0xE0 SHL DUP5 MSTORE PUSH1 0x4 DUP5 ADD MSTORE DUP5 PUSH1 0x24 DUP5 ADD MSTORE PUSH1 0xA0 PUSH1 0x44 DUP5 ADD MSTORE PUSH1 0xA4 DUP4 ADD SWAP1 PUSH2 0x159C JUMP JUMPDEST ADDRESS PUSH1 0x64 DUP4 ADD MSTORE PUSH2 0x12C TIMESTAMP ADD PUSH1 0x84 DUP4 ADD MSTORE SUB DUP2 DUP4 PUSH20 0xA5E0829CACED8FFDD4DE3C43696C57F7D7A678FF GAS CALL DUP1 ISZERO PUSH2 0xB62 JUMPI PUSH2 0xC75 JUMPI JUMPDEST DUP7 DUP2 PUSH2 0x579 JUMP JUMPDEST PUSH2 0xC90 SWAP1 RETURNDATASIZE DUP1 DUP10 DUP4 RETURNDATACOPY PUSH2 0xC88 DUP2 DUP4 PUSH2 0x1533 JUMP JUMPDEST DUP2 ADD SWAP1 PUSH2 0x1669 JUMP JUMPDEST POP CODESIZE PUSH2 0xC6E JUMP JUMPDEST PUSH2 0xCAF SWAP1 PUSH1 0x20 RETURNDATASIZE PUSH1 0x20 GT PUSH2 0x7D8 JUMPI PUSH2 0x7C9 DUP2 DUP4 PUSH2 0x1533 JUMP JUMPDEST POP CODESIZE PUSH2 0xBC9 JUMP JUMPDEST PUSH1 0x40 MLOAD RETURNDATASIZE DUP5 DUP3 RETURNDATACOPY RETURNDATASIZE SWAP1 REVERT JUMPDEST SWAP2 POP POP PUSH1 0x20 DUP2 RETURNDATASIZE PUSH1 0x20 GT PUSH2 0xCEE JUMPI JUMPDEST DUP2 PUSH2 0xCDD PUSH1 0x20 SWAP4 DUP4 PUSH2 0x1533 JUMP JUMPDEST DUP2 ADD SUB SLT PUSH2 0xB23 JUMPI DUP8 SWAP1 MLOAD CODESIZE PUSH2 0x570 JUMP JUMPDEST RETURNDATASIZE SWAP2 POP PUSH2 0xCD0 JUMP JUMPDEST SWAP1 POP PUSH1 0x20 DUP2 RETURNDATASIZE PUSH1 0x20 GT PUSH2 0xD20 JUMPI JUMPDEST DUP2 PUSH2 0xD11 PUSH1 0x20 SWAP4 DUP4 PUSH2 0x1533 JUMP JUMPDEST DUP2 ADD SUB SLT PUSH2 0xB23 JUMPI MLOAD CODESIZE PUSH2 0x53A JUMP JUMPDEST RETURNDATASIZE SWAP2 POP PUSH2 0xD04 JUMP JUMPDEST PUSH4 0x4E487B71 PUSH1 0xE0 SHL DUP10 MSTORE PUSH1 0x11 PUSH1 0x4 MSTORE PUSH1 0x24 DUP10 REVERT JUMPDEST PUSH2 0xD50 SWAP2 POP RETURNDATASIZE DUP1 DUP11 DUP4 RETURNDATACOPY PUSH2 0xC88 DUP2 DUP4 PUSH2 0x1533 JUMP JUMPDEST CODESIZE PUSH2 0x499 JUMP JUMPDEST PUSH4 0x4E487B71 PUSH1 0xE0 SHL DUP9 MSTORE PUSH1 0x11 PUSH1 0x4 MSTORE PUSH1 0x24 DUP9 REVERT JUMPDEST PUSH2 0xD82 SWAP1 PUSH1 0x20 RETURNDATASIZE PUSH1 0x20 GT PUSH2 0x7D8 JUMPI PUSH2 0x7C9 DUP2 DUP4 PUSH2 0x1533 JUMP JUMPDEST POP CODESIZE PUSH2 0x3EC JUMP JUMPDEST PUSH1 0x40 MLOAD RETURNDATASIZE DUP12 DUP3 RETURNDATACOPY RETURNDATASIZE SWAP1 REVERT JUMPDEST PUSH4 0x4E487B71 PUSH1 0xE0 SHL DUP11 MSTORE PUSH1 0x11 PUSH1 0x4 MSTORE PUSH1 0x24 DUP11 REVERT JUMPDEST PUSH2 0xDBC SWAP2 POP RETURNDATASIZE DUP1 DUP12 DUP4 RETURNDATACOPY PUSH2 0xC88 DUP2 DUP4 PUSH2 0x1533 JUMP JUMPDEST CODESIZE PUSH2 0x330 JUMP JUMPDEST PUSH2 0xDDA SWAP1 PUSH1 0x20 RETURNDATASIZE PUSH1 0x20 GT PUSH2 0x7D8 JUMPI PUSH2 0x7C9 DUP2 DUP4 PUSH2 0x1533 JUMP JUMPDEST POP CODESIZE PUSH2 0x272 JUMP JUMPDEST POP PUSH20 0x2791BCA1F2DE4661ED88A30C99A7A9449AA84174 PUSH2 0x226 JUMP JUMPDEST POP PUSH1 0x20 DUP2 RETURNDATASIZE PUSH1 0x20 GT PUSH2 0xE28 JUMPI JUMPDEST DUP2 PUSH2 0xE16 PUSH1 0x20 SWAP4 DUP4 PUSH2 0x1533 JUMP JUMPDEST DUP2 ADD SUB SLT PUSH2 0xB23 JUMPI PUSH2 0x1FF SWAP1 MLOAD PUSH2 0x1F2 JUMP JUMPDEST RETURNDATASIZE SWAP2 POP PUSH2 0xE09 JUMP JUMPDEST PUSH4 0x4E487B71 PUSH1 0xE0 SHL DUP7 MSTORE PUSH1 0x32 PUSH1 0x4 MSTORE PUSH1 0x24 DUP7 REVERT JUMPDEST PUSH4 0x4E487B71 PUSH1 0xE0 SHL DUP8 MSTORE PUSH1 0x32 PUSH1 0x4 MSTORE PUSH1 0x24 DUP8 REVERT JUMPDEST PUSH1 0x40 MLOAD PUSH3 0x461BCD PUSH1 0xE5 SHL DUP2 MSTORE PUSH1 0x20 PUSH1 0x4 DUP3 ADD MSTORE PUSH1 0x26 PUSH1 0x24 DUP3 ADD MSTORE PUSH32 0x4B696C6C2053776974636820616374697665202D206F7065726174696F6E2062 PUSH1 0x44 DUP3 ADD MSTORE PUSH6 0x1B1BD8DAD959 PUSH1 0xD2 SHL PUSH1 0x64 DUP3 ADD MSTORE PUSH1 0x84 SWAP1 REVERT JUMPDEST PUSH1 0x40 MLOAD PUSH3 0x461BCD PUSH1 0xE5 SHL DUP2 MSTORE PUSH1 0x20 PUSH1 0x4 DUP3 ADD MSTORE PUSH1 0x18 PUSH1 0x24 DUP3 ADD MSTORE PUSH32 0x43616C6C6572206D757374206265204161766520506F6F6C0000000000000000 PUSH1 0x44 DUP3 ADD MSTORE PUSH1 0x64 SWAP1 REVERT JUMPDEST DUP7 DUP1 REVERT JUMPDEST DUP9 DUP1 REVERT JUMPDEST DUP5 DUP1 REVERT JUMPDEST DUP3 DUP1 REVERT JUMPDEST DUP1 REVERT JUMPDEST POP CALLVALUE PUSH2 0xF01 JUMPI DUP1 PUSH1 0x3 NOT CALLDATASIZE ADD SLT PUSH2 0xF01 JUMPI PUSH1 0x40 MLOAD PUSH32 0x0 PUSH1 0x1 PUSH1 0x1 PUSH1 0xA0 SHL SUB AND DUP2 MSTORE PUSH1 0x20 SWAP1 RETURN JUMPDEST POP CALLVALUE PUSH2 0xF01 JUMPI PUSH1 0x20 DUP1 PUSH1 0x3 NOT CALLDATASIZE ADD SLT PUSH2 0x10A3 JUMPI PUSH2 0xF64 PUSH2 0x1464 JUMP JUMPDEST PUSH32 0x0 SWAP1 PUSH1 0x1 PUSH1 0x1 PUSH1 0xA0 SHL SUB SWAP1 PUSH2 0xF9C CALLER DUP4 DUP6 AND EQ PUSH2 0x14AB JUMP JUMPDEST AND PUSH1 0x40 MLOAD SWAP2 PUSH4 0x70A08231 PUSH1 0xE0 SHL DUP4 MSTORE ADDRESS PUSH1 0x4 DUP5 ADD MSTORE DUP4 DUP4 PUSH1 0x24 DUP2 DUP6 GAS STATICCALL SWAP3 DUP4 ISZERO PUSH2 0x876 JUMPI DUP6 SWAP4 PUSH2 0x1074 JUMPI JUMPDEST POP DUP3 ISZERO PUSH2 0x1037 JUMPI PUSH1 0x40 MLOAD PUSH4 0xA9059CBB PUSH1 0xE0 SHL DUP2 MSTORE PUSH1 0x1 PUSH1 0x1 PUSH1 0xA0 SHL SUB SWAP2 SWAP1 SWAP2 AND PUSH1 0x4 DUP3 ADD MSTORE PUSH1 0x24 DUP2 ADD SWAP3 SWAP1 SWAP3 MSTORE DUP3 SWAP1 DUP3 SWAP1 PUSH1 0x44 SWAP1 DUP3 SWAP1 DUP8 SWAP1 GAS CALL DUP1 ISZERO PUSH2 0x102C JUMPI PUSH2 0x100F JUMPI DUP3 DUP1 RETURN JUMPDEST DUP2 PUSH2 0x1025 SWAP3 SWAP1 RETURNDATASIZE LT PUSH2 0x7D8 JUMPI PUSH2 0x7C9 DUP2 DUP4 PUSH2 0x1533 JUMP JUMPDEST POP CODESIZE DUP1 DUP3 DUP1 RETURN JUMPDEST PUSH1 0x40 MLOAD RETURNDATASIZE DUP6 DUP3 RETURNDATACOPY RETURNDATASIZE SWAP1 REVERT JUMPDEST PUSH1 0x40 MLOAD PUSH3 0x461BCD PUSH1 0xE5 SHL DUP2 MSTORE PUSH1 0x4 DUP2 ADD DUP6 SWAP1 MSTORE PUSH1 0x15 PUSH1 0x24 DUP3 ADD MSTORE PUSH21 0x4E6F20746F6B656E7320746F207769746864726177 PUSH1 0x58 SHL PUSH1 0x44 DUP3 ADD MSTORE PUSH1 0x64 SWAP1 REVERT JUMPDEST SWAP1 SWAP3 POP DUP4 DUP2 DUP2 RETURNDATASIZE DUP4 GT PUSH2 0x109C JUMPI JUMPDEST PUSH2 0x108C DUP2 DUP4 PUSH2 0x1533 JUMP JUMPDEST DUP2 ADD SUB SLT PUSH2 0xB23 JUMPI MLOAD SWAP2 CODESIZE PUSH2 0xFC7 JUMP JUMPDEST POP RETURNDATASIZE PUSH2 0x1082 JUMP JUMPDEST POP DUP1 REVERT JUMPDEST POP CALLVALUE PUSH2 0xF01 JUMPI DUP1 PUSH1 0x3 NOT CALLDATASIZE ADD SLT PUSH2 0xF01 JUMPI PUSH1 0x40 MLOAD PUSH32 0x0 PUSH1 0x1 PUSH1 0x1 PUSH1 0xA0 SHL SUB AND DUP2 MSTORE PUSH1 0x20 SWAP1 RETURN JUMPDEST POP CALLVALUE PUSH2 0xF01 JUMPI PUSH1 0x3 NOT PUSH1 0x80 CALLDATASIZE DUP3 ADD SLT PUSH2 0x10A3 JUMPI PUSH2 0x1107 PUSH2 0x1464 JUMP JUMPDEST SWAP1 PUSH1 0x1 PUSH1 0x1 PUSH1 0xA0 SHL SUB PUSH1 0x44 CALLDATALOAD DUP2 DUP2 AND SWAP3 SWAP1 DUP4 SWAP1 SUB PUSH2 0xEF9 JUMPI PUSH2 0x114C DUP3 PUSH32 0x0 AND CALLER EQ PUSH2 0x14AB JUMP JUMPDEST PUSH1 0xFF PUSH1 0x1 SLOAD AND PUSH2 0x130A JUMPI DUP5 SWAP3 PUSH1 0x40 MLOAD SWAP5 PUSH2 0x1165 DUP7 PUSH2 0x1501 JUMP JUMPDEST PUSH1 0x2 DUP7 MSTORE PUSH1 0x40 CALLDATASIZE PUSH1 0x20 DUP9 ADD CALLDATACOPY DUP4 PUSH2 0x117B DUP8 PUSH2 0x1555 JUMP JUMPDEST SWAP2 AND SWAP1 MSTORE PUSH2 0x1188 DUP6 PUSH2 0x1578 JUMP JUMPDEST MSTORE PUSH1 0x40 MLOAD SWAP4 PUSH2 0x1196 DUP6 PUSH2 0x1501 JUMP JUMPDEST PUSH1 0x2 DUP6 MSTORE PUSH1 0x40 CALLDATASIZE PUSH1 0x20 DUP8 ADD CALLDATACOPY PUSH1 0x24 CALLDATALOAD PUSH2 0x11AE DUP7 PUSH2 0x1555 JUMP JUMPDEST MSTORE PUSH1 0x64 CALLDATALOAD PUSH2 0x11BB DUP7 PUSH2 0x1578 JUMP JUMPDEST MSTORE PUSH1 0x40 MLOAD SWAP3 PUSH2 0x11C9 DUP5 PUSH2 0x1501 JUMP JUMPDEST PUSH1 0x2 DUP5 MSTORE PUSH1 0x40 CALLDATASIZE PUSH1 0x20 DUP7 ADD CALLDATACOPY DUP5 PUSH2 0x11DF DUP6 PUSH2 0x1555 JUMP JUMPDEST MSTORE DUP5 PUSH2 0x11EA DUP6 PUSH2 0x1578 JUMP JUMPDEST MSTORE PUSH32 0x2494A915D576B32D2D414C253B041F04E4BE248421BD2A389D8DD8ACD08C6A6F PUSH1 0x40 MLOAD PUSH1 0x40 DUP2 MSTORE DUP1 PUSH2 0x1232 PUSH2 0x1224 PUSH1 0x40 DUP4 ADD DUP8 PUSH2 0x159C JUMP JUMPDEST DUP3 DUP2 SUB PUSH1 0x20 DUP5 ADD MSTORE DUP11 PUSH2 0x15D9 JUMP JUMPDEST SUB SWAP1 LOG1 PUSH32 0x0 AND SWAP2 DUP3 EXTCODESIZE ISZERO PUSH2 0xEF9 JUMPI PUSH1 0x20 DUP6 SWAP2 DUP3 PUSH2 0x12B7 PUSH2 0x1297 SWAP8 PUSH2 0x12A7 PUSH1 0x40 MLOAD SWAP12 DUP13 SWAP11 DUP12 SWAP10 PUSH4 0xAB9C4B5D PUSH1 0xE0 SHL DUP12 MSTORE ADDRESS PUSH1 0x4 DUP13 ADD MSTORE PUSH1 0xE0 PUSH1 0x24 DUP13 ADD MSTORE PUSH1 0xE4 DUP12 ADD SWAP1 PUSH2 0x159C JUMP JUMPDEST SWAP1 DUP7 DUP11 DUP4 SUB ADD PUSH1 0x44 DUP12 ADD MSTORE PUSH2 0x15D9 JUMP JUMPDEST SWAP1 DUP5 DUP9 DUP4 SUB ADD PUSH1 0x64 DUP10 ADD MSTORE PUSH2 0x15D9 JUMP JUMPDEST ADDRESS PUSH1 0x84 DUP8 ADD MSTORE DUP6 DUP2 SUB SWAP3 DUP4 ADD PUSH1 0xA4 DUP8 ADD MSTORE MSTORE DUP3 PUSH1 0xC4 DUP6 ADD MSTORE ADD SWAP3 GAS CALL DUP1 ISZERO PUSH2 0xCB6 JUMPI PUSH2 0x12E1 JUMPI POP DUP1 RETURN JUMPDEST PUSH8 0xFFFFFFFFFFFFFFFF DUP2 GT PUSH2 0x12F6 JUMPI PUSH1 0x40 MSTORE DUP1 RETURN JUMPDEST PUSH4 0x4E487B71 PUSH1 0xE0 SHL DUP3 MSTORE PUSH1 0x41 PUSH1 0x4 MSTORE PUSH1 0x24 DUP3 REVERT JUMPDEST PUSH1 0x40 MLOAD PUSH3 0x461BCD PUSH1 0xE5 SHL DUP2 MSTORE PUSH1 0x20 PUSH1 0x4 DUP3 ADD MSTORE PUSH1 0x23 PUSH1 0x24 DUP3 ADD MSTORE PUSH32 0x4B696C6C2053776974636820616374697661746564202D20626F742073746F70 PUSH1 0x44 DUP3 ADD MSTORE PUSH3 0x1C1959 PUSH1 0xEA SHL PUSH1 0x64 DUP3 ADD MSTORE PUSH1 0x84 SWAP1 REVERT JUMPDEST POP CALLVALUE PUSH2 0xF01 JUMPI DUP1 PUSH1 0x3 NOT CALLDATASIZE ADD SLT PUSH2 0xF01 JUMPI PUSH1 0x20 PUSH1 0xFF PUSH1 0x1 SLOAD AND PUSH1 0x40 MLOAD SWAP1 ISZERO ISZERO DUP2 MSTORE RETURN JUMPDEST POP CALLVALUE PUSH2 0xF01 JUMPI DUP1 PUSH1 0x3 NOT CALLDATASIZE ADD SLT PUSH2 0xF01 JUMPI PUSH2 0x13C3 CALLER PUSH32 0x0 PUSH1 0x1 PUSH1 0x1 PUSH1 0xA0 SHL SUB AND EQ PUSH2 0x14AB JUMP JUMPDEST PUSH1 0x1 SLOAD PUSH1 0xFF DUP2 AND ISZERO PUSH2 0x13DC JUMPI PUSH1 0xFF NOT AND PUSH1 0x1 SSTORE DUP1 DUP1 SSTORE DUP1 RETURN JUMPDEST PUSH1 0x40 MLOAD PUSH3 0x461BCD PUSH1 0xE5 SHL DUP2 MSTORE PUSH1 0x20 PUSH1 0x4 DUP3 ADD MSTORE PUSH1 0x19 PUSH1 0x24 DUP3 ADD MSTORE PUSH32 0x4B696C6C20537769746368206973206E6F742061637469766500000000000000 PUSH1 0x44 DUP3 ADD MSTORE PUSH1 0x64 SWAP1 REVERT JUMPDEST SWAP1 POP CALLVALUE PUSH2 0x10A3 JUMPI DUP2 PUSH1 0x3 NOT CALLDATASIZE ADD SLT PUSH2 0x10A3 JUMPI PUSH32 0x0 PUSH1 0x1 PUSH1 0x1 PUSH1 0xA0 SHL SUB AND DUP2 MSTORE PUSH1 0x20 SWAP1 RETURN JUMPDEST PUSH1 0x4 CALLDATALOAD SWAP1 PUSH1 0x1 PUSH1 0x1 PUSH1 0xA0 SHL SUB DUP3 AND DUP3 SUB PUSH2 0xB23 JUMPI JUMP JUMPDEST SWAP2 DUP2 PUSH1 0x1F DUP5 ADD SLT ISZERO PUSH2 0xB23 JUMPI DUP3 CALLDATALOAD SWAP2 PUSH8 0xFFFFFFFFFFFFFFFF DUP4 GT PUSH2 0xB23 JUMPI PUSH1 0x20 DUP1 DUP6 ADD SWAP5 DUP5 PUSH1 0x5 SHL ADD ADD GT PUSH2 0xB23 JUMPI JUMP JUMPDEST ISZERO PUSH2 0x14B2 JUMPI JUMP JUMPDEST PUSH1 0x40 MLOAD PUSH3 0x461BCD PUSH1 0xE5 SHL DUP2 MSTORE PUSH1 0x20 PUSH1 0x4 DUP3 ADD MSTORE PUSH1 0x21 PUSH1 0x24 DUP3 ADD MSTORE PUSH32 0x4F6E6C7920636F6E7472616374206F776E65722063616E2063616C6C20746869 PUSH1 0x44 DUP3 ADD MSTORE PUSH1 0x73 PUSH1 0xF8 SHL PUSH1 0x64 DUP3 ADD MSTORE PUSH1 0x84 SWAP1 REVERT JUMPDEST PUSH1 0x60 DUP2 ADD SWAP1 DUP2 LT PUSH8 0xFFFFFFFFFFFFFFFF DUP3 GT OR PUSH2 0x151D JUMPI PUSH1 0x40 MSTORE JUMP JUMPDEST PUSH4 0x4E487B71 PUSH1 0xE0 SHL PUSH1 0x0 MSTORE PUSH1 0x41 PUSH1 0x4 MSTORE PUSH1 0x24 PUSH1 0x0 REVERT JUMPDEST SWAP1 PUSH1 0x1F DUP1 NOT SWAP2 ADD AND DUP2 ADD SWAP1 DUP2 LT PUSH8 0xFFFFFFFFFFFFFFFF DUP3 GT OR PUSH2 0x151D JUMPI PUSH1 0x40 MSTORE JUMP JUMPDEST DUP1 MLOAD ISZERO PUSH2 0x1562 JUMPI PUSH1 0x20 ADD SWAP1 JUMP JUMPDEST PUSH4 0x4E487B71 PUSH1 0xE0 SHL PUSH1 0x0 MSTORE PUSH1 0x32 PUSH1 0x4 MSTORE PUSH1 0x24 PUSH1 0x0 REVERT JUMPDEST DUP1 MLOAD PUSH1 0x1 LT ISZERO PUSH2 0x1562 JUMPI PUSH1 0x40 ADD SWAP1 JUMP JUMPDEST DUP1 MLOAD DUP3 LT ISZERO PUSH2 0x1562 JUMPI PUSH1 0x20 SWAP2 PUSH1 0x5 SHL ADD ADD SWAP1 JUMP JUMPDEST SWAP1 DUP2 MLOAD DUP1 DUP3 MSTORE PUSH1 0x20 DUP1 DUP1 SWAP4 ADD SWAP4 ADD SWAP2 PUSH1 0x0 JUMPDEST DUP3 DUP2 LT PUSH2 0x15BC JUMPI POP POP POP POP SWAP1 JUMP JUMPDEST DUP4 MLOAD PUSH1 0x1 PUSH1 0x1 PUSH1 0xA0 SHL SUB AND DUP6 MSTORE SWAP4 DUP2 ADD SWAP4 SWAP3 DUP2 ADD SWAP3 PUSH1 0x1 ADD PUSH2 0x15AE JUMP JUMPDEST SWAP1 DUP2 MLOAD DUP1 DUP3 MSTORE PUSH1 0x20 DUP1 DUP1 SWAP4 ADD SWAP4 ADD SWAP2 PUSH1 0x0 JUMPDEST DUP3 DUP2 LT PUSH2 0x15F9 JUMPI POP POP POP POP SWAP1 JUMP JUMPDEST DUP4 MLOAD DUP6 MSTORE SWAP4 DUP2 ADD SWAP4 SWAP3 DUP2 ADD SWAP3 PUSH1 0x1 ADD PUSH2 0x15EB JUMP JUMPDEST CALLDATALOAD PUSH1 0x1 PUSH1 0x1 PUSH1 0xA0 SHL SUB DUP2 AND DUP2 SUB PUSH2 0xB23 JUMPI SWAP1 JUMP JUMPDEST SWAP2 SWAP1 DUP3 ADD DUP1 SWAP3 GT PUSH2 0x162E JUMPI JUMP JUMPDEST PUSH4 0x4E487B71 PUSH1 0xE0 SHL PUSH1 0x0 MSTORE PUSH1 0x11 PUSH1 0x4 MSTORE PUSH1 0x24 PUSH1 0x0 REVERT JUMPDEST SWAP2 SWAP1 DUP3 SUB SWAP2 DUP3 GT PUSH2 0x162E JUMPI JUMP JUMPDEST SWAP1 DUP2 PUSH1 0x20 SWAP2 SUB SLT PUSH2 0xB23 JUMPI MLOAD DUP1 ISZERO ISZERO DUP2 SUB PUSH2 0xB23 JUMPI SWAP1 JUMP JUMPDEST SWAP1 PUSH1 0x20 SWAP1 DUP2 DUP4 DUP3 SUB SLT PUSH2 0xB23 JUMPI DUP3 MLOAD PUSH8 0xFFFFFFFFFFFFFFFF SWAP4 DUP5 DUP3 GT PUSH2 0xB23 JUMPI ADD DUP2 PUSH1 0x1F DUP3 ADD SLT ISZERO PUSH2 0xB23 JUMPI DUP1 MLOAD SWAP4 DUP5 GT PUSH2 0x151D JUMPI DUP4 PUSH1 0x5 SHL SWAP1 PUSH1 0x40 MLOAD SWAP5 PUSH2 0x16B3 DUP6 DUP5 ADD DUP8 PUSH2 0x1533 JUMP JUMPDEST DUP6 MSTORE DUP4 DUP1 DUP7 ADD SWAP3 DUP3 ADD ADD SWAP3 DUP4 GT PUSH2 0xB23 JUMPI DUP4 ADD SWAP1 JUMPDEST DUP3 DUP3 LT PUSH2 0x16D6 JUMPI POP POP POP POP SWAP1 JUMP JUMPDEST DUP2 MLOAD DUP2 MSTORE SWAP1 DUP4 ADD SWAP1 DUP4 ADD PUSH2 0x16C8 JUMP JUMPDEST SWAP2 SWAP3 PUSH1 0x80 SWAP4 PUSH2 0x170A SWAP3 SWAP8 SWAP7 SWAP6 SWAP8 DUP5 MSTORE PUSH1 0x20 DUP5 ADD MSTORE PUSH1 0xA0 PUSH1 0x40 DUP5 ADD MSTORE PUSH1 0xA0 DUP4 ADD SWAP1 PUSH2 0x159C JUMP JUMPDEST PUSH1 0x1 PUSH1 0x1 PUSH1 0xA0 SHL SUB SWAP1 SWAP6 AND PUSH1 0x60 DUP3 ADD MSTORE ADD MSTORE JUMP INVALID LOG2 PUSH5 0x6970667358 0x22 SLT KECCAK256 0x4C GT DUP11 PUSH4 0x78BF3F6F EXP ADDMOD EXTCODECOPY SWAP3 POP 0x23 0x4F 0xA8 PUSH13 0xFF160A56A706282F3E2E594D16 NOT 0xDB PUSH5 0x736F6C6343 STOP ADDMOD EQ STOP CALLER "},"methodIdentifiers":{"ADDRESSES_PROVIDER()":"0542975c","POOL()":"7535d246","executeMultiFlashLoan(address,uint256,address,uint256)":"6ac59057","executeOperation(address[],uint256[],uint256[],address,bytes)":"920f5c84","isStopped()":"3f683b6a","owner()":"8da5cb5b","resetKillSwitch()":"393c412c","withdrawToken(address)":"89476069"}}}}}