{"project/contracts/AfetiDevranArbitrage.sol":{"AfetiDevranArbitrage":{"abi":[{"inputs":[{"internalType":"address","name":"_addressesProvider","type":"address"}],"stateMutability":"nonpayable","type":"constructor"},{"anonymous":false,"inputs":[{"indexed":false,"internalType":"uint256","name":"netKar","type":"uint256"},{"indexed":true,"internalType":"address","name":"asset","type":"address"}],"name":"ArbitrajBasarili","type":"event"},{"anonymous":false,"inputs":[{"indexed":false,"internalType":"address[]","name":"assets","type":"address[]"},{"indexed":false,"internalType":"uint256[]","name":"amounts","type":"uint256[]"}],"name":"MultiFlashLoanBaslatildi","type":"event"},{"anonymous":false,"inputs":[{"indexed":false,"internalType":"string","name":"borsa","type":"string"},{"indexed":false,"internalType":"uint256","name":"girisMiktar","type":"uint256"},{"indexed":false,"internalType":"uint256","name":"cikisMiktar","type":"uint256"}],"name":"TakasGerceklesti","type":"event"},{"inputs":[],"name":"ADDRESSES_PROVIDER","outputs":[{"internalType":"contract IPoolAddressesProvider","name":"","type":"address"}],"stateMutability":"view","type":"function"},{"inputs":[],"name":"POOL","outputs":[{"internalType":"contract IPool","name":"","type":"address"}],"stateMutability":"view","type":"function"},{"inputs":[{"internalType":"address","name":"tradeAsset","type":"address"},{"internalType":"uint256","name":"tradeAmount","type":"uint256"},{"internalType":"address","name":"gasAsset","type":"address"},{"internalType":"uint256","name":"gasAmount","type":"uint256"}],"name":"executeMultiFlashLoan","outputs":[],"stateMutability":"nonpayable","type":"function"},{"inputs":[{"internalType":"address[]","name":"assets","type":"address[]"},{"internalType":"uint256[]","name":"amounts","type":"uint256[]"},{"internalType":"uint256[]","name":"premiums","type":"uint256[]"},{"internalType":"address","name":"initiator","type":"address"},{"internalType":"bytes","name":"params","type":"bytes"}],"name":"executeOperation","outputs":[{"internalType":"bool","name":"","type":"bool"}],"stateMutability":"nonpayable","type":"function"},{"inputs":[],"name":"owner","outputs":[{"internalType":"address","name":"","type":"address"}],"stateMutability":"view","type":"function"},{"inputs":[{"internalType":"address","name":"token","type":"address"}],"name":"withdrawToken","outputs":[],"stateMutability":"nonpayable","type":"function"}],"evm":{"bytecode":{"linkReferences":{},"object":"60e08060405234620001705762001625803803809162000020828562000174565b83396001600160a01b039182916200003c9190810190620001ac565b1680156200011c576020600491336080528060a0526040519283809263026b1d5f60e01b82525afa90811562000111575f91620000dc575b501660c0526040516114579081620001ce82396080518181816106b10152818161075601528181610d1b01528181610d670152610f3f015260a05181611130015260c0518181816101070152818161059e0152818161060401528181610ed601526110450152f35b62000102915060203d811162000109575b620000f9818362000174565b810190620001ac565b5f62000074565b503d620000ed565b6040513d5f823e3d90fd5b60405162461bcd60e51b815260206004820152602660248201527f416665746944657672616e3a20476563657273697a207361676c61796963692060448201526561647265736960d01b6064820152608490fd5b5f80fd5b601f909101601f19168101906001600160401b038211908210176200019857604052565b634e487b7160e01b5f52604160045260245ffd5b908160209103126200017057516001600160a01b038116810362000170579056fe6080806040526004361015610012575f80fd5b5f90813560e01c9081630542975c1461111c575080636ac5905714610f055780637535d24614610ec05780638947606914610d4a5780638da5cb5b14610d055763920f5c8414610060575f80fd5b34610d025760a0366003190112610d025767ffffffffffffffff600435818111610cfe57610092903690600401611175565b602435838111610cfa576100aa903690600401611175565b93604435818111610cf2576100c3903690600401611175565b9490916064356001600160a01b0381160361098a5760843590808211610cf65736602383011215610cf6578160040135908111610cf65736910160240111610cf2577f00000000000000000000000000000000000000000000000000000000000000006001600160a01b03163303610c8f578315610c7b5761014481611312565b9360011015610c7b5760206101599101611312565b948015610c7b5760011015610c67578315610c675761017a81358335611326565b9360011015610c675760206101959101356020830135611326565b6040516370a0823160e01b81523060048201529092906020816024816001600160a01b0386165afa80156109d3578790610c33575b6101d79150833590611347565b91737ceb23fd6bc0add59e62ac25578270cff1b9f6196001600160a01b0383168114610c18575b60405163095ea7b360e01b815273a5e0829caced8ffdd4de3c43696c57f7d7a678ff6004820152823560248201526020816044818c6001600160a01b0389165af1801561087d57610bf9575b506040516102578161120c565b6002815260403660208301376001600160a01b0384166102768261125e565b526102808161127f565b6001600160a01b03831690524261012c810110610b7e57886102c091604051809381926338ed173960e01b835261012c42019030908935600486016113e8565b03818373a5e0829caced8ffdd4de3c43696c57f7d7a678ff5af190811561087d578991610bdf575b508051805f19810111610bcb576103267f396574f04db72fa9c597075aa4372d8627152b3bc1012d3561770a12479d63959260a0925f19019061128f565b5193604051906060825260096060830152680517569636b537761760bc1b6080830152356020820152846040820152a160405163095ea7b360e01b8152731b02da8cb0d097eb8d57a175b88c7d8b47997506600482015260248101839052908890602083604481856001600160a01b0386165af1928315610b0c5761040e93610bac575b50604051906103b88261120c565b6002825260403660208401376001600160a01b03166103d68261125e565b526001600160a01b0385166103ea8261127f565b52604051809381926338ed173960e01b835261012c420190309088600486016113e8565b038183731b02da8cb0d097eb8d57a175b88c7d8b479975065af1908115610996578891610b92575b508051805f19810111610b7e579161047560a0927f396574f04db72fa9c597075aa4372d8627152b3bc1012d3561770a12479d6395945f19019061128f565b516040519160608352600960608401526805375736869537761760bc1b608084015260208301526040820152a16040516370a0823160e01b81523060048201526020816024816001600160a01b0386165afa9081156109d3578791610b4c575b506040516370a0823160e01b815230600482015287906020816024816001600160a01b038c165afa908115610b0c578291610b17575b508581106109de575b50506040516370a0823160e01b815230600482015290506020816024816001600160a01b0386165afa9081156109d35787916109a1575b506040516370a0823160e01b8152306004820152926020846024816001600160a01b038b165afa93841561099657889461095e575b50858210610901578484106108a75760405163095ea7b360e01b81527f00000000000000000000000000000000000000000000000000000000000000006001600160a01b0316600482015260248101879052602081806044810103818c6001600160a01b0389165af1801561087d57610888575b5060405163095ea7b360e01b81527f00000000000000000000000000000000000000000000000000000000000000006001600160a01b0316600482015260248101869052602081806044810103818c6001600160a01b038d165af1801561087d5761085e575b506106658683611347565b11156107d557869461067691611347565b8061073f575b50506106889250611347565b908161069a575b602060405160018152f35b60405163a9059cbb60e01b81526001600160a01b037f00000000000000000000000000000000000000000000000000000000000000008116600483015260248201939093529291602091849160449183918691165af19081156107335750610704575b808061068f565b6107259060203d60201161072c575b61071d818361123c565b810190611354565b505f6106fd565b503d610713565b604051903d90823e3d90fd5b60405163a9059cbb60e01b81526001600160a01b037f000000000000000000000000000000000000000000000000000000000000000081166004830152602482019290925294602092869260449284929091165af19283156107ca57610688936107ab575b859361067c565b6107c39060203d60201161072c5761071d818361123c565b505f6107a4565b6040513d87823e3d90fd5b60405162461bcd60e51b815260206004820152605560248201527f564535204b4f52554d4153493a2047617a20766520626f72636c61722064757360448201527f74756b74656e20736f6e7261206b617a616e63207361676c616e616d6164696760648201527469206963696e20726576657274206564696c64692160581b608482015260a490fd5b6108769060203d60201161072c5761071d818361123c565b505f61065a565b6040513d8b823e3d90fd5b6108a09060203d60201161072c5761071d818361123c565b505f6105f4565b60405162461bcd60e51b815260206004820152602c60248201527f416665746944657672616e3a2047617320626f72632067657269206f64656d6560448201526b736920796574657273697a2160a01b6064820152608490fd5b60405162461bcd60e51b815260206004820152602f60248201527f416665746944657672616e3a2054696361726920626f72632067657269206f6460448201526e656d65736920796574657273697a2160881b6064820152608490fd5b9093506020813d60201161098e575b8161097a6020938361123c565b8101031261098a5751925f610580565b5f80fd5b3d915061096d565b6040513d8a823e3d90fd5b90506020813d6020116109cb575b816109bc6020938361123c565b8101031261098a57515f61054b565b3d91506109af565b6040513d89823e3d90fd5b6109e89086611347565b60405163095ea7b360e01b815273a5e0829caced8ffdd4de3c43696c57f7d7a678ff60048201526024810193909352602083604481856001600160a01b0389165af1928315610b0c57610a9f93610aed575b5060405190610a488261120c565b6002825260403660208401376001600160a01b038516610a678361125e565b526001600160a01b038916610a7b8361127f565b526040516338ed173960e01b815293849283924261012c01913091600486016113e8565b03818373a5e0829caced8ffdd4de3c43696c57f7d7a678ff5af180156109d357610acb575b8681610514565b610ae6903d8089833e610ade818361123c565b81019061136c565b505f610ac4565b610b059060203d60201161072c5761071d818361123c565b505f610a3a565b6040513d84823e3d90fd5b9150506020813d602011610b44575b81610b336020938361123c565b8101031261098a578790515f61050b565b3d9150610b26565b90506020813d602011610b76575b81610b676020938361123c565b8101031261098a57515f6104d5565b3d9150610b5a565b634e487b7160e01b89526011600452602489fd5b610ba691503d808a833e610ade818361123c565b5f610436565b610bc49060203d60201161072c5761071d818361123c565b505f6103aa565b634e487b7160e01b8a52601160045260248afd5b610bf391503d808b833e610ade818361123c565b5f6102e8565b610c119060203d60201161072c5761071d818361123c565b505f61024a565b50732791bca1f2de4661ed88a30c99a7a9449aa841746101fe565b506020813d602011610c5f575b81610c4d6020938361123c565b8101031261098a576101d790516101ca565b3d9150610c40565b634e487b7160e01b86526032600452602486fd5b634e487b7160e01b87526032600452602487fd5b60405162461bcd60e51b815260206004820152603560248201527f416665746944657672616e3a20546574696b6c6579696369207361646563652060448201527420b0bb32902430bb3abd3a9037b636b0b634b234b960591b6064820152608490fd5b8680fd5b8880fd5b8480fd5b8280fd5b80fd5b5034610d025780600319360112610d02576040517f00000000000000000000000000000000000000000000000000000000000000006001600160a01b03168152602090f35b5034610d0257602080600319360112610ebc57610d6561115f565b7f0000000000000000000000000000000000000000000000000000000000000000906001600160a01b0390610d9d33838516146111a6565b16604051916370a0823160e01b83523060048401528383602481855afa9283156107ca578593610e8d575b508215610e385760405163a9059cbb60e01b81526001600160a01b03919091166004820152602481019290925282908290604490829087905af18015610e2d57610e10578280f35b81610e2692903d1061072c5761071d818361123c565b505f808280f35b6040513d85823e3d90fd5b60405162461bcd60e51b815260048101859052602760248201527f416665746944657672616e3a2043656b696c6563656b20746f6b656e2062756c604482015266756e616d61646960c81b6064820152608490fd5b9092508381813d8311610eb5575b610ea5818361123c565b8101031261098a5751915f610dc8565b503d610e9b565b5080fd5b5034610d025780600319360112610d02576040517f00000000000000000000000000000000000000000000000000000000000000006001600160a01b03168152602090f35b5034610d0257600319608036820112610ebc5781610f2161115f565b916001600160a01b03906044358281169081900361111857610f66837f00000000000000000000000000000000000000000000000000000000000000001633146111a6565b60405194610f738661120c565b60028652604036602088013783610f898761125e565b91169052610f968561127f565b5260405193610fa48561120c565b600285526040366020870137602435610fbc8661125e565b52606435610fc98661127f565b5260405192610fd78461120c565b60028452604036602086013784610fed8561125e565b5284610ff88561127f565b527f7210c49ec4f1ed8d7a0afd13ebac9bb3aed991101f77ac40923e9fcf6a086774604051604081528061104061103260408301876112a3565b82810360208401528a6112df565b0390a17f00000000000000000000000000000000000000000000000000000000000000001691823b15610cfa5760208591826110c56110a5976110b56040519b8c9a8b9963ab9c4b5d60e01b8b523060048c015260e060248c015260e48b01906112a3565b90868a83030160448b01526112df565b90848883030160648901526112df565b30608487015285810392830160a4870152528260c485015201925af18015610b0c576110ef575080f35b67ffffffffffffffff81116111045760405280f35b634e487b7160e01b82526041600452602482fd5b8380fd5b905034610ebc5781600319360112610ebc577f00000000000000000000000000000000000000000000000000000000000000006001600160a01b03168152602090f35b600435906001600160a01b038216820361098a57565b9181601f8401121561098a5782359167ffffffffffffffff831161098a576020808501948460051b01011161098a57565b156111ad57565b60405162461bcd60e51b815260206004820152603160248201527f416665746944657672616e3a20536164656365206b6f6e7472617420736168696044820152703134903a32ba34b5b632bcb2b134b634b960791b6064820152608490fd5b6060810190811067ffffffffffffffff82111761122857604052565b634e487b7160e01b5f52604160045260245ffd5b90601f8019910116810190811067ffffffffffffffff82111761122857604052565b80511561126b5760200190565b634e487b7160e01b5f52603260045260245ffd5b80516001101561126b5760400190565b805182101561126b5760209160051b010190565b9081518082526020808093019301915f5b8281106112c2575050505090565b83516001600160a01b0316855293810193928101926001016112b4565b9081518082526020808093019301915f5b8281106112fe575050505090565b8351855293810193928101926001016112f0565b356001600160a01b038116810361098a5790565b9190820180921161133357565b634e487b7160e01b5f52601160045260245ffd5b9190820391821161133357565b9081602091031261098a5751801515810361098a5790565b90602090818382031261098a57825167ffffffffffffffff9384821161098a570181601f8201121561098a578051938411611228578360051b90604051946113b68584018761123c565b8552838086019282010192831161098a578301905b8282106113d9575050505090565b815181529083019083016113cb565b9060809261140d919695949683525f602084015260a0604084015260a08301906112a3565b6001600160a01b039095166060820152015256fea2646970667358221220a3378357fb735485c82f9034a541b168250e623aa34321f6f911b1682fbf6b6f64736f6c63430008140033","opcodes":"PUSH1 0xE0 DUP1 PUSH1 0x40 MSTORE CALLVALUE PUSH3 0x170 JUMPI PUSH3 0x1625 DUP1 CODESIZE SUB DUP1 SWAP2 PUSH3 0x20 DUP3 DUP6 PUSH3 0x174 JUMP JUMPDEST DUP4 CODECOPY PUSH1 0x1 PUSH1 0x1 PUSH1 0xA0 SHL SUB SWAP2 DUP3 SWAP2 PUSH3 0x3C SWAP2 SWAP1 DUP2 ADD SWAP1 PUSH3 0x1AC JUMP JUMPDEST AND DUP1 ISZERO PUSH3 0x11C JUMPI PUSH1 0x20 PUSH1 0x4 SWAP2 CALLER PUSH1 0x80 MSTORE DUP1 PUSH1 0xA0 MSTORE PUSH1 0x40 MLOAD SWAP3 DUP4 DUP1 SWAP3 PUSH4 0x26B1D5F PUSH1 0xE0 SHL DUP3 MSTORE GAS STATICCALL SWAP1 DUP2 ISZERO PUSH3 0x111 JUMPI PUSH0 SWAP2 PUSH3 0xDC JUMPI JUMPDEST POP AND PUSH1 0xC0 MSTORE PUSH1 0x40 MLOAD PUSH2 0x1457 SWAP1 DUP2 PUSH3 0x1CE DUP3 CODECOPY PUSH1 0x80 MLOAD DUP2 DUP2 DUP2 PUSH2 0x6B1 ADD MSTORE DUP2 DUP2 PUSH2 0x756 ADD MSTORE DUP2 DUP2 PUSH2 0xD1B ADD MSTORE DUP2 DUP2 PUSH2 0xD67 ADD MSTORE PUSH2 0xF3F ADD MSTORE PUSH1 0xA0 MLOAD DUP2 PUSH2 0x1130 ADD MSTORE PUSH1 0xC0 MLOAD DUP2 DUP2 DUP2 PUSH2 0x107 ADD MSTORE DUP2 DUP2 PUSH2 0x59E ADD MSTORE DUP2 DUP2 PUSH2 0x604 ADD MSTORE DUP2 DUP2 PUSH2 0xED6 ADD MSTORE PUSH2 0x1045 ADD MSTORE RETURN JUMPDEST PUSH3 0x102 SWAP2 POP PUSH1 0x20 RETURNDATASIZE DUP2 GT PUSH3 0x109 JUMPI JUMPDEST PUSH3 0xF9 DUP2 DUP4 PUSH3 0x174 JUMP JUMPDEST DUP2 ADD SWAP1 PUSH3 0x1AC JUMP JUMPDEST PUSH0 PUSH3 0x74 JUMP JUMPDEST POP RETURNDATASIZE PUSH3 0xED JUMP JUMPDEST PUSH1 0x40 MLOAD RETURNDATASIZE PUSH0 DUP3 RETURNDATACOPY RETURNDATASIZE SWAP1 REVERT JUMPDEST PUSH1 0x40 MLOAD PUSH3 0x461BCD PUSH1 0xE5 SHL DUP2 MSTORE PUSH1 0x20 PUSH1 0x4 DUP3 ADD MSTORE PUSH1 0x26 PUSH1 0x24 DUP3 ADD MSTORE PUSH32 0x416665746944657672616E3A20476563657273697A207361676C617969636920 PUSH1 0x44 DUP3 ADD MSTORE PUSH6 0x616472657369 PUSH1 0xD0 SHL PUSH1 0x64 DUP3 ADD MSTORE PUSH1 0x84 SWAP1 REVERT JUMPDEST PUSH0 DUP1 REVERT JUMPDEST PUSH1 0x1F SWAP1 SWAP2 ADD PUSH1 0x1F NOT AND DUP2 ADD SWAP1 PUSH1 0x1 PUSH1 0x1 PUSH1 0x40 SHL SUB DUP3 GT SWAP1 DUP3 LT OR PUSH3 0x198 JUMPI PUSH1 0x40 MSTORE JUMP JUMPDEST PUSH4 0x4E487B71 PUSH1 0xE0 SHL PUSH0 MSTORE PUSH1 0x41 PUSH1 0x4 MSTORE PUSH1 0x24 PUSH0 REVERT JUMPDEST SWAP1 DUP2 PUSH1 0x20 SWAP2 SUB SLT PUSH3 0x170 JUMPI MLOAD PUSH1 0x1 PUSH1 0x1 PUSH1 0xA0 SHL SUB DUP2 AND DUP2 SUB PUSH3 0x170 JUMPI SWAP1 JUMP INVALID PUSH1 0x80 DUP1 PUSH1 0x40 MSTORE PUSH1 0x4 CALLDATASIZE LT ISZERO PUSH2 0x12 JUMPI PUSH0 DUP1 REVERT JUMPDEST PUSH0 SWAP1 DUP2 CALLDATALOAD PUSH1 0xE0 SHR SWAP1 DUP2 PUSH4 0x542975C EQ PUSH2 0x111C JUMPI POP DUP1 PUSH4 0x6AC59057 EQ PUSH2 0xF05 JUMPI DUP1 PUSH4 0x7535D246 EQ PUSH2 0xEC0 JUMPI DUP1 PUSH4 0x89476069 EQ PUSH2 0xD4A JUMPI DUP1 PUSH4 0x8DA5CB5B EQ PUSH2 0xD05 JUMPI PUSH4 0x920F5C84 EQ PUSH2 0x60 JUMPI PUSH0 DUP1 REVERT JUMPDEST CALLVALUE PUSH2 0xD02 JUMPI PUSH1 0xA0 CALLDATASIZE PUSH1 0x3 NOT ADD SLT PUSH2 0xD02 JUMPI PUSH8 0xFFFFFFFFFFFFFFFF PUSH1 0x4 CALLDATALOAD DUP2 DUP2 GT PUSH2 0xCFE JUMPI PUSH2 0x92 SWAP1 CALLDATASIZE SWAP1 PUSH1 0x4 ADD PUSH2 0x1175 JUMP JUMPDEST PUSH1 0x24 CALLDATALOAD DUP4 DUP2 GT PUSH2 0xCFA JUMPI PUSH2 0xAA SWAP1 CALLDATASIZE SWAP1 PUSH1 0x4 ADD PUSH2 0x1175 JUMP JUMPDEST SWAP4 PUSH1 0x44 CALLDATALOAD DUP2 DUP2 GT PUSH2 0xCF2 JUMPI PUSH2 0xC3 SWAP1 CALLDATASIZE SWAP1 PUSH1 0x4 ADD PUSH2 0x1175 JUMP JUMPDEST SWAP5 SWAP1 SWAP2 PUSH1 0x64 CALLDATALOAD PUSH1 0x1 PUSH1 0x1 PUSH1 0xA0 SHL SUB DUP2 AND SUB PUSH2 0x98A JUMPI PUSH1 0x84 CALLDATALOAD SWAP1 DUP1 DUP3 GT PUSH2 0xCF6 JUMPI CALLDATASIZE PUSH1 0x23 DUP4 ADD SLT ISZERO PUSH2 0xCF6 JUMPI DUP2 PUSH1 0x4 ADD CALLDATALOAD SWAP1 DUP2 GT PUSH2 0xCF6 JUMPI CALLDATASIZE SWAP2 ADD PUSH1 0x24 ADD GT PUSH2 0xCF2 JUMPI PUSH32 0x0 PUSH1 0x1 PUSH1 0x1 PUSH1 0xA0 SHL SUB AND CALLER SUB PUSH2 0xC8F JUMPI DUP4 ISZERO PUSH2 0xC7B JUMPI PUSH2 0x144 DUP2 PUSH2 0x1312 JUMP JUMPDEST SWAP4 PUSH1 0x1 LT ISZERO PUSH2 0xC7B JUMPI PUSH1 0x20 PUSH2 0x159 SWAP2 ADD PUSH2 0x1312 JUMP JUMPDEST SWAP5 DUP1 ISZERO PUSH2 0xC7B JUMPI PUSH1 0x1 LT ISZERO PUSH2 0xC67 JUMPI DUP4 ISZERO PUSH2 0xC67 JUMPI PUSH2 0x17A DUP2 CALLDATALOAD DUP4 CALLDATALOAD PUSH2 0x1326 JUMP JUMPDEST SWAP4 PUSH1 0x1 LT ISZERO PUSH2 0xC67 JUMPI PUSH1 0x20 PUSH2 0x195 SWAP2 ADD CALLDATALOAD PUSH1 0x20 DUP4 ADD CALLDATALOAD PUSH2 0x1326 JUMP JUMPDEST PUSH1 0x40 MLOAD PUSH4 0x70A08231 PUSH1 0xE0 SHL DUP2 MSTORE ADDRESS PUSH1 0x4 DUP3 ADD MSTORE SWAP1 SWAP3 SWAP1 PUSH1 0x20 DUP2 PUSH1 0x24 DUP2 PUSH1 0x1 PUSH1 0x1 PUSH1 0xA0 SHL SUB DUP7 AND GAS STATICCALL DUP1 ISZERO PUSH2 0x9D3 JUMPI DUP8 SWAP1 PUSH2 0xC33 JUMPI JUMPDEST PUSH2 0x1D7 SWAP2 POP DUP4 CALLDATALOAD SWAP1 PUSH2 0x1347 JUMP JUMPDEST SWAP2 PUSH20 0x7CEB23FD6BC0ADD59E62AC25578270CFF1B9F619 PUSH1 0x1 PUSH1 0x1 PUSH1 0xA0 SHL SUB DUP4 AND DUP2 EQ PUSH2 0xC18 JUMPI JUMPDEST PUSH1 0x40 MLOAD PUSH4 0x95EA7B3 PUSH1 0xE0 SHL DUP2 MSTORE PUSH20 0xA5E0829CACED8FFDD4DE3C43696C57F7D7A678FF PUSH1 0x4 DUP3 ADD MSTORE DUP3 CALLDATALOAD PUSH1 0x24 DUP3 ADD MSTORE PUSH1 0x20 DUP2 PUSH1 0x44 DUP2 DUP13 PUSH1 0x1 PUSH1 0x1 PUSH1 0xA0 SHL SUB DUP10 AND GAS CALL DUP1 ISZERO PUSH2 0x87D JUMPI PUSH2 0xBF9 JUMPI JUMPDEST POP PUSH1 0x40 MLOAD PUSH2 0x257 DUP2 PUSH2 0x120C JUMP JUMPDEST PUSH1 0x2 DUP2 MSTORE PUSH1 0x40 CALLDATASIZE PUSH1 0x20 DUP4 ADD CALLDATACOPY PUSH1 0x1 PUSH1 0x1 PUSH1 0xA0 SHL SUB DUP5 AND PUSH2 0x276 DUP3 PUSH2 0x125E JUMP JUMPDEST MSTORE PUSH2 0x280 DUP2 PUSH2 0x127F JUMP JUMPDEST PUSH1 0x1 PUSH1 0x1 PUSH1 0xA0 SHL SUB DUP4 AND SWAP1 MSTORE TIMESTAMP PUSH2 0x12C DUP2 ADD LT PUSH2 0xB7E JUMPI DUP9 PUSH2 0x2C0 SWAP2 PUSH1 0x40 MLOAD DUP1 SWAP4 DUP2 SWAP3 PUSH4 0x38ED1739 PUSH1 0xE0 SHL DUP4 MSTORE PUSH2 0x12C TIMESTAMP ADD SWAP1 ADDRESS SWAP1 DUP10 CALLDATALOAD PUSH1 0x4 DUP7 ADD PUSH2 0x13E8 JUMP JUMPDEST SUB DUP2 DUP4 PUSH20 0xA5E0829CACED8FFDD4DE3C43696C57F7D7A678FF GAS CALL SWAP1 DUP2 ISZERO PUSH2 0x87D JUMPI DUP10 SWAP2 PUSH2 0xBDF JUMPI JUMPDEST POP DUP1 MLOAD DUP1 PUSH0 NOT DUP2 ADD GT PUSH2 0xBCB JUMPI PUSH2 0x326 PUSH32 0x396574F04DB72FA9C597075AA4372D8627152B3BC1012D3561770A12479D6395 SWAP3 PUSH1 0xA0 SWAP3 PUSH0 NOT ADD SWAP1 PUSH2 0x128F JUMP JUMPDEST MLOAD SWAP4 PUSH1 0x40 MLOAD SWAP1 PUSH1 0x60 DUP3 MSTORE PUSH1 0x9 PUSH1 0x60 DUP4 ADD MSTORE PUSH9 0x517569636B5377617 PUSH1 0xBC SHL PUSH1 0x80 DUP4 ADD MSTORE CALLDATALOAD PUSH1 0x20 DUP3 ADD MSTORE DUP5 PUSH1 0x40 DUP3 ADD MSTORE LOG1 PUSH1 0x40 MLOAD PUSH4 0x95EA7B3 PUSH1 0xE0 SHL DUP2 MSTORE PUSH20 0x1B02DA8CB0D097EB8D57A175B88C7D8B47997506 PUSH1 0x4 DUP3 ADD MSTORE PUSH1 0x24 DUP2 ADD DUP4 SWAP1 MSTORE SWAP1 DUP9 SWAP1 PUSH1 0x20 DUP4 PUSH1 0x44 DUP2 DUP6 PUSH1 0x1 PUSH1 0x1 PUSH1 0xA0 SHL SUB DUP7 AND GAS CALL SWAP3 DUP4 ISZERO PUSH2 0xB0C JUMPI PUSH2 0x40E SWAP4 PUSH2 0xBAC JUMPI JUMPDEST POP PUSH1 0x40 MLOAD SWAP1 PUSH2 0x3B8 DUP3 PUSH2 0x120C JUMP JUMPDEST PUSH1 0x2 DUP3 MSTORE PUSH1 0x40 CALLDATASIZE PUSH1 0x20 DUP5 ADD CALLDATACOPY PUSH1 0x1 PUSH1 0x1 PUSH1 0xA0 SHL SUB AND PUSH2 0x3D6 DUP3 PUSH2 0x125E JUMP JUMPDEST MSTORE PUSH1 0x1 PUSH1 0x1 PUSH1 0xA0 SHL SUB DUP6 AND PUSH2 0x3EA DUP3 PUSH2 0x127F JUMP JUMPDEST MSTORE PUSH1 0x40 MLOAD DUP1 SWAP4 DUP2 SWAP3 PUSH4 0x38ED1739 PUSH1 0xE0 SHL DUP4 MSTORE PUSH2 0x12C TIMESTAMP ADD SWAP1 ADDRESS SWAP1 DUP9 PUSH1 0x4 DUP7 ADD PUSH2 0x13E8 JUMP JUMPDEST SUB DUP2 DUP4 PUSH20 0x1B02DA8CB0D097EB8D57A175B88C7D8B47997506 GAS CALL SWAP1 DUP2 ISZERO PUSH2 0x996 JUMPI DUP9 SWAP2 PUSH2 0xB92 JUMPI JUMPDEST POP DUP1 MLOAD DUP1 PUSH0 NOT DUP2 ADD GT PUSH2 0xB7E JUMPI SWAP2 PUSH2 0x475 PUSH1 0xA0 SWAP3 PUSH32 0x396574F04DB72FA9C597075AA4372D8627152B3BC1012D3561770A12479D6395 SWAP5 PUSH0 NOT ADD SWAP1 PUSH2 0x128F JUMP JUMPDEST MLOAD PUSH1 0x40 MLOAD SWAP2 PUSH1 0x60 DUP4 MSTORE PUSH1 0x9 PUSH1 0x60 DUP5 ADD MSTORE PUSH9 0x53757368695377617 PUSH1 0xBC SHL PUSH1 0x80 DUP5 ADD MSTORE PUSH1 0x20 DUP4 ADD MSTORE PUSH1 0x40 DUP3 ADD MSTORE LOG1 PUSH1 0x40 MLOAD PUSH4 0x70A08231 PUSH1 0xE0 SHL DUP2 MSTORE ADDRESS PUSH1 0x4 DUP3 ADD MSTORE PUSH1 0x20 DUP2 PUSH1 0x24 DUP2 PUSH1 0x1 PUSH1 0x1 PUSH1 0xA0 SHL SUB DUP7 AND GAS STATICCALL SWAP1 DUP2 ISZERO PUSH2 0x9D3 JUMPI DUP8 SWAP2 PUSH2 0xB4C JUMPI JUMPDEST POP PUSH1 0x40 MLOAD PUSH4 0x70A08231 PUSH1 0xE0 SHL DUP2 MSTORE ADDRESS PUSH1 0x4 DUP3 ADD MSTORE DUP8 SWAP1 PUSH1 0x20 DUP2 PUSH1 0x24 DUP2 PUSH1 0x1 PUSH1 0x1 PUSH1 0xA0 SHL SUB DUP13 AND GAS STATICCALL SWAP1 DUP2 ISZERO PUSH2 0xB0C JUMPI DUP3 SWAP2 PUSH2 0xB17 JUMPI JUMPDEST POP DUP6 DUP2 LT PUSH2 0x9DE JUMPI JUMPDEST POP POP PUSH1 0x40 MLOAD PUSH4 0x70A08231 PUSH1 0xE0 SHL DUP2 MSTORE ADDRESS PUSH1 0x4 DUP3 ADD MSTORE SWAP1 POP PUSH1 0x20 DUP2 PUSH1 0x24 DUP2 PUSH1 0x1 PUSH1 0x1 PUSH1 0xA0 SHL SUB DUP7 AND GAS STATICCALL SWAP1 DUP2 ISZERO PUSH2 0x9D3 JUMPI DUP8 SWAP2 PUSH2 0x9A1 JUMPI JUMPDEST POP PUSH1 0x40 MLOAD PUSH4 0x70A08231 PUSH1 0xE0 SHL DUP2 MSTORE ADDRESS PUSH1 0x4 DUP3 ADD MSTORE SWAP3 PUSH1 0x20 DUP5 PUSH1 0x24 DUP2 PUSH1 0x1 PUSH1 0x1 PUSH1 0xA0 SHL SUB DUP12 AND GAS STATICCALL SWAP4 DUP5 ISZERO PUSH2 0x996 JUMPI DUP9 SWAP5 PUSH2 0x95E JUMPI JUMPDEST POP DUP6 DUP3 LT PUSH2 0x901 JUMPI DUP5 DUP5 LT PUSH2 0x8A7 JUMPI PUSH1 0x40 MLOAD PUSH4 0x95EA7B3 PUSH1 0xE0 SHL DUP2 MSTORE PUSH32 0x0 PUSH1 0x1 PUSH1 0x1 PUSH1 0xA0 SHL SUB AND PUSH1 0x4 DUP3 ADD MSTORE PUSH1 0x24 DUP2 ADD DUP8 SWAP1 MSTORE PUSH1 0x20 DUP2 DUP1 PUSH1 0x44 DUP2 ADD SUB DUP2 DUP13 PUSH1 0x1 PUSH1 0x1 PUSH1 0xA0 SHL SUB DUP10 AND GAS CALL DUP1 ISZERO PUSH2 0x87D JUMPI PUSH2 0x888 JUMPI JUMPDEST POP PUSH1 0x40 MLOAD PUSH4 0x95EA7B3 PUSH1 0xE0 SHL DUP2 MSTORE PUSH32 0x0 PUSH1 0x1 PUSH1 0x1 PUSH1 0xA0 SHL SUB AND PUSH1 0x4 DUP3 ADD MSTORE PUSH1 0x24 DUP2 ADD DUP7 SWAP1 MSTORE PUSH1 0x20 DUP2 DUP1 PUSH1 0x44 DUP2 ADD SUB DUP2 DUP13 PUSH1 0x1 PUSH1 0x1 PUSH1 0xA0 SHL SUB DUP14 AND GAS CALL DUP1 ISZERO PUSH2 0x87D JUMPI PUSH2 0x85E JUMPI JUMPDEST POP PUSH2 0x665 DUP7 DUP4 PUSH2 0x1347 JUMP JUMPDEST GT ISZERO PUSH2 0x7D5 JUMPI DUP7 SWAP5 PUSH2 0x676 SWAP2 PUSH2 0x1347 JUMP JUMPDEST DUP1 PUSH2 0x73F JUMPI JUMPDEST POP POP PUSH2 0x688 SWAP3 POP PUSH2 0x1347 JUMP JUMPDEST SWAP1 DUP2 PUSH2 0x69A JUMPI JUMPDEST PUSH1 0x20 PUSH1 0x40 MLOAD PUSH1 0x1 DUP2 MSTORE RETURN JUMPDEST PUSH1 0x40 MLOAD PUSH4 0xA9059CBB PUSH1 0xE0 SHL DUP2 MSTORE PUSH1 0x1 PUSH1 0x1 PUSH1 0xA0 SHL SUB PUSH32 0x0 DUP2 AND PUSH1 0x4 DUP4 ADD MSTORE PUSH1 0x24 DUP3 ADD SWAP4 SWAP1 SWAP4 MSTORE SWAP3 SWAP2 PUSH1 0x20 SWAP2 DUP5 SWAP2 PUSH1 0x44 SWAP2 DUP4 SWAP2 DUP7 SWAP2 AND GAS CALL SWAP1 DUP2 ISZERO PUSH2 0x733 JUMPI POP PUSH2 0x704 JUMPI JUMPDEST DUP1 DUP1 PUSH2 0x68F JUMP JUMPDEST PUSH2 0x725 SWAP1 PUSH1 0x20 RETURNDATASIZE PUSH1 0x20 GT PUSH2 0x72C JUMPI JUMPDEST PUSH2 0x71D DUP2 DUP4 PUSH2 0x123C JUMP JUMPDEST DUP2 ADD SWAP1 PUSH2 0x1354 JUMP JUMPDEST POP PUSH0 PUSH2 0x6FD JUMP JUMPDEST POP RETURNDATASIZE PUSH2 0x713 JUMP JUMPDEST PUSH1 0x40 MLOAD SWAP1 RETURNDATASIZE SWAP1 DUP3 RETURNDATACOPY RETURNDATASIZE SWAP1 REVERT JUMPDEST PUSH1 0x40 MLOAD PUSH4 0xA9059CBB PUSH1 0xE0 SHL DUP2 MSTORE PUSH1 0x1 PUSH1 0x1 PUSH1 0xA0 SHL SUB PUSH32 0x0 DUP2 AND PUSH1 0x4 DUP4 ADD MSTORE PUSH1 0x24 DUP3 ADD SWAP3 SWAP1 SWAP3 MSTORE SWAP5 PUSH1 0x20 SWAP3 DUP7 SWAP3 PUSH1 0x44 SWAP3 DUP5 SWAP3 SWAP1 SWAP2 AND GAS CALL SWAP3 DUP4 ISZERO PUSH2 0x7CA JUMPI PUSH2 0x688 SWAP4 PUSH2 0x7AB JUMPI JUMPDEST DUP6 SWAP4 PUSH2 0x67C JUMP JUMPDEST PUSH2 0x7C3 SWAP1 PUSH1 0x20 RETURNDATASIZE PUSH1 0x20 GT PUSH2 0x72C JUMPI PUSH2 0x71D DUP2 DUP4 PUSH2 0x123C JUMP JUMPDEST POP PUSH0 PUSH2 0x7A4 JUMP JUMPDEST PUSH1 0x40 MLOAD RETURNDATASIZE DUP8 DUP3 RETURNDATACOPY RETURNDATASIZE SWAP1 REVERT JUMPDEST PUSH1 0x40 MLOAD PUSH3 0x461BCD PUSH1 0xE5 SHL DUP2 MSTORE PUSH1 0x20 PUSH1 0x4 DUP3 ADD MSTORE PUSH1 0x55 PUSH1 0x24 DUP3 ADD MSTORE PUSH32 0x564535204B4F52554D4153493A2047617A20766520626F72636C617220647573 PUSH1 0x44 DUP3 ADD MSTORE PUSH32 0x74756B74656E20736F6E7261206B617A616E63207361676C616E616D61646967 PUSH1 0x64 DUP3 ADD MSTORE PUSH21 0x69206963696E20726576657274206564696C646921 PUSH1 0x58 SHL PUSH1 0x84 DUP3 ADD MSTORE PUSH1 0xA4 SWAP1 REVERT JUMPDEST PUSH2 0x876 SWAP1 PUSH1 0x20 RETURNDATASIZE PUSH1 0x20 GT PUSH2 0x72C JUMPI PUSH2 0x71D DUP2 DUP4 PUSH2 0x123C JUMP JUMPDEST POP PUSH0 PUSH2 0x65A JUMP JUMPDEST PUSH1 0x40 MLOAD RETURNDATASIZE DUP12 DUP3 RETURNDATACOPY RETURNDATASIZE SWAP1 REVERT JUMPDEST PUSH2 0x8A0 SWAP1 PUSH1 0x20 RETURNDATASIZE PUSH1 0x20 GT PUSH2 0x72C JUMPI PUSH2 0x71D DUP2 DUP4 PUSH2 0x123C JUMP JUMPDEST POP PUSH0 PUSH2 0x5F4 JUMP JUMPDEST PUSH1 0x40 MLOAD PUSH3 0x461BCD PUSH1 0xE5 SHL DUP2 MSTORE PUSH1 0x20 PUSH1 0x4 DUP3 ADD MSTORE PUSH1 0x2C PUSH1 0x24 DUP3 ADD MSTORE PUSH32 0x416665746944657672616E3A2047617320626F72632067657269206F64656D65 PUSH1 0x44 DUP3 ADD MSTORE PUSH12 0x736920796574657273697A21 PUSH1 0xA0 SHL PUSH1 0x64 DUP3 ADD MSTORE PUSH1 0x84 SWAP1 REVERT JUMPDEST PUSH1 0x40 MLOAD PUSH3 0x461BCD PUSH1 0xE5 SHL DUP2 MSTORE PUSH1 0x20 PUSH1 0x4 DUP3 ADD MSTORE PUSH1 0x2F PUSH1 0x24 DUP3 ADD MSTORE PUSH32 0x416665746944657672616E3A2054696361726920626F72632067657269206F64 PUSH1 0x44 DUP3 ADD MSTORE PUSH15 0x656D65736920796574657273697A21 PUSH1 0x88 SHL PUSH1 0x64 DUP3 ADD MSTORE PUSH1 0x84 SWAP1 REVERT JUMPDEST SWAP1 SWAP4 POP PUSH1 0x20 DUP2 RETURNDATASIZE PUSH1 0x20 GT PUSH2 0x98E JUMPI JUMPDEST DUP2 PUSH2 0x97A PUSH1 0x20 SWAP4 DUP4 PUSH2 0x123C JUMP JUMPDEST DUP2 ADD SUB SLT PUSH2 0x98A JUMPI MLOAD SWAP3 PUSH0 PUSH2 0x580 JUMP JUMPDEST PUSH0 DUP1 REVERT JUMPDEST RETURNDATASIZE SWAP2 POP PUSH2 0x96D JUMP JUMPDEST PUSH1 0x40 MLOAD RETURNDATASIZE DUP11 DUP3 RETURNDATACOPY RETURNDATASIZE SWAP1 REVERT JUMPDEST SWAP1 POP PUSH1 0x20 DUP2 RETURNDATASIZE PUSH1 0x20 GT PUSH2 0x9CB JUMPI JUMPDEST DUP2 PUSH2 0x9BC PUSH1 0x20 SWAP4 DUP4 PUSH2 0x123C JUMP JUMPDEST DUP2 ADD SUB SLT PUSH2 0x98A JUMPI MLOAD PUSH0 PUSH2 0x54B JUMP JUMPDEST RETURNDATASIZE SWAP2 POP PUSH2 0x9AF JUMP JUMPDEST PUSH1 0x40 MLOAD RETURNDATASIZE DUP10 DUP3 RETURNDATACOPY RETURNDATASIZE SWAP1 REVERT JUMPDEST PUSH2 0x9E8 SWAP1 DUP7 PUSH2 0x1347 JUMP JUMPDEST PUSH1 0x40 MLOAD PUSH4 0x95EA7B3 PUSH1 0xE0 SHL DUP2 MSTORE PUSH20 0xA5E0829CACED8FFDD4DE3C43696C57F7D7A678FF PUSH1 0x4 DUP3 ADD MSTORE PUSH1 0x24 DUP2 ADD SWAP4 SWAP1 SWAP4 MSTORE PUSH1 0x20 DUP4 PUSH1 0x44 DUP2 DUP6 PUSH1 0x1 PUSH1 0x1 PUSH1 0xA0 SHL SUB DUP10 AND GAS CALL SWAP3 DUP4 ISZERO PUSH2 0xB0C JUMPI PUSH2 0xA9F SWAP4 PUSH2 0xAED JUMPI JUMPDEST POP PUSH1 0x40 MLOAD SWAP1 PUSH2 0xA48 DUP3 PUSH2 0x120C JUMP JUMPDEST PUSH1 0x2 DUP3 MSTORE PUSH1 0x40 CALLDATASIZE PUSH1 0x20 DUP5 ADD CALLDATACOPY PUSH1 0x1 PUSH1 0x1 PUSH1 0xA0 SHL SUB DUP6 AND PUSH2 0xA67 DUP4 PUSH2 0x125E JUMP JUMPDEST MSTORE PUSH1 0x1 PUSH1 0x1 PUSH1 0xA0 SHL SUB DUP10 AND PUSH2 0xA7B DUP4 PUSH2 0x127F JUMP JUMPDEST MSTORE PUSH1 0x40 MLOAD PUSH4 0x38ED1739 PUSH1 0xE0 SHL DUP2 MSTORE SWAP4 DUP5 SWAP3 DUP4 SWAP3 TIMESTAMP PUSH2 0x12C ADD SWAP2 ADDRESS SWAP2 PUSH1 0x4 DUP7 ADD PUSH2 0x13E8 JUMP JUMPDEST SUB DUP2 DUP4 PUSH20 0xA5E0829CACED8FFDD4DE3C43696C57F7D7A678FF GAS CALL DUP1 ISZERO PUSH2 0x9D3 JUMPI PUSH2 0xACB JUMPI JUMPDEST DUP7 DUP2 PUSH2 0x514 JUMP JUMPDEST PUSH2 0xAE6 SWAP1 RETURNDATASIZE DUP1 DUP10 DUP4 RETURNDATACOPY PUSH2 0xADE DUP2 DUP4 PUSH2 0x123C JUMP JUMPDEST DUP2 ADD SWAP1 PUSH2 0x136C JUMP JUMPDEST POP PUSH0 PUSH2 0xAC4 JUMP JUMPDEST PUSH2 0xB05 SWAP1 PUSH1 0x20 RETURNDATASIZE PUSH1 0x20 GT PUSH2 0x72C JUMPI PUSH2 0x71D DUP2 DUP4 PUSH2 0x123C JUMP JUMPDEST POP PUSH0 PUSH2 0xA3A JUMP JUMPDEST PUSH1 0x40 MLOAD RETURNDATASIZE DUP5 DUP3 RETURNDATACOPY RETURNDATASIZE SWAP1 REVERT JUMPDEST SWAP2 POP POP PUSH1 0x20 DUP2 RETURNDATASIZE PUSH1 0x20 GT PUSH2 0xB44 JUMPI JUMPDEST DUP2 PUSH2 0xB33 PUSH1 0x20 SWAP4 DUP4 PUSH2 0x123C JUMP JUMPDEST DUP2 ADD SUB SLT PUSH2 0x98A JUMPI DUP8 SWAP1 MLOAD PUSH0 PUSH2 0x50B JUMP JUMPDEST RETURNDATASIZE SWAP2 POP PUSH2 0xB26 JUMP JUMPDEST SWAP1 POP PUSH1 0x20 DUP2 RETURNDATASIZE PUSH1 0x20 GT PUSH2 0xB76 JUMPI JUMPDEST DUP2 PUSH2 0xB67 PUSH1 0x20 SWAP4 DUP4 PUSH2 0x123C JUMP JUMPDEST DUP2 ADD SUB SLT PUSH2 0x98A JUMPI MLOAD PUSH0 PUSH2 0x4D5 JUMP JUMPDEST RETURNDATASIZE SWAP2 POP PUSH2 0xB5A JUMP JUMPDEST PUSH4 0x4E487B71 PUSH1 0xE0 SHL DUP10 MSTORE PUSH1 0x11 PUSH1 0x4 MSTORE PUSH1 0x24 DUP10 REVERT JUMPDEST PUSH2 0xBA6 SWAP2 POP RETURNDATASIZE DUP1 DUP11 DUP4 RETURNDATACOPY PUSH2 0xADE DUP2 DUP4 PUSH2 0x123C JUMP JUMPDEST PUSH0 PUSH2 0x436 JUMP JUMPDEST PUSH2 0xBC4 SWAP1 PUSH1 0x20 RETURNDATASIZE PUSH1 0x20 GT PUSH2 0x72C JUMPI PUSH2 0x71D DUP2 DUP4 PUSH2 0x123C JUMP JUMPDEST POP PUSH0 PUSH2 0x3AA JUMP JUMPDEST PUSH4 0x4E487B71 PUSH1 0xE0 SHL DUP11 MSTORE PUSH1 0x11 PUSH1 0x4 MSTORE PUSH1 0x24 DUP11 REVERT JUMPDEST PUSH2 0xBF3 SWAP2 POP RETURNDATASIZE DUP1 DUP12 DUP4 RETURNDATACOPY PUSH2 0xADE DUP2 DUP4 PUSH2 0x123C JUMP JUMPDEST PUSH0 PUSH2 0x2E8 JUMP JUMPDEST PUSH2 0xC11 SWAP1 PUSH1 0x20 RETURNDATASIZE PUSH1 0x20 GT PUSH2 0x72C JUMPI PUSH2 0x71D DUP2 DUP4 PUSH2 0x123C JUMP JUMPDEST POP PUSH0 PUSH2 0x24A JUMP JUMPDEST POP PUSH20 0x2791BCA1F2DE4661ED88A30C99A7A9449AA84174 PUSH2 0x1FE JUMP JUMPDEST POP PUSH1 0x20 DUP2 RETURNDATASIZE PUSH1 0x20 GT PUSH2 0xC5F JUMPI JUMPDEST DUP2 PUSH2 0xC4D PUSH1 0x20 SWAP4 DUP4 PUSH2 0x123C JUMP JUMPDEST DUP2 ADD SUB SLT PUSH2 0x98A JUMPI PUSH2 0x1D7 SWAP1 MLOAD PUSH2 0x1CA JUMP JUMPDEST RETURNDATASIZE SWAP2 POP PUSH2 0xC40 JUMP JUMPDEST PUSH4 0x4E487B71 PUSH1 0xE0 SHL DUP7 MSTORE PUSH1 0x32 PUSH1 0x4 MSTORE PUSH1 0x24 DUP7 REVERT JUMPDEST PUSH4 0x4E487B71 PUSH1 0xE0 SHL DUP8 MSTORE PUSH1 0x32 PUSH1 0x4 MSTORE PUSH1 0x24 DUP8 REVERT JUMPDEST PUSH1 0x40 MLOAD PUSH3 0x461BCD PUSH1 0xE5 SHL DUP2 MSTORE PUSH1 0x20 PUSH1 0x4 DUP3 ADD MSTORE PUSH1 0x35 PUSH1 0x24 DUP3 ADD MSTORE PUSH32 0x416665746944657672616E3A20546574696B6C65796963692073616465636520 PUSH1 0x44 DUP3 ADD MSTORE PUSH21 0x20B0BB32902430BB3ABD3A9037B636B0B634B234B9 PUSH1 0x59 SHL PUSH1 0x64 DUP3 ADD MSTORE PUSH1 0x84 SWAP1 REVERT JUMPDEST DUP7 DUP1 REVERT JUMPDEST DUP9 DUP1 REVERT JUMPDEST DUP5 DUP1 REVERT JUMPDEST DUP3 DUP1 REVERT JUMPDEST DUP1 REVERT JUMPDEST POP CALLVALUE PUSH2 0xD02 JUMPI DUP1 PUSH1 0x3 NOT CALLDATASIZE ADD SLT PUSH2 0xD02 JUMPI PUSH1 0x40 MLOAD PUSH32 0x0 PUSH1 0x1 PUSH1 0x1 PUSH1 0xA0 SHL SUB AND DUP2 MSTORE PUSH1 0x20 SWAP1 RETURN JUMPDEST POP CALLVALUE PUSH2 0xD02 JUMPI PUSH1 0x20 DUP1 PUSH1 0x3 NOT CALLDATASIZE ADD SLT PUSH2 0xEBC JUMPI PUSH2 0xD65 PUSH2 0x115F JUMP JUMPDEST PUSH32 0x0 SWAP1 PUSH1 0x1 PUSH1 0x1 PUSH1 0xA0 SHL SUB SWAP1 PUSH2 0xD9D CALLER DUP4 DUP6 AND EQ PUSH2 0x11A6 JUMP JUMPDEST AND PUSH1 0x40 MLOAD SWAP2 PUSH4 0x70A08231 PUSH1 0xE0 SHL DUP4 MSTORE ADDRESS PUSH1 0x4 DUP5 ADD MSTORE DUP4 DUP4 PUSH1 0x24 DUP2 DUP6 GAS STATICCALL SWAP3 DUP4 ISZERO PUSH2 0x7CA JUMPI DUP6 SWAP4 PUSH2 0xE8D JUMPI JUMPDEST POP DUP3 ISZERO PUSH2 0xE38 JUMPI PUSH1 0x40 MLOAD PUSH4 0xA9059CBB PUSH1 0xE0 SHL DUP2 MSTORE PUSH1 0x1 PUSH1 0x1 PUSH1 0xA0 SHL SUB SWAP2 SWAP1 SWAP2 AND PUSH1 0x4 DUP3 ADD MSTORE PUSH1 0x24 DUP2 ADD SWAP3 SWAP1 SWAP3 MSTORE DUP3 SWAP1 DUP3 SWAP1 PUSH1 0x44 SWAP1 DUP3 SWAP1 DUP8 SWAP1 GAS CALL DUP1 ISZERO PUSH2 0xE2D JUMPI PUSH2 0xE10 JUMPI DUP3 DUP1 RETURN JUMPDEST DUP2 PUSH2 0xE26 SWAP3 SWAP1 RETURNDATASIZE LT PUSH2 0x72C JUMPI PUSH2 0x71D DUP2 DUP4 PUSH2 0x123C JUMP JUMPDEST POP PUSH0 DUP1 DUP3 DUP1 RETURN JUMPDEST PUSH1 0x40 MLOAD RETURNDATASIZE DUP6 DUP3 RETURNDATACOPY RETURNDATASIZE SWAP1 REVERT JUMPDEST PUSH1 0x40 MLOAD PUSH3 0x461BCD PUSH1 0xE5 SHL DUP2 MSTORE PUSH1 0x4 DUP2 ADD DUP6 SWAP1 MSTORE PUSH1 0x27 PUSH1 0x24 DUP3 ADD MSTORE PUSH32 0x416665746944657672616E3A2043656B696C6563656B20746F6B656E2062756C PUSH1 0x44 DUP3 ADD MSTORE PUSH7 0x756E616D616469 PUSH1 0xC8 SHL PUSH1 0x64 DUP3 ADD MSTORE PUSH1 0x84 SWAP1 REVERT JUMPDEST SWAP1 SWAP3 POP DUP4 DUP2 DUP2 RETURNDATASIZE DUP4 GT PUSH2 0xEB5 JUMPI JUMPDEST PUSH2 0xEA5 DUP2 DUP4 PUSH2 0x123C JUMP JUMPDEST DUP2 ADD SUB SLT PUSH2 0x98A JUMPI MLOAD SWAP2 PUSH0 PUSH2 0xDC8 JUMP JUMPDEST POP RETURNDATASIZE PUSH2 0xE9B JUMP JUMPDEST POP DUP1 REVERT JUMPDEST POP CALLVALUE PUSH2 0xD02 JUMPI DUP1 PUSH1 0x3 NOT CALLDATASIZE ADD SLT PUSH2 0xD02 JUMPI PUSH1 0x40 MLOAD PUSH32 0x0 PUSH1 0x1 PUSH1 0x1 PUSH1 0xA0 SHL SUB AND DUP2 MSTORE PUSH1 0x20 SWAP1 RETURN JUMPDEST POP CALLVALUE PUSH2 0xD02 JUMPI PUSH1 0x3 NOT PUSH1 0x80 CALLDATASIZE DUP3 ADD SLT PUSH2 0xEBC JUMPI DUP2 PUSH2 0xF21 PUSH2 0x115F JUMP JUMPDEST SWAP2 PUSH1 0x1 PUSH1 0x1 PUSH1 0xA0 SHL SUB SWAP1 PUSH1 0x44 CALLDATALOAD DUP3 DUP2 AND SWAP1 DUP2 SWAP1 SUB PUSH2 0x1118 JUMPI PUSH2 0xF66 DUP4 PUSH32 0x0 AND CALLER EQ PUSH2 0x11A6 JUMP JUMPDEST PUSH1 0x40 MLOAD SWAP5 PUSH2 0xF73 DUP7 PUSH2 0x120C JUMP JUMPDEST PUSH1 0x2 DUP7 MSTORE PUSH1 0x40 CALLDATASIZE PUSH1 0x20 DUP9 ADD CALLDATACOPY DUP4 PUSH2 0xF89 DUP8 PUSH2 0x125E JUMP JUMPDEST SWAP2 AND SWAP1 MSTORE PUSH2 0xF96 DUP6 PUSH2 0x127F JUMP JUMPDEST MSTORE PUSH1 0x40 MLOAD SWAP4 PUSH2 0xFA4 DUP6 PUSH2 0x120C JUMP JUMPDEST PUSH1 0x2 DUP6 MSTORE PUSH1 0x40 CALLDATASIZE PUSH1 0x20 DUP8 ADD CALLDATACOPY PUSH1 0x24 CALLDATALOAD PUSH2 0xFBC DUP7 PUSH2 0x125E JUMP JUMPDEST MSTORE PUSH1 0x64 CALLDATALOAD PUSH2 0xFC9 DUP7 PUSH2 0x127F JUMP JUMPDEST MSTORE PUSH1 0x40 MLOAD SWAP3 PUSH2 0xFD7 DUP5 PUSH2 0x120C JUMP JUMPDEST PUSH1 0x2 DUP5 MSTORE PUSH1 0x40 CALLDATASIZE PUSH1 0x20 DUP7 ADD CALLDATACOPY DUP5 PUSH2 0xFED DUP6 PUSH2 0x125E JUMP JUMPDEST MSTORE DUP5 PUSH2 0xFF8 DUP6 PUSH2 0x127F JUMP JUMPDEST MSTORE PUSH32 0x7210C49EC4F1ED8D7A0AFD13EBAC9BB3AED991101F77AC40923E9FCF6A086774 PUSH1 0x40 MLOAD PUSH1 0x40 DUP2 MSTORE DUP1 PUSH2 0x1040 PUSH2 0x1032 PUSH1 0x40 DUP4 ADD DUP8 PUSH2 0x12A3 JUMP JUMPDEST DUP3 DUP2 SUB PUSH1 0x20 DUP5 ADD MSTORE DUP11 PUSH2 0x12DF JUMP JUMPDEST SUB SWAP1 LOG1 PUSH32 0x0 AND SWAP2 DUP3 EXTCODESIZE ISZERO PUSH2 0xCFA JUMPI PUSH1 0x20 DUP6 SWAP2 DUP3 PUSH2 0x10C5 PUSH2 0x10A5 SWAP8 PUSH2 0x10B5 PUSH1 0x40 MLOAD SWAP12 DUP13 SWAP11 DUP12 SWAP10 PUSH4 0xAB9C4B5D PUSH1 0xE0 SHL DUP12 MSTORE ADDRESS PUSH1 0x4 DUP13 ADD MSTORE PUSH1 0xE0 PUSH1 0x24 DUP13 ADD MSTORE PUSH1 0xE4 DUP12 ADD SWAP1 PUSH2 0x12A3 JUMP JUMPDEST SWAP1 DUP7 DUP11 DUP4 SUB ADD PUSH1 0x44 DUP12 ADD MSTORE PUSH2 0x12DF JUMP JUMPDEST SWAP1 DUP5 DUP9 DUP4 SUB ADD PUSH1 0x64 DUP10 ADD MSTORE PUSH2 0x12DF JUMP JUMPDEST ADDRESS PUSH1 0x84 DUP8 ADD MSTORE DUP6 DUP2 SUB SWAP3 DUP4 ADD PUSH1 0xA4 DUP8 ADD MSTORE MSTORE DUP3 PUSH1 0xC4 DUP6 ADD MSTORE ADD SWAP3 GAS CALL DUP1 ISZERO PUSH2 0xB0C JUMPI PUSH2 0x10EF JUMPI POP DUP1 RETURN JUMPDEST PUSH8 0xFFFFFFFFFFFFFFFF DUP2 GT PUSH2 0x1104 JUMPI PUSH1 0x40 MSTORE DUP1 RETURN JUMPDEST PUSH4 0x4E487B71 PUSH1 0xE0 SHL DUP3 MSTORE PUSH1 0x41 PUSH1 0x4 MSTORE PUSH1 0x24 DUP3 REVERT JUMPDEST DUP4 DUP1 REVERT JUMPDEST SWAP1 POP CALLVALUE PUSH2 0xEBC JUMPI DUP2 PUSH1 0x3 NOT CALLDATASIZE ADD SLT PUSH2 0xEBC JUMPI PUSH32 0x0 PUSH1 0x1 PUSH1 0x1 PUSH1 0xA0 SHL SUB AND DUP2 MSTORE PUSH1 0x20 SWAP1 RETURN JUMPDEST PUSH1 0x4 CALLDATALOAD SWAP1 PUSH1 0x1 PUSH1 0x1 PUSH1 0xA0 SHL SUB DUP3 AND DUP3 SUB PUSH2 0x98A JUMPI JUMP JUMPDEST SWAP2 DUP2 PUSH1 0x1F DUP5 ADD SLT ISZERO PUSH2 0x98A JUMPI DUP3 CALLDATALOAD SWAP2 PUSH8 0xFFFFFFFFFFFFFFFF DUP4 GT PUSH2 0x98A JUMPI PUSH1 0x20 DUP1 DUP6 ADD SWAP5 DUP5 PUSH1 0x5 SHL ADD ADD GT PUSH2 0x98A JUMPI JUMP JUMPDEST ISZERO PUSH2 0x11AD JUMPI JUMP JUMPDEST PUSH1 0x40 MLOAD PUSH3 0x461BCD PUSH1 0xE5 SHL DUP2 MSTORE PUSH1 0x20 PUSH1 0x4 DUP3 ADD MSTORE PUSH1 0x31 PUSH1 0x24 DUP3 ADD MSTORE PUSH32 0x416665746944657672616E3A20536164656365206B6F6E747261742073616869 PUSH1 0x44 DUP3 ADD MSTORE PUSH17 0x3134903A32BA34B5B632BCB2B134B634B9 PUSH1 0x79 SHL PUSH1 0x64 DUP3 ADD MSTORE PUSH1 0x84 SWAP1 REVERT JUMPDEST PUSH1 0x60 DUP2 ADD SWAP1 DUP2 LT PUSH8 0xFFFFFFFFFFFFFFFF DUP3 GT OR PUSH2 0x1228 JUMPI PUSH1 0x40 MSTORE JUMP JUMPDEST PUSH4 0x4E487B71 PUSH1 0xE0 SHL PUSH0 MSTORE PUSH1 0x41 PUSH1 0x4 MSTORE PUSH1 0x24 PUSH0 REVERT JUMPDEST SWAP1 PUSH1 0x1F DUP1 NOT SWAP2 ADD AND DUP2 ADD SWAP1 DUP2 LT PUSH8 0xFFFFFFFFFFFFFFFF DUP3 GT OR PUSH2 0x1228 JUMPI PUSH1 0x40 MSTORE JUMP JUMPDEST DUP1 MLOAD ISZERO PUSH2 0x126B JUMPI PUSH1 0x20 ADD SWAP1 JUMP JUMPDEST PUSH4 0x4E487B71 PUSH1 0xE0 SHL PUSH0 MSTORE PUSH1 0x32 PUSH1 0x4 MSTORE PUSH1 0x24 PUSH0 REVERT JUMPDEST DUP1 MLOAD PUSH1 0x1 LT ISZERO PUSH2 0x126B JUMPI PUSH1 0x40 ADD SWAP1 JUMP JUMPDEST DUP1 MLOAD DUP3 LT ISZERO PUSH2 0x126B JUMPI PUSH1 0x20 SWAP2 PUSH1 0x5 SHL ADD ADD SWAP1 JUMP JUMPDEST SWAP1 DUP2 MLOAD DUP1 DUP3 MSTORE PUSH1 0x20 DUP1 DUP1 SWAP4 ADD SWAP4 ADD SWAP2 PUSH0 JUMPDEST DUP3 DUP2 LT PUSH2 0x12C2 JUMPI POP POP POP POP SWAP1 JUMP JUMPDEST DUP4 MLOAD PUSH1 0x1 PUSH1 0x1 PUSH1 0xA0 SHL SUB AND DUP6 MSTORE SWAP4 DUP2 ADD SWAP4 SWAP3 DUP2 ADD SWAP3 PUSH1 0x1 ADD PUSH2 0x12B4 JUMP JUMPDEST SWAP1 DUP2 MLOAD DUP1 DUP3 MSTORE PUSH1 0x20 DUP1 DUP1 SWAP4 ADD SWAP4 ADD SWAP2 PUSH0 JUMPDEST DUP3 DUP2 LT PUSH2 0x12FE JUMPI POP POP POP POP SWAP1 JUMP JUMPDEST DUP4 MLOAD DUP6 MSTORE SWAP4 DUP2 ADD SWAP4 SWAP3 DUP2 ADD SWAP3 PUSH1 0x1 ADD PUSH2 0x12F0 JUMP JUMPDEST CALLDATALOAD PUSH1 0x1 PUSH1 0x1 PUSH1 0xA0 SHL SUB DUP2 AND DUP2 SUB PUSH2 0x98A JUMPI SWAP1 JUMP JUMPDEST SWAP2 SWAP1 DUP3 ADD DUP1 SWAP3 GT PUSH2 0x1333 JUMPI JUMP JUMPDEST PUSH4 0x4E487B71 PUSH1 0xE0 SHL PUSH0 MSTORE PUSH1 0x11 PUSH1 0x4 MSTORE PUSH1 0x24 PUSH0 REVERT JUMPDEST SWAP2 SWAP1 DUP3 SUB SWAP2 DUP3 GT PUSH2 0x1333 JUMPI JUMP JUMPDEST SWAP1 DUP2 PUSH1 0x20 SWAP2 SUB SLT PUSH2 0x98A JUMPI MLOAD DUP1 ISZERO ISZERO DUP2 SUB PUSH2 0x98A JUMPI SWAP1 JUMP JUMPDEST SWAP1 PUSH1 0x20 SWAP1 DUP2 DUP4 DUP3 SUB SLT PUSH2 0x98A JUMPI DUP3 MLOAD PUSH8 0xFFFFFFFFFFFFFFFF SWAP4 DUP5 DUP3 GT PUSH2 0x98A JUMPI ADD DUP2 PUSH1 0x1F DUP3 ADD SLT ISZERO PUSH2 0x98A JUMPI DUP1 MLOAD SWAP4 DUP5 GT PUSH2 0x1228 JUMPI DUP4 PUSH1 0x5 SHL SWAP1 PUSH1 0x40 MLOAD SWAP5 PUSH2 0x13B6 DUP6 DUP5 ADD DUP8 PUSH2 0x123C JUMP JUMPDEST DUP6 MSTORE DUP4 DUP1 DUP7 ADD SWAP3 DUP3 ADD ADD SWAP3 DUP4 GT PUSH2 0x98A JUMPI DUP4 ADD SWAP1 JUMPDEST DUP3 DUP3 LT PUSH2 0x13D9 JUMPI POP POP POP POP SWAP1 JUMP JUMPDEST DUP2 MLOAD DUP2 MSTORE SWAP1 DUP4 ADD SWAP1 DUP4 ADD PUSH2 0x13CB JUMP JUMPDEST SWAP1 PUSH1 0x80 SWAP3 PUSH2 0x140D SWAP2 SWAP7 SWAP6 SWAP5 SWAP7 DUP4 MSTORE PUSH0 PUSH1 0x20 DUP5 ADD MSTORE PUSH1 0xA0 PUSH1 0x40 DUP5 ADD MSTORE PUSH1 0xA0 DUP4 ADD SWAP1 PUSH2 0x12A3 JUMP JUMPDEST PUSH1 0x1 PUSH1 0x1 PUSH1 0xA0 SHL SUB SWAP1 SWAP6 AND PUSH1 0x60 DUP3 ADD MSTORE ADD MSTORE JUMP INVALID LOG2 PUSH5 0x6970667358 0x22 SLT KECCAK256 LOG3 CALLDATACOPY DUP4 JUMPI 0xFB PUSH20 0x5485C82F9034A541B168250E623AA34321F6F911 0xB1 PUSH9 0x2FBF6B6F64736F6C63 NUMBER STOP ADDMOD EQ STOP CALLER "},"methodIdentifiers":{"ADDRESSES_PROVIDER()":"0542975c","POOL()":"7535d246","executeMultiFlashLoan(address,uint256,address,uint256)":"6ac59057","executeOperation(address[],uint256[],uint256[],address,bytes)":"920f5c84","owner()":"8da5cb5b","withdrawToken(address)":"89476069"}}}}}