{
  "_format": "hh-sol-artifact-1",
  "contractName": "AfetiDevranArbitrage",
  "sourceName": "contracts/AfetiDevranArbitrage.sol",
  "abi": [
    {
      "inputs": [],
      "stateMutability": "nonpayable",
      "type": "constructor"
    },
    {
      "anonymous": false,
      "inputs": [
        {
          "indexed": false,
          "internalType": "uint256",
          "name": "netProfit",
          "type": "uint256"
        },
        {
          "indexed": true,
          "internalType": "address",
          "name": "asset",
          "type": "address"
        }
      ],
      "name": "ArbitrageSuccess",
      "type": "event"
    },
    {
      "anonymous": false,
      "inputs": [
        {
          "indexed": false,
          "internalType": "string",
          "name": "issue",
          "type": "string"
        },
        {
          "indexed": false,
          "internalType": "string",
          "name": "solution",
          "type": "string"
        }
      ],
      "name": "AutoRepairTriggered",
      "type": "event"
    },
    {
      "anonymous": false,
      "inputs": [
        {
          "indexed": false,
          "internalType": "string",
          "name": "reason",
          "type": "string"
        },
        {
          "indexed": false,
          "internalType": "uint256",
          "name": "attemptNumber",
          "type": "uint256"
        }
      ],
      "name": "FailureLogged",
      "type": "event"
    },
    {
      "anonymous": false,
      "inputs": [
        {
          "indexed": false,
          "internalType": "uint256",
          "name": "failureCount",
          "type": "uint256"
        }
      ],
      "name": "KillSwitchActivated",
      "type": "event"
    },
    {
      "anonymous": false,
      "inputs": [
        {
          "indexed": false,
          "internalType": "uint256",
          "name": "usdc_weth_price",
          "type": "uint256"
        },
        {
          "indexed": false,
          "internalType": "uint256",
          "name": "weth_usdc_price",
          "type": "uint256"
        },
        {
          "indexed": false,
          "internalType": "uint256",
          "name": "spread",
          "type": "uint256"
        }
      ],
      "name": "MarketDataCaptured",
      "type": "event"
    },
    {
      "anonymous": false,
      "inputs": [
        {
          "indexed": false,
          "internalType": "address[]",
          "name": "assets",
          "type": "address[]"
        },
        {
          "indexed": false,
          "internalType": "uint256[]",
          "name": "amounts",
          "type": "uint256[]"
        }
      ],
      "name": "MultiFlashLoanInitiated",
      "type": "event"
    },
    {
      "anonymous": false,
      "inputs": [
        {
          "indexed": false,
          "internalType": "string",
          "name": "paramName",
          "type": "string"
        },
        {
          "indexed": false,
          "internalType": "uint256",
          "name": "oldValue",
          "type": "uint256"
        },
        {
          "indexed": false,
          "internalType": "uint256",
          "name": "newValue",
          "type": "uint256"
        }
      ],
      "name": "ParameterUpdated",
      "type": "event"
    },
    {
      "anonymous": false,
      "inputs": [
        {
          "indexed": false,
          "internalType": "string",
          "name": "exchange",
          "type": "string"
        },
        {
          "indexed": false,
          "internalType": "uint256",
          "name": "inputAmount",
          "type": "uint256"
        },
        {
          "indexed": false,
          "internalType": "uint256",
          "name": "outputAmount",
          "type": "uint256"
        }
      ],
      "name": "SwapExecuted",
      "type": "event"
    },
    {
      "inputs": [],
      "name": "ADDRESSES_PROVIDER",
      "outputs": [
        {
          "internalType": "contract IPoolAddressesProvider",
          "name": "",
          "type": "address"
        }
      ],
      "stateMutability": "view",
      "type": "function"
    },
    {
      "inputs": [],
      "name": "POOL",
      "outputs": [
        {
          "internalType": "contract IPool",
          "name": "",
          "type": "address"
        }
      ],
      "stateMutability": "view",
      "type": "function"
    },
    {
      "inputs": [],
      "name": "autoRepairEnabled",
      "outputs": [
        {
          "internalType": "bool",
          "name": "",
          "type": "bool"
        }
      ],
      "stateMutability": "view",
      "type": "function"
    },
    {
      "inputs": [
        {
          "internalType": "uint256",
          "name": "usdcWethPrice",
          "type": "uint256"
        },
        {
          "internalType": "uint256",
          "name": "wethUsdcPrice",
          "type": "uint256"
        }
      ],
      "name": "captureMarketData",
      "outputs": [],
      "stateMutability": "nonpayable",
      "type": "function"
    },
    {
      "inputs": [
        {
          "internalType": "bool",
          "name": "enabled",
          "type": "bool"
        }
      ],
      "name": "enableAutoRepair",
      "outputs": [],
      "stateMutability": "nonpayable",
      "type": "function"
    },
    {
      "inputs": [
        {
          "internalType": "string",
          "name": "",
          "type": "string"
        }
      ],
      "name": "errorFrequency",
      "outputs": [
        {
          "internalType": "uint256",
          "name": "",
          "type": "uint256"
        }
      ],
      "stateMutability": "view",
      "type": "function"
    },
    {
      "inputs": [
        {
          "internalType": "address",
          "name": "tradeAsset",
          "type": "address"
        },
        {
          "internalType": "uint256",
          "name": "tradeAmount",
          "type": "uint256"
        },
        {
          "internalType": "address",
          "name": "gasAsset",
          "type": "address"
        },
        {
          "internalType": "uint256",
          "name": "gasAmount",
          "type": "uint256"
        }
      ],
      "name": "executeMultiFlashLoan",
      "outputs": [],
      "stateMutability": "nonpayable",
      "type": "function"
    },
    {
      "inputs": [
        {
          "internalType": "address[]",
          "name": "assets",
          "type": "address[]"
        },
        {
          "internalType": "uint256[]",
          "name": "amounts",
          "type": "uint256[]"
        },
        {
          "internalType": "uint256[]",
          "name": "premiums",
          "type": "uint256[]"
        },
        {
          "internalType": "address",
          "name": "initiator",
          "type": "address"
        },
        {
          "internalType": "bytes",
          "name": "params",
          "type": "bytes"
        }
      ],
      "name": "executeOperation",
      "outputs": [
        {
          "internalType": "bool",
          "name": "",
          "type": "bool"
        }
      ],
      "stateMutability": "nonpayable",
      "type": "function"
    },
    {
      "inputs": [],
      "name": "isStopped",
      "outputs": [
        {
          "internalType": "bool",
          "name": "",
          "type": "bool"
        }
      ],
      "stateMutability": "view",
      "type": "function"
    },
    {
      "inputs": [
        {
          "internalType": "string",
          "name": "errorMsg",
          "type": "string"
        }
      ],
      "name": "logError",
      "outputs": [],
      "stateMutability": "nonpayable",
      "type": "function"
    },
    {
      "inputs": [],
      "name": "minProfitThreshold",
      "outputs": [
        {
          "internalType": "uint256",
          "name": "",
          "type": "uint256"
        }
      ],
      "stateMutability": "view",
      "type": "function"
    },
    {
      "inputs": [],
      "name": "owner",
      "outputs": [
        {
          "internalType": "address",
          "name": "",
          "type": "address"
        }
      ],
      "stateMutability": "view",
      "type": "function"
    },
    {
      "inputs": [
        {
          "internalType": "uint256",
          "name": "",
          "type": "uint256"
        }
      ],
      "name": "recentErrors",
      "outputs": [
        {
          "internalType": "string",
          "name": "",
          "type": "string"
        }
      ],
      "stateMutability": "view",
      "type": "function"
    },
    {
      "inputs": [],
      "name": "resetKillSwitch",
      "outputs": [],
      "stateMutability": "nonpayable",
      "type": "function"
    },
    {
      "inputs": [
        {
          "internalType": "address",
          "name": "_watchdog",
          "type": "address"
        }
      ],
      "name": "setWatchdogAddress",
      "outputs": [],
      "stateMutability": "nonpayable",
      "type": "function"
    },
    {
      "inputs": [],
      "name": "slippageTolerance",
      "outputs": [
        {
          "internalType": "uint256",
          "name": "",
          "type": "uint256"
        }
      ],
      "stateMutability": "view",
      "type": "function"
    },
    {
      "inputs": [
        {
          "internalType": "uint256",
          "name": "newMinProfit",
          "type": "uint256"
        }
      ],
      "name": "updateMinProfit",
      "outputs": [],
      "stateMutability": "nonpayable",
      "type": "function"
    },
    {
      "inputs": [
        {
          "internalType": "uint256",
          "name": "newTolerance",
          "type": "uint256"
        }
      ],
      "name": "updateSlippageTolerance",
      "outputs": [],
      "stateMutability": "nonpayable",
      "type": "function"
    },
    {
      "inputs": [],
      "name": "watchdogAddress",
      "outputs": [
        {
          "internalType": "address",
          "name": "",
          "type": "address"
        }
      ],
      "stateMutability": "view",
      "type": "function"
    },
    {
      "inputs": [
        {
          "internalType": "address",
          "name": "token",
          "type": "address"
        }
      ],
      "name": "withdrawToken",
      "outputs": [],
      "stateMutability": "nonpayable",
      "type": "function"
    }
  ],
  "bytecode": "0x60e080604052346100e6576103e3600090815560646001556002805460ff60a01b1916600160a01b1790556003556004805460ff191690553360805273a97684ead0e402dc232d5a524153d7b0b733b4e360a05273794a61358d6845594f94dc1db02a252b5b4814ad60c0526121fd90816100ec823960805181818161016b0152818161088e015281816109330152818161110701528181611145015281816111910152818161136e015281816118f801526119aa015260a05181611b08015260c05181818161026c0152818161073301528181610799015281816112e801526114800152f35b600080fdfe608080604052600436101561001357600080fd5b600090813560e01c90816303116b8914611b37575080630542975c14611af25780630f9da743146119f857806338ef4c3d14611985578063393c412c146118e15780633b42e5e21461184c5780633f683b6a14611829578063442017cc146116af5780634af62206146115a45780636ac59057146113355780637341ab8c146113175780637535d246146112d257806389476069146111745780638da5cb5b1461112f57806390f3707614611007578063920f5c84146101d7578063a361342f146101ae578063c69985ee14610142578063d03153aa146101255763ef0a1751146100fd57600080fd5b34610122578060031936011261012257602060ff60025460a01c166040519015158152f35b80fd5b503461012257806003193601126101225760209054604051908152f35b50346101225760203660031901126101225761015c611d00565b6001600160a01b0390610192337f0000000000000000000000000000000000000000000000000000000000000000841614611d47565b166bffffffffffffffffffffffff60a01b600254161760025580f35b50346101225780600319360112610122576002546040516001600160a01b039091168152602090f35b50346101225760a03660031901126101225767ffffffffffffffff6004358181116110035761020a903690600401611d16565b602435838111610fff57610222903690600401611d16565b93604435818111610ffb5761023b903690600401611d16565b9490916064356001600160a01b03811603610c3b57608435908111610ff757610268903690600401611c4b565b50507f00000000000000000000000000000000000000000000000000000000000000006001600160a01b03163303610fb25760ff60045416610f5e578315610f4a576102b381611e3f565b9360011015610f4a5760206102c89101611e3f565b948015610f4a5760011015610f36578315610f36576102e981358335611e53565b9360011015610f365760206103049101356020830135611e53565b6040516370a0823160e01b81523060048201529092906020816024816001600160a01b0386165afa8015610c87578790610f02575b6103469150833590611e76565b91737ceb23fd6bc0add59e62ac25578270cff1b9f6196001600160a01b0383168114610ee7575b60405163095ea7b360e01b815273a5e0829caced8ffdd4de3c43696c57f7d7a678ff6004820152823560248201526020816044818c6001600160a01b0389165af18015610b3b57610ec8575b506040516103c681611bd4565b6002815260403660208301376001600160a01b0384166103e582611d9d565b526103ef81611daa565b6001600160a01b03831690524261012c810110610e4d5788610440916103e861041a83548735611e9b565b0460405193849283926338ed173960e01b845261012c42019130918a3560048701611f2a565b03818373a5e0829caced8ffdd4de3c43696c57f7d7a678ff5af1908115610b3b578991610eae575b50805180600019810111610e9a576104a87f1aa376f6c3660ad1294c58a3a8ebee1be7c326c3c8a9c3d2ed91f3e7c8167a2a9260a0926000190190611dba565b5193604051906060825260096060830152680517569636b537761760bc1b6080830152356020820152846040820152a160405163095ea7b360e01b8152731b02da8cb0d097eb8d57a175b88c7d8b47997506600482015260248101839052908890602083604481856001600160a01b0386165af1928315610ddb576105a093610e7b575b506040519061053a82611bd4565b6002825260403660208401376001600160a01b031661055882611d9d565b526001600160a01b03851661056c82611daa565b526103e861057b835486611e9b565b0460405193849283926338ed173960e01b845261012c42019130918960048701611f2a565b038183731b02da8cb0d097eb8d57a175b88c7d8b479975065af1908115610c48578891610e61575b50805180600019810111610e4d579161060960a0927f1aa376f6c3660ad1294c58a3a8ebee1be7c326c3c8a9c3d2ed91f3e7c8167a2a946000190190611dba565b516040519160608352600960608401526805375736869537761760bc1b608084015260208301526040820152a16040516370a0823160e01b81523060048201526020816024816001600160a01b0386165afa908115610c87578791610e1b575b506040516370a0823160e01b815230600482015287906020816024816001600160a01b038c165afa908115610ddb578291610de6575b50858110610c92575b50506040516370a0823160e01b81523060048201529490506020856024816001600160a01b0386165afa948515610c87578795610c53575b506040516370a0823160e01b8152306004820152926020846024816001600160a01b038b165afa938415610c48578894610c0f575b50818610610bb957848410610b655760405163095ea7b360e01b81527f00000000000000000000000000000000000000000000000000000000000000006001600160a01b0316600482015260248101839052602081806044810103818c6001600160a01b0389165af18015610b3b57610b46575b5060405163095ea7b360e01b81527f00000000000000000000000000000000000000000000000000000000000000006001600160a01b031660048201526024810186905290602082806044810103818c6001600160a01b038d165af1918215610b3b5761080592610b1c575b506108008388611e76565b611e76565b9081156109b25760038890556040519182528795610853926001600160a01b038516907f480ed265ba9142fb949fe7ff65880fe1244f8f4d6c80cfa8759f5d87e8d3bccf90602090a2611e76565b8061091c575b50506108659250611e76565b9081610877575b602060405160018152f35b60405163a9059cbb60e01b81526001600160a01b037f00000000000000000000000000000000000000000000000000000000000000008116600483015260248201939093529291602091849160449183918691165af190811561091057506108e1575b808061086c565b6109029060203d602011610909575b6108fa8183611c06565b810190611e83565b50386108da565b503d6108f0565b604051903d90823e3d90fd5b60405163a9059cbb60e01b81526001600160a01b037f000000000000000000000000000000000000000000000000000000000000000081166004830152602482019290925294602092869260449284929091165af19283156109a75761086593610988575b8593610859565b6109a09060203d602011610909576108fa8183611c06565b5038610981565b6040513d87823e3d90fd5b6109bd600354611f63565b7f8f112d5fa1bd402e65a01266ee77605e7eab3204fac5336580cab66a03b8914d608060405160408152601960408201527f4e65676174697665206172626974726167652070726f666974000000000000006060820152836020820152a16003811015610a9a5760405162461bcd60e51b815260206004820152604260248201527f41726269747261676520756e70726f66697461626c65202d20696e737566666960448201527f6369656e7420737072656164206f722065786365737369766520736c69707061606482015261676560f01b608482015260a490fd5b60207fd0ca21e9326df06d11abee438088c4a3b9e87ce126ba6b8f0621013e78c568af91604051908152a160405162461bcd60e51b815260206004820152602960248201527f4b696c6c2053776974636820747269676765726564202d2033206661696c656460448201526820617474656d70747360b81b6064820152608490fd5b610b349060203d602011610909576108fa8183611c06565b50386107f5565b6040513d8b823e3d90fd5b610b5e9060203d602011610909576108fa8183611c06565b5038610789565b60405162461bcd60e51b815260206004820152602660248201527f496e73756666696369656e74206761732062616c616e636520666f7220726570604482015265185e5b595b9d60d21b6064820152608490fd5b60405162461bcd60e51b815260206004820152602860248201527f496e73756666696369656e742074726164652062616c616e636520666f722072604482015267195c185e5b595b9d60c21b6064820152608490fd5b9093506020813d602011610c40575b81610c2b60209383611c06565b81010312610c3b57519238610715565b600080fd5b3d9150610c1e565b6040513d8a823e3d90fd5b9094506020813d602011610c7f575b81610c6f60209383611c06565b81010312610c3b575193386106e0565b3d9150610c62565b6040513d89823e3d90fd5b610c9c9086611e76565b60405163095ea7b360e01b815273a5e0829caced8ffdd4de3c43696c57f7d7a678ff60048201526024810193909352602083604481856001600160a01b0389165af1928315610ddb57610d5e93610dbc575b5060405190610cfc82611bd4565b6002825260403660208401376001600160a01b038516610d1b83611d9d565b526001600160a01b038916610d2f83611daa565b5260405193849283926338ed173960e01b8452600484015284602484015260a0604484015260a4830190611dce565b30606483015261012c4201608483015203818373a5e0829caced8ffdd4de3c43696c57f7d7a678ff5af18015610c8757610d9a575b86816106a8565b610db5903d8089833e610dad8183611c06565b810190611eae565b5038610d93565b610dd49060203d602011610909576108fa8183611c06565b5038610cee565b6040513d84823e3d90fd5b9150506020813d602011610e13575b81610e0260209383611c06565b81010312610c3b578790513861069f565b3d9150610df5565b90506020813d602011610e45575b81610e3660209383611c06565b81010312610c3b575138610669565b3d9150610e29565b634e487b7160e01b89526011600452602489fd5b610e7591503d808a833e610dad8183611c06565b386105c8565b610e939060203d602011610909576108fa8183611c06565b503861052c565b634e487b7160e01b8a52601160045260248afd5b610ec291503d808b833e610dad8183611c06565b38610468565b610ee09060203d602011610909576108fa8183611c06565b50386103b9565b50732791bca1f2de4661ed88a30c99a7a9449aa8417461036d565b506020813d602011610f2e575b81610f1c60209383611c06565b81010312610c3b576103469051610339565b3d9150610f0f565b634e487b7160e01b86526032600452602486fd5b634e487b7160e01b87526032600452602487fd5b60405162461bcd60e51b815260206004820152602660248201527f4b696c6c2053776974636820616374697665202d206f7065726174696f6e20626044820152651b1bd8dad95960d21b6064820152608490fd5b60405162461bcd60e51b815260206004820152601860248201527f43616c6c6572206d757374206265204161766520506f6f6c00000000000000006044820152606490fd5b8780fd5b8680fd5b8480fd5b8280fd5b503461012257604036600319011261012257600254602435906004359061104390336001600160a01b0391821614908115611103575b50611f72565b808211156110d7576110558183611e76565b90612710918281029281840414901517156110c35780156110ad577f16e812c03e46720953cef9af093f36f5c56311c55ae93b1eb127561aef6b0cf7928160609304905b60405192835260208301526040820152a180f35b634e487b7160e01b600052601260045260246000fd5b634e487b7160e01b84526011600452602484fd5b6060907f16e812c03e46720953cef9af093f36f5c56311c55ae93b1eb127561aef6b0cf7928490611099565b90507f00000000000000000000000000000000000000000000000000000000000000001633143861103d565b50346101225780600319360112610122576040517f00000000000000000000000000000000000000000000000000000000000000006001600160a01b03168152602090f35b5034610122576020806003193601126112ce5761118f611d00565b7f0000000000000000000000000000000000000000000000000000000000000000906001600160a01b03906111c73383851614611d47565b16604051916370a0823160e01b83523060048401528383602481855afa9283156109a757859361129f575b5082156112625760405163a9059cbb60e01b81526001600160a01b03919091166004820152602481019290925282908290604490829087905af180156112575761123a578280f35b8161125092903d10610909576108fa8183611c06565b5038808280f35b6040513d85823e3d90fd5b60405162461bcd60e51b81526004810185905260156024820152744e6f20746f6b656e7320746f20776974686472617760581b6044820152606490fd5b9092508381813d83116112c7575b6112b78183611c06565b81010312610c3b575191386111f2565b503d6112ad565b5080fd5b50346101225780600319360112610122576040517f00000000000000000000000000000000000000000000000000000000000000006001600160a01b03168152602090f35b50346101225780600319360112610122576020600154604051908152f35b5034610122576003196080368201126112ce57611350611d00565b906001600160a01b036044358181169290839003610fff57611395827f0000000000000000000000000000000000000000000000000000000000000000163314611d47565b60ff60045416611553578492604051946113ae86611bd4565b600286526040366020880137836113c487611d9d565b911690526113d185611daa565b52604051936113df85611bd4565b6002855260403660208701376024356113f786611d9d565b5260643561140486611daa565b526040519261141284611bd4565b6002845260403660208601378461142885611d9d565b528461143385611daa565b527f2494a915d576b32d2d414c253b041f04e4be248421bd2a389d8dd8acd08c6a6f604051604081528061147b61146d6040830187611dce565b82810360208401528a611e0b565b0390a17f00000000000000000000000000000000000000000000000000000000000000001691823b15610fff5760208591826115006114e0976114f06040519b8c9a8b9963ab9c4b5d60e01b8b523060048c015260e060248c015260e48b0190611dce565b90868a83030160448b0152611e0b565b9084888303016064890152611e0b565b30608487015285810392830160a4870152528260c485015201925af18015610ddb5761152a575080f35b67ffffffffffffffff811161153f5760405280f35b634e487b7160e01b82526041600452602482fd5b60405162461bcd60e51b815260206004820152602360248201527f4b696c6c2053776974636820616374697661746564202d20626f742073746f706044820152621c195960ea1b6064820152608490fd5b50346101225760209081600319360112610122576004356006548110156112ce576115ce90611c79565b61169b5760405190828482546115e381611cc6565b92838652828601946001928381169081600014611679575060011461163e575b8360408888611614828d0383611c06565b6116308351948593818552519283809286015285850190611c28565b601f01601f19168101030190f35b908094939750528583205b828410611666575050508201909201916116148460408438611603565b8054868501880152928601928101611649565b60ff191687525050505090151560051b83010192506116148460408438611603565b634e487b7160e01b82526004829052602482fd5b50346101225760203660031901126101225760043567ffffffffffffffff81116112ce576116e1903690600401611c4b565b60025491929161170590336001600160a01b03918216149081156111035750611f72565b6040518184823760208183810160058152030190206117248154611f63565b9055600692600a84541060001461177a5783549368010000000000000000851015611766578461175d9160016117639697019055611c79565b906120ea565b80f35b634e487b7160e01b84526041600452602484fd5b908293925b835460001981019081116117e2578110156117f657600181018082116117e2576117a890611c79565b506117b282611c79565b6117ce576117c992916117c49161200b565b611f63565b61177f565b634e487b7160e01b87526004879052602487fd5b634e487b7160e01b86526011600452602486fd5b50915460001981019392919084116118155761175d6117639394611c79565b634e487b7160e01b83526011600452602483fd5b5034610122578060031936011261012257602060ff600454166040519015158152f35b5034610122576020366003190112610122577f185daf617c465de5e0042f7aae1503b1a216ea8927cacf296e58b516e82afea860a06004356118a1600180841b03806002541633149081156111035750611f72565b6001549080600155604051916060835260126060840152711b5a5b941c9bd99a5d151a1c995cda1bdb1960721b608084015260208301526040820152a180f35b5034610122578060031936011261012257611926337f00000000000000000000000000000000000000000000000000000000000000006001600160a01b031614611d47565b60045460ff8116156119405760ff19166004558060035580f35b60405162461bcd60e51b815260206004820152601960248201527f4b696c6c20537769746368206973206e6f7420616374697665000000000000006044820152606490fd5b5034610122576020366003190112610122576004358015158091036112ce576119d8337f00000000000000000000000000000000000000000000000000000000000000006001600160a01b031614611d47565b6002805460ff60a01b191660a09290921b60ff60a01b1691909117905580f35b50346101225760203660031901126101225760025460043590611a2f90336001600160a01b03918216149081156111035750611f72565b61038481101580611ae6575b15611aa15760a07f185daf617c465de5e0042f7aae1503b1a216ea8927cacf296e58b516e82afea89183549080855560405191606083526011606084015270736c697070616765546f6c6572616e636560781b608084015260208301526040820152a180f35b60405162461bcd60e51b815260206004820152601a60248201527f496e76616c696420736c697070616765202839302d31303025290000000000006044820152606490fd5b506103e8811115611a3b565b50346101225780600319360112610122576040517f00000000000000000000000000000000000000000000000000000000000000006001600160a01b03168152602090f35b823461012257602091826003193601126112ce576004359167ffffffffffffffff8084116112ce57366023850112156112ce57836004013590811161153f57611b89601f8201601f1916860184611c06565b808352848301933660248383010111611003579185828195936024611bc1989601863783010152604051938492839251928391611c28565b8101600581520301902054604051908152f35b6060810190811067ffffffffffffffff821117611bf057604052565b634e487b7160e01b600052604160045260246000fd5b90601f8019910116810190811067ffffffffffffffff821117611bf057604052565b60005b838110611c3b5750506000910152565b8181015183820152602001611c2b565b9181601f84011215610c3b5782359167ffffffffffffffff8311610c3b5760208381860195010111610c3b57565b600654811015611cb05760066000527ff652222313e28459528d920b65115c16c04f3efc82aaedc97be59f3f377c0d3f0190600090565b634e487b7160e01b600052603260045260246000fd5b90600182811c92168015611cf6575b6020831014611ce057565b634e487b7160e01b600052602260045260246000fd5b91607f1691611cd5565b600435906001600160a01b0382168203610c3b57565b9181601f84011215610c3b5782359167ffffffffffffffff8311610c3b576020808501948460051b010111610c3b57565b15611d4e57565b60405162461bcd60e51b815260206004820152602160248201527f4f6e6c7920636f6e7472616374206f776e65722063616e2063616c6c207468696044820152607360f81b6064820152608490fd5b805115611cb05760200190565b805160011015611cb05760400190565b8051821015611cb05760209160051b010190565b90815180825260208080930193019160005b828110611dee575050505090565b83516001600160a01b031685529381019392810192600101611de0565b90815180825260208080930193019160005b828110611e2b575050505090565b835185529381019392810192600101611e1d565b356001600160a01b0381168103610c3b5790565b91908201809211611e6057565b634e487b7160e01b600052601160045260246000fd5b91908203918211611e6057565b90816020910312610c3b57518015158103610c3b5790565b81810292918115918404141715611e6057565b906020908183820312610c3b57825167ffffffffffffffff93848211610c3b570181601f82011215610c3b578051938411611bf0578360051b9060405194611ef885840187611c06565b85528380860192820101928311610c3b578301905b828210611f1b575050505090565b81518152908301908301611f0d565b9192608093611f4f92979695978452602084015260a0604084015260a0830190611dce565b6001600160a01b0390951660608201520152565b6000198114611e605760010190565b15611f7957565b60405162461bcd60e51b815260206004820152601660248201527527b7363c903bb0ba31b43237b39037b91037bbb732b960511b6044820152606490fd5b90601f8111611fc557505050565b600091825260208220906020601f850160051c83019410612001575b601f0160051c01915b828110611ff657505050565b818155600101611fea565b9092508290611fe1565b908082146120e65761201d8154611cc6565b9067ffffffffffffffff8211611bf05781906120438261203d8654611cc6565b86611fb7565b600090601f831160011461207a5760009261206f575b50508160011b916000199060031b1c1916179055565b015490503880612059565b81526020808220858352818320935090601f1985169083905b8282106120cd5750509084600195949392106120b4575b505050811b019055565b015460001960f88460031b161c191690553880806120aa565b8495819295850154815560018091019601940190612093565b5050565b919392906121b15767ffffffffffffffff8111611bf0576121158161210f8454611cc6565b84611fb7565b6000601f821160011461214e57819293946000926121435750508160011b916000199060031b1c1916179055565b013590503880612059565b601f198216948382526020918281209281905b8882106121995750508360019596971061217f57505050811b019055565b0135600019600384901b60f8161c191690553880806120aa565b80600184968294958701358155019501920190612161565b634e487b7160e01b600052600060045260246000fdfea26469706673582212202817b23100f5f6b9896776282e615a0d50effb7b7e2c80380d57cf7d48415a2464736f6c63430008140033",
  "linkReferences": {},
  "deployedLinkReferences": {}
}