{
  "_format": "hh3-artifact-1",
  "contractName": "AfetiDevranArbitrage",
  "sourceName": "contracts/AfetiDevranArbitrage.sol",
  "abi": [
    {
      "inputs": [
        {
          "internalType": "address",
          "name": "_addressesProvider",
          "type": "address"
        }
      ],
      "stateMutability": "nonpayable",
      "type": "constructor"
    },
    {
      "anonymous": false,
      "inputs": [
        {
          "indexed": false,
          "internalType": "uint256",
          "name": "netKar",
          "type": "uint256"
        },
        {
          "indexed": true,
          "internalType": "address",
          "name": "asset",
          "type": "address"
        }
      ],
      "name": "ArbitrajBasarili",
      "type": "event"
    },
    {
      "anonymous": false,
      "inputs": [
        {
          "indexed": false,
          "internalType": "address[]",
          "name": "assets",
          "type": "address[]"
        },
        {
          "indexed": false,
          "internalType": "uint256[]",
          "name": "amounts",
          "type": "uint256[]"
        }
      ],
      "name": "MultiFlashLoanBaslatildi",
      "type": "event"
    },
    {
      "anonymous": false,
      "inputs": [
        {
          "indexed": false,
          "internalType": "string",
          "name": "borsa",
          "type": "string"
        },
        {
          "indexed": false,
          "internalType": "uint256",
          "name": "girisMiktar",
          "type": "uint256"
        },
        {
          "indexed": false,
          "internalType": "uint256",
          "name": "cikisMiktar",
          "type": "uint256"
        }
      ],
      "name": "TakasGerceklesti",
      "type": "event"
    },
    {
      "inputs": [],
      "name": "ADDRESSES_PROVIDER",
      "outputs": [
        {
          "internalType": "contract IPoolAddressesProvider",
          "name": "",
          "type": "address"
        }
      ],
      "stateMutability": "view",
      "type": "function"
    },
    {
      "inputs": [],
      "name": "POOL",
      "outputs": [
        {
          "internalType": "contract IPool",
          "name": "",
          "type": "address"
        }
      ],
      "stateMutability": "view",
      "type": "function"
    },
    {
      "inputs": [
        {
          "internalType": "address",
          "name": "tradeAsset",
          "type": "address"
        },
        {
          "internalType": "uint256",
          "name": "tradeAmount",
          "type": "uint256"
        },
        {
          "internalType": "address",
          "name": "gasAsset",
          "type": "address"
        },
        {
          "internalType": "uint256",
          "name": "gasAmount",
          "type": "uint256"
        }
      ],
      "name": "executeMultiFlashLoan",
      "outputs": [],
      "stateMutability": "nonpayable",
      "type": "function"
    },
    {
      "inputs": [
        {
          "internalType": "address[]",
          "name": "assets",
          "type": "address[]"
        },
        {
          "internalType": "uint256[]",
          "name": "amounts",
          "type": "uint256[]"
        },
        {
          "internalType": "uint256[]",
          "name": "premiums",
          "type": "uint256[]"
        },
        {
          "internalType": "address",
          "name": "initiator",
          "type": "address"
        },
        {
          "internalType": "bytes",
          "name": "params",
          "type": "bytes"
        }
      ],
      "name": "executeOperation",
      "outputs": [
        {
          "internalType": "bool",
          "name": "",
          "type": "bool"
        }
      ],
      "stateMutability": "nonpayable",
      "type": "function"
    },
    {
      "inputs": [],
      "name": "owner",
      "outputs": [
        {
          "internalType": "address",
          "name": "",
          "type": "address"
        }
      ],
      "stateMutability": "view",
      "type": "function"
    },
    {
      "inputs": [
        {
          "internalType": "address",
          "name": "token",
          "type": "address"
        }
      ],
      "name": "withdrawToken",
      "outputs": [],
      "stateMutability": "nonpayable",
      "type": "function"
    }
  ],
  "bytecode": "0x60e08060405234620001705762001625803803809162000020828562000174565b83396001600160a01b039182916200003c9190810190620001ac565b1680156200011c576020600491336080528060a0526040519283809263026b1d5f60e01b82525afa90811562000111575f91620000dc575b501660c0526040516114579081620001ce82396080518181816106b10152818161075601528181610d1b01528181610d670152610f3f015260a05181611130015260c0518181816101070152818161059e0152818161060401528181610ed601526110450152f35b62000102915060203d811162000109575b620000f9818362000174565b810190620001ac565b5f62000074565b503d620000ed565b6040513d5f823e3d90fd5b60405162461bcd60e51b815260206004820152602660248201527f416665746944657672616e3a20476563657273697a207361676c61796963692060448201526561647265736960d01b6064820152608490fd5b5f80fd5b601f909101601f19168101906001600160401b038211908210176200019857604052565b634e487b7160e01b5f52604160045260245ffd5b908160209103126200017057516001600160a01b038116810362000170579056fe6080806040526004361015610012575f80fd5b5f90813560e01c9081630542975c1461111c575080636ac5905714610f055780637535d24614610ec05780638947606914610d4a5780638da5cb5b14610d055763920f5c8414610060575f80fd5b34610d025760a0366003190112610d025767ffffffffffffffff600435818111610cfe57610092903690600401611175565b602435838111610cfa576100aa903690600401611175565b93604435818111610cf2576100c3903690600401611175565b9490916064356001600160a01b0381160361098a5760843590808211610cf65736602383011215610cf6578160040135908111610cf65736910160240111610cf2577f00000000000000000000000000000000000000000000000000000000000000006001600160a01b03163303610c8f578315610c7b5761014481611312565b9360011015610c7b5760206101599101611312565b948015610c7b5760011015610c67578315610c675761017a81358335611326565b9360011015610c675760206101959101356020830135611326565b6040516370a0823160e01b81523060048201529092906020816024816001600160a01b0386165afa80156109d3578790610c33575b6101d79150833590611347565b91737ceb23fd6bc0add59e62ac25578270cff1b9f6196001600160a01b0383168114610c18575b60405163095ea7b360e01b815273a5e0829caced8ffdd4de3c43696c57f7d7a678ff6004820152823560248201526020816044818c6001600160a01b0389165af1801561087d57610bf9575b506040516102578161120c565b6002815260403660208301376001600160a01b0384166102768261125e565b526102808161127f565b6001600160a01b03831690524261012c810110610b7e57886102c091604051809381926338ed173960e01b835261012c42019030908935600486016113e8565b03818373a5e0829caced8ffdd4de3c43696c57f7d7a678ff5af190811561087d578991610bdf575b508051805f19810111610bcb576103267f396574f04db72fa9c597075aa4372d8627152b3bc1012d3561770a12479d63959260a0925f19019061128f565b5193604051906060825260096060830152680517569636b537761760bc1b6080830152356020820152846040820152a160405163095ea7b360e01b8152731b02da8cb0d097eb8d57a175b88c7d8b47997506600482015260248101839052908890602083604481856001600160a01b0386165af1928315610b0c5761040e93610bac575b50604051906103b88261120c565b6002825260403660208401376001600160a01b03166103d68261125e565b526001600160a01b0385166103ea8261127f565b52604051809381926338ed173960e01b835261012c420190309088600486016113e8565b038183731b02da8cb0d097eb8d57a175b88c7d8b479975065af1908115610996578891610b92575b508051805f19810111610b7e579161047560a0927f396574f04db72fa9c597075aa4372d8627152b3bc1012d3561770a12479d6395945f19019061128f565b516040519160608352600960608401526805375736869537761760bc1b608084015260208301526040820152a16040516370a0823160e01b81523060048201526020816024816001600160a01b0386165afa9081156109d3578791610b4c575b506040516370a0823160e01b815230600482015287906020816024816001600160a01b038c165afa908115610b0c578291610b17575b508581106109de575b50506040516370a0823160e01b815230600482015290506020816024816001600160a01b0386165afa9081156109d35787916109a1575b506040516370a0823160e01b8152306004820152926020846024816001600160a01b038b165afa93841561099657889461095e575b50858210610901578484106108a75760405163095ea7b360e01b81527f00000000000000000000000000000000000000000000000000000000000000006001600160a01b0316600482015260248101879052602081806044810103818c6001600160a01b0389165af1801561087d57610888575b5060405163095ea7b360e01b81527f00000000000000000000000000000000000000000000000000000000000000006001600160a01b0316600482015260248101869052602081806044810103818c6001600160a01b038d165af1801561087d5761085e575b506106658683611347565b11156107d557869461067691611347565b8061073f575b50506106889250611347565b908161069a575b602060405160018152f35b60405163a9059cbb60e01b81526001600160a01b037f00000000000000000000000000000000000000000000000000000000000000008116600483015260248201939093529291602091849160449183918691165af19081156107335750610704575b808061068f565b6107259060203d60201161072c575b61071d818361123c565b810190611354565b505f6106fd565b503d610713565b604051903d90823e3d90fd5b60405163a9059cbb60e01b81526001600160a01b037f000000000000000000000000000000000000000000000000000000000000000081166004830152602482019290925294602092869260449284929091165af19283156107ca57610688936107ab575b859361067c565b6107c39060203d60201161072c5761071d818361123c565b505f6107a4565b6040513d87823e3d90fd5b60405162461bcd60e51b815260206004820152605560248201527f564535204b4f52554d4153493a2047617a20766520626f72636c61722064757360448201527f74756b74656e20736f6e7261206b617a616e63207361676c616e616d6164696760648201527469206963696e20726576657274206564696c64692160581b608482015260a490fd5b6108769060203d60201161072c5761071d818361123c565b505f61065a565b6040513d8b823e3d90fd5b6108a09060203d60201161072c5761071d818361123c565b505f6105f4565b60405162461bcd60e51b815260206004820152602c60248201527f416665746944657672616e3a2047617320626f72632067657269206f64656d6560448201526b736920796574657273697a2160a01b6064820152608490fd5b60405162461bcd60e51b815260206004820152602f60248201527f416665746944657672616e3a2054696361726920626f72632067657269206f6460448201526e656d65736920796574657273697a2160881b6064820152608490fd5b9093506020813d60201161098e575b8161097a6020938361123c565b8101031261098a5751925f610580565b5f80fd5b3d915061096d565b6040513d8a823e3d90fd5b90506020813d6020116109cb575b816109bc6020938361123c565b8101031261098a57515f61054b565b3d91506109af565b6040513d89823e3d90fd5b6109e89086611347565b60405163095ea7b360e01b815273a5e0829caced8ffdd4de3c43696c57f7d7a678ff60048201526024810193909352602083604481856001600160a01b0389165af1928315610b0c57610a9f93610aed575b5060405190610a488261120c565b6002825260403660208401376001600160a01b038516610a678361125e565b526001600160a01b038916610a7b8361127f565b526040516338ed173960e01b815293849283924261012c01913091600486016113e8565b03818373a5e0829caced8ffdd4de3c43696c57f7d7a678ff5af180156109d357610acb575b8681610514565b610ae6903d8089833e610ade818361123c565b81019061136c565b505f610ac4565b610b059060203d60201161072c5761071d818361123c565b505f610a3a565b6040513d84823e3d90fd5b9150506020813d602011610b44575b81610b336020938361123c565b8101031261098a578790515f61050b565b3d9150610b26565b90506020813d602011610b76575b81610b676020938361123c565b8101031261098a57515f6104d5565b3d9150610b5a565b634e487b7160e01b89526011600452602489fd5b610ba691503d808a833e610ade818361123c565b5f610436565b610bc49060203d60201161072c5761071d818361123c565b505f6103aa565b634e487b7160e01b8a52601160045260248afd5b610bf391503d808b833e610ade818361123c565b5f6102e8565b610c119060203d60201161072c5761071d818361123c565b505f61024a565b50732791bca1f2de4661ed88a30c99a7a9449aa841746101fe565b506020813d602011610c5f575b81610c4d6020938361123c565b8101031261098a576101d790516101ca565b3d9150610c40565b634e487b7160e01b86526032600452602486fd5b634e487b7160e01b87526032600452602487fd5b60405162461bcd60e51b815260206004820152603560248201527f416665746944657672616e3a20546574696b6c6579696369207361646563652060448201527420b0bb32902430bb3abd3a9037b636b0b634b234b960591b6064820152608490fd5b8680fd5b8880fd5b8480fd5b8280fd5b80fd5b5034610d025780600319360112610d02576040517f00000000000000000000000000000000000000000000000000000000000000006001600160a01b03168152602090f35b5034610d0257602080600319360112610ebc57610d6561115f565b7f0000000000000000000000000000000000000000000000000000000000000000906001600160a01b0390610d9d33838516146111a6565b16604051916370a0823160e01b83523060048401528383602481855afa9283156107ca578593610e8d575b508215610e385760405163a9059cbb60e01b81526001600160a01b03919091166004820152602481019290925282908290604490829087905af18015610e2d57610e10578280f35b81610e2692903d1061072c5761071d818361123c565b505f808280f35b6040513d85823e3d90fd5b60405162461bcd60e51b815260048101859052602760248201527f416665746944657672616e3a2043656b696c6563656b20746f6b656e2062756c604482015266756e616d61646960c81b6064820152608490fd5b9092508381813d8311610eb5575b610ea5818361123c565b8101031261098a5751915f610dc8565b503d610e9b565b5080fd5b5034610d025780600319360112610d02576040517f00000000000000000000000000000000000000000000000000000000000000006001600160a01b03168152602090f35b5034610d0257600319608036820112610ebc5781610f2161115f565b916001600160a01b03906044358281169081900361111857610f66837f00000000000000000000000000000000000000000000000000000000000000001633146111a6565b60405194610f738661120c565b60028652604036602088013783610f898761125e565b91169052610f968561127f565b5260405193610fa48561120c565b600285526040366020870137602435610fbc8661125e565b52606435610fc98661127f565b5260405192610fd78461120c565b60028452604036602086013784610fed8561125e565b5284610ff88561127f565b527f7210c49ec4f1ed8d7a0afd13ebac9bb3aed991101f77ac40923e9fcf6a086774604051604081528061104061103260408301876112a3565b82810360208401528a6112df565b0390a17f00000000000000000000000000000000000000000000000000000000000000001691823b15610cfa5760208591826110c56110a5976110b56040519b8c9a8b9963ab9c4b5d60e01b8b523060048c015260e060248c015260e48b01906112a3565b90868a83030160448b01526112df565b90848883030160648901526112df565b30608487015285810392830160a4870152528260c485015201925af18015610b0c576110ef575080f35b67ffffffffffffffff81116111045760405280f35b634e487b7160e01b82526041600452602482fd5b8380fd5b905034610ebc5781600319360112610ebc577f00000000000000000000000000000000000000000000000000000000000000006001600160a01b03168152602090f35b600435906001600160a01b038216820361098a57565b9181601f8401121561098a5782359167ffffffffffffffff831161098a576020808501948460051b01011161098a57565b156111ad57565b60405162461bcd60e51b815260206004820152603160248201527f416665746944657672616e3a20536164656365206b6f6e7472617420736168696044820152703134903a32ba34b5b632bcb2b134b634b960791b6064820152608490fd5b6060810190811067ffffffffffffffff82111761122857604052565b634e487b7160e01b5f52604160045260245ffd5b90601f8019910116810190811067ffffffffffffffff82111761122857604052565b80511561126b5760200190565b634e487b7160e01b5f52603260045260245ffd5b80516001101561126b5760400190565b805182101561126b5760209160051b010190565b9081518082526020808093019301915f5b8281106112c2575050505090565b83516001600160a01b0316855293810193928101926001016112b4565b9081518082526020808093019301915f5b8281106112fe575050505090565b8351855293810193928101926001016112f0565b356001600160a01b038116810361098a5790565b9190820180921161133357565b634e487b7160e01b5f52601160045260245ffd5b9190820391821161133357565b9081602091031261098a5751801515810361098a5790565b90602090818382031261098a57825167ffffffffffffffff9384821161098a570181601f8201121561098a578051938411611228578360051b90604051946113b68584018761123c565b8552838086019282010192831161098a578301905b8282106113d9575050505090565b815181529083019083016113cb565b9060809261140d919695949683525f602084015260a0604084015260a08301906112a3565b6001600160a01b039095166060820152015256fea2646970667358221220a3378357fb735485c82f9034a541b168250e623aa34321f6f911b1682fbf6b6f64736f6c63430008140033",
  "linkReferences": {},
  "deployedLinkReferences": {},
  "immutableReferences": {
    "165": [
      {
        "length": 32,
        "start": 1713
      },
      {
        "length": 32,
        "start": 1878
      },
      {
        "length": 32,
        "start": 3355
      },
      {
        "length": 32,
        "start": 3431
      },
      {
        "length": 32,
        "start": 3903
      }
    ],
    "169": [
      {
        "length": 32,
        "start": 4400
      }
    ],
    "173": [
      {
        "length": 32,
        "start": 263
      },
      {
        "length": 32,
        "start": 1438
      },
      {
        "length": 32,
        "start": 1540
      },
      {
        "length": 32,
        "start": 3798
      },
      {
        "length": 32,
        "start": 4165
      }
    ]
  },
  "inputSourceName": "project/contracts/AfetiDevranArbitrage.sol",
  "buildInfoId": "solc-0_8_20-d0867e62272c77a1b25c23ddffda9607bf9e0018"
}