{
  "_format": "hh-sol-artifact-1",
  "contractName": "AfetiDevranArbitrage",
  "sourceName": "contracts/AfetiDevranArbitrage.sol",
  "abi": [
    {
      "inputs": [],
      "stateMutability": "nonpayable",
      "type": "constructor"
    },
    {
      "anonymous": false,
      "inputs": [
        {
          "indexed": false,
          "internalType": "uint256",
          "name": "netProfit",
          "type": "uint256"
        },
        {
          "indexed": true,
          "internalType": "address",
          "name": "asset",
          "type": "address"
        }
      ],
      "name": "ArbitrageSuccess",
      "type": "event"
    },
    {
      "anonymous": false,
      "inputs": [
        {
          "indexed": false,
          "internalType": "string",
          "name": "reason",
          "type": "string"
        },
        {
          "indexed": false,
          "internalType": "uint256",
          "name": "attemptNumber",
          "type": "uint256"
        }
      ],
      "name": "FailureLogged",
      "type": "event"
    },
    {
      "anonymous": false,
      "inputs": [
        {
          "indexed": false,
          "internalType": "uint256",
          "name": "failureCount",
          "type": "uint256"
        }
      ],
      "name": "KillSwitchActivated",
      "type": "event"
    },
    {
      "anonymous": false,
      "inputs": [
        {
          "indexed": false,
          "internalType": "address[]",
          "name": "assets",
          "type": "address[]"
        },
        {
          "indexed": false,
          "internalType": "uint256[]",
          "name": "amounts",
          "type": "uint256[]"
        }
      ],
      "name": "MultiFlashLoanInitiated",
      "type": "event"
    },
    {
      "anonymous": false,
      "inputs": [
        {
          "indexed": false,
          "internalType": "string",
          "name": "exchange",
          "type": "string"
        },
        {
          "indexed": false,
          "internalType": "uint256",
          "name": "inputAmount",
          "type": "uint256"
        },
        {
          "indexed": false,
          "internalType": "uint256",
          "name": "outputAmount",
          "type": "uint256"
        }
      ],
      "name": "SwapExecuted",
      "type": "event"
    },
    {
      "inputs": [],
      "name": "ADDRESSES_PROVIDER",
      "outputs": [
        {
          "internalType": "contract IPoolAddressesProvider",
          "name": "",
          "type": "address"
        }
      ],
      "stateMutability": "view",
      "type": "function"
    },
    {
      "inputs": [],
      "name": "POOL",
      "outputs": [
        {
          "internalType": "contract IPool",
          "name": "",
          "type": "address"
        }
      ],
      "stateMutability": "view",
      "type": "function"
    },
    {
      "inputs": [
        {
          "internalType": "address",
          "name": "tradeAsset",
          "type": "address"
        },
        {
          "internalType": "uint256",
          "name": "tradeAmount",
          "type": "uint256"
        },
        {
          "internalType": "address",
          "name": "gasAsset",
          "type": "address"
        },
        {
          "internalType": "uint256",
          "name": "gasAmount",
          "type": "uint256"
        }
      ],
      "name": "executeMultiFlashLoan",
      "outputs": [],
      "stateMutability": "nonpayable",
      "type": "function"
    },
    {
      "inputs": [
        {
          "internalType": "address[]",
          "name": "assets",
          "type": "address[]"
        },
        {
          "internalType": "uint256[]",
          "name": "amounts",
          "type": "uint256[]"
        },
        {
          "internalType": "uint256[]",
          "name": "premiums",
          "type": "uint256[]"
        },
        {
          "internalType": "address",
          "name": "initiator",
          "type": "address"
        },
        {
          "internalType": "bytes",
          "name": "params",
          "type": "bytes"
        }
      ],
      "name": "executeOperation",
      "outputs": [
        {
          "internalType": "bool",
          "name": "",
          "type": "bool"
        }
      ],
      "stateMutability": "nonpayable",
      "type": "function"
    },
    {
      "inputs": [],
      "name": "isStopped",
      "outputs": [
        {
          "internalType": "bool",
          "name": "",
          "type": "bool"
        }
      ],
      "stateMutability": "view",
      "type": "function"
    },
    {
      "inputs": [],
      "name": "owner",
      "outputs": [
        {
          "internalType": "address",
          "name": "",
          "type": "address"
        }
      ],
      "stateMutability": "view",
      "type": "function"
    },
    {
      "inputs": [],
      "name": "resetKillSwitch",
      "outputs": [],
      "stateMutability": "nonpayable",
      "type": "function"
    },
    {
      "inputs": [
        {
          "internalType": "address",
          "name": "token",
          "type": "address"
        }
      ],
      "name": "withdrawToken",
      "outputs": [],
      "stateMutability": "nonpayable",
      "type": "function"
    }
  ],
  "bytecode": "0x60e080604052346100b2576000805560ff19600154166001553360805273a97684ead0e402dc232d5a524153d7b0b733b4e360a05273794a61358d6845594f94dc1db02a252b5b4814ad60c05261175490816100b8823960805181818161075d0152818161080201528181610f1a01528181610f66015281816111250152611395015260a05181611435015260c051818181610125015281816106030152818161066c015281816110bd01526112370152f35b600080fdfe608080604052600436101561001357600080fd5b600090813560e01c9081630542975c1461142157508063393c412c1461137e5780633f683b6a1461135b5780636ac59057146110ec5780637535d246146110a75780638947606914610f495780638da5cb5b14610f045763920f5c841461007957600080fd5b34610f015760a0366003190112610f015767ffffffffffffffff600435818111610efd576100ab90369060040161147a565b602492919235828111610ef9576100c690369060040161147a565b939092604435818111610ef1576100e190369060040161147a565b9290916064356001600160a01b03811603610b235760843590808211610ef55736602383011215610ef5578160040135908111610ef55736910160240111610ef1577f00000000000000000000000000000000000000000000000000000000000000006001600160a01b03163303610eac5760ff60015416610e58578315610e445761016c8161160d565b9360011015610e44576020610181910161160d565b948015610e445760011015610e30578115610e30576101a281358535611621565b9160011015610e305760206101bd9101356020850135611621565b6040516370a0823160e01b81523060048201529092906020816024816001600160a01b0386165afa8015610b62578790610dfc575b6101ff9150853590611644565b93737ceb23fd6bc0add59e62ac25578270cff1b9f6196001600160a01b0383168114610de1575b60405163095ea7b360e01b815273a5e0829caced8ffdd4de3c43696c57f7d7a678ff6004820152823560248201526020816044818c6001600160a01b0389165af18015610d8957610dc2575b5060405161027f81611501565b6002815260403660208301376001600160a01b03841661029e82611555565b526102a881611578565b6001600160a01b03831690524261012c810110610d285782356103e3843502046103e3148335151715610d28578861030891604051809381926338ed173960e01b835261012c42019030906103e86103e38b3502048a35600487016116e5565b03818373a5e0829caced8ffdd4de3c43696c57f7d7a678ff5af1908115610d89578991610da8575b50805180600019810111610d94576103707f1aa376f6c3660ad1294c58a3a8ebee1be7c326c3c8a9c3d2ed91f3e7c8167a2a9260a0926000190190611588565b5193604051906060825260096060830152680517569636b537761760bc1b6080830152356020820152846040820152a160405163095ea7b360e01b8152731b02da8cb0d097eb8d57a175b88c7d8b479975066004820152602481018390526020816044818c6001600160a01b0387165af18015610d8957610d6a575b50604051906103fa82611501565b6002825260403660208401376001600160a01b031661041882611555565b526001600160a01b03831661042c82611578565b52816103e38102046103e31482151715610d56578761047191604051809381926338ed173960e01b835261012c42019030906103e86103e38a020489600487016116e5565b038183731b02da8cb0d097eb8d57a175b88c7d8b479975065af1908115610a23578891610d3c575b50805180600019810111610d2857916104da60a0927f1aa376f6c3660ad1294c58a3a8ebee1be7c326c3c8a9c3d2ed91f3e7c8167a2a946000190190611588565b516040519160608352600960608401526805375736869537761760bc1b608084015260208301526040820152a16040516370a0823160e01b81523060048201526020816024816001600160a01b0386165afa908115610b62578791610cf6575b506040516370a0823160e01b815230600482015287906020816024816001600160a01b038c165afa908115610cb6578291610cc1575b50858110610b6d575b50506040516370a0823160e01b815230600482015290506020816024816001600160a01b0386165afa908115610b62578791610b30575b506040516370a0823160e01b8152306004820152926020846024816001600160a01b038b165afa938415610a23578894610af7575b50808210610aa157848410610a4d5760405163095ea7b360e01b81527f00000000000000000000000000000000000000000000000000000000000000006001600160a01b0316600482015260248101829052889690602081806044810103818b6001600160a01b038a165af18015610a2357610a2e575b5060405163095ea7b360e01b81527f00000000000000000000000000000000000000000000000000000000000000006001600160a01b031660048201526024810187905290602082806044810103818b6001600160a01b038e165af1918215610a23576106d892610a04575b506106d38385611644565b611644565b91821561088157868055604051928352610722926001600160a01b038516907f480ed265ba9142fb949fe7ff65880fe1244f8f4d6c80cfa8759f5d87e8d3bccf90602090a2611644565b806107eb575b50506107349250611644565b9081610746575b602060405160018152f35b60405163a9059cbb60e01b81526001600160a01b037f00000000000000000000000000000000000000000000000000000000000000008116600483015260248201939093529291602091849160449183918691165af19081156107df57506107b0575b808061073b565b6107d19060203d6020116107d8575b6107c98183611533565b810190611651565b50386107a9565b503d6107bf565b604051903d90823e3d90fd5b60405163a9059cbb60e01b81526001600160a01b037f000000000000000000000000000000000000000000000000000000000000000081166004830152602482019290925294602092869260449284929091165af19283156108765761073493610857575b8593610728565b61086f9060203d6020116107d8576107c98183611533565b5038610850565b6040513d87823e3d90fd5b86548760001982146109f057600182017f8f112d5fa1bd402e65a01266ee77605e7eab3204fac5336580cab66a03b8914d608060405160408152601960408201527f4e65676174697665206172626974726167652070726f666974000000000000006060820152836020820152a1600381101561096e5760405162461bcd60e51b815260206004820152604260248201527f41726269747261676520756e70726f66697461626c65202d20696e737566666960448201527f6369656e7420737072656164206f722065786365737369766520736c69707061606482015261676560f01b608482015260a490fd5b60207fd0ca21e9326df06d11abee438088c4a3b9e87ce126ba6b8f0621013e78c568af91604051908152a160405162461bcd60e51b815260206004820152602960248201527f4b696c6c2053776974636820747269676765726564202d2033206661696c656460448201526820617474656d70747360b81b6064820152608490fd5b634e487b7160e01b81526011600452602490fd5b610a1c9060203d6020116107d8576107c98183611533565b50386106c8565b6040513d8a823e3d90fd5b610a469060203d6020116107d8576107c98183611533565b503861065c565b60405162461bcd60e51b815260206004820152602660248201527f496e73756666696369656e74206761732062616c616e636520666f7220726570604482015265185e5b595b9d60d21b6064820152608490fd5b60405162461bcd60e51b815260206004820152602860248201527f496e73756666696369656e742074726164652062616c616e636520666f722072604482015267195c185e5b595b9d60c21b6064820152608490fd5b9093506020813d602011610b28575b81610b1360209383611533565b81010312610b23575192386105e5565b600080fd5b3d9150610b06565b90506020813d602011610b5a575b81610b4b60209383611533565b81010312610b235751386105b0565b3d9150610b3e565b6040513d89823e3d90fd5b610b779086611644565b60405163095ea7b360e01b815273a5e0829caced8ffdd4de3c43696c57f7d7a678ff60048201526024810193909352602083604481856001600160a01b0389165af1928315610cb657610c3993610c97575b5060405190610bd782611501565b6002825260403660208401376001600160a01b038516610bf683611555565b526001600160a01b038916610c0a83611578565b5260405193849283926338ed173960e01b8452600484015284602484015260a0604484015260a483019061159c565b30606483015261012c4201608483015203818373a5e0829caced8ffdd4de3c43696c57f7d7a678ff5af18015610b6257610c75575b8681610579565b610c90903d8089833e610c888183611533565b810190611669565b5038610c6e565b610caf9060203d6020116107d8576107c98183611533565b5038610bc9565b6040513d84823e3d90fd5b9150506020813d602011610cee575b81610cdd60209383611533565b81010312610b235787905138610570565b3d9150610cd0565b90506020813d602011610d20575b81610d1160209383611533565b81010312610b2357513861053a565b3d9150610d04565b634e487b7160e01b89526011600452602489fd5b610d5091503d808a833e610c888183611533565b38610499565b634e487b7160e01b88526011600452602488fd5b610d829060203d6020116107d8576107c98183611533565b50386103ec565b6040513d8b823e3d90fd5b634e487b7160e01b8a52601160045260248afd5b610dbc91503d808b833e610c888183611533565b38610330565b610dda9060203d6020116107d8576107c98183611533565b5038610272565b50732791bca1f2de4661ed88a30c99a7a9449aa84174610226565b506020813d602011610e28575b81610e1660209383611533565b81010312610b23576101ff90516101f2565b3d9150610e09565b634e487b7160e01b86526032600452602486fd5b634e487b7160e01b87526032600452602487fd5b60405162461bcd60e51b815260206004820152602660248201527f4b696c6c2053776974636820616374697665202d206f7065726174696f6e20626044820152651b1bd8dad95960d21b6064820152608490fd5b60405162461bcd60e51b815260206004820152601860248201527f43616c6c6572206d757374206265204161766520506f6f6c00000000000000006044820152606490fd5b8680fd5b8880fd5b8480fd5b8280fd5b80fd5b5034610f015780600319360112610f01576040517f00000000000000000000000000000000000000000000000000000000000000006001600160a01b03168152602090f35b5034610f01576020806003193601126110a357610f64611464565b7f0000000000000000000000000000000000000000000000000000000000000000906001600160a01b0390610f9c33838516146114ab565b16604051916370a0823160e01b83523060048401528383602481855afa928315610876578593611074575b5082156110375760405163a9059cbb60e01b81526001600160a01b03919091166004820152602481019290925282908290604490829087905af1801561102c5761100f578280f35b8161102592903d106107d8576107c98183611533565b5038808280f35b6040513d85823e3d90fd5b60405162461bcd60e51b81526004810185905260156024820152744e6f20746f6b656e7320746f20776974686472617760581b6044820152606490fd5b9092508381813d831161109c575b61108c8183611533565b81010312610b2357519138610fc7565b503d611082565b5080fd5b5034610f015780600319360112610f01576040517f00000000000000000000000000000000000000000000000000000000000000006001600160a01b03168152602090f35b5034610f01576003196080368201126110a357611107611464565b906001600160a01b036044358181169290839003610ef95761114c827f00000000000000000000000000000000000000000000000000000000000000001633146114ab565b60ff6001541661130a5784926040519461116586611501565b6002865260403660208801378361117b87611555565b9116905261118885611578565b526040519361119685611501565b6002855260403660208701376024356111ae86611555565b526064356111bb86611578565b52604051926111c984611501565b600284526040366020860137846111df85611555565b52846111ea85611578565b527f2494a915d576b32d2d414c253b041f04e4be248421bd2a389d8dd8acd08c6a6f6040516040815280611232611224604083018761159c565b82810360208401528a6115d9565b0390a17f00000000000000000000000000000000000000000000000000000000000000001691823b15610ef95760208591826112b7611297976112a76040519b8c9a8b9963ab9c4b5d60e01b8b523060048c015260e060248c015260e48b019061159c565b90868a83030160448b01526115d9565b90848883030160648901526115d9565b30608487015285810392830160a4870152528260c485015201925af18015610cb6576112e1575080f35b67ffffffffffffffff81116112f65760405280f35b634e487b7160e01b82526041600452602482fd5b60405162461bcd60e51b815260206004820152602360248201527f4b696c6c2053776974636820616374697661746564202d20626f742073746f706044820152621c195960ea1b6064820152608490fd5b5034610f015780600319360112610f0157602060ff600154166040519015158152f35b5034610f015780600319360112610f01576113c3337f00000000000000000000000000000000000000000000000000000000000000006001600160a01b0316146114ab565b60015460ff8116156113dc5760ff191660015580805580f35b60405162461bcd60e51b815260206004820152601960248201527f4b696c6c20537769746368206973206e6f7420616374697665000000000000006044820152606490fd5b9050346110a357816003193601126110a3577f00000000000000000000000000000000000000000000000000000000000000006001600160a01b03168152602090f35b600435906001600160a01b0382168203610b2357565b9181601f84011215610b235782359167ffffffffffffffff8311610b23576020808501948460051b010111610b2357565b156114b257565b60405162461bcd60e51b815260206004820152602160248201527f4f6e6c7920636f6e7472616374206f776e65722063616e2063616c6c207468696044820152607360f81b6064820152608490fd5b6060810190811067ffffffffffffffff82111761151d57604052565b634e487b7160e01b600052604160045260246000fd5b90601f8019910116810190811067ffffffffffffffff82111761151d57604052565b8051156115625760200190565b634e487b7160e01b600052603260045260246000fd5b8051600110156115625760400190565b80518210156115625760209160051b010190565b90815180825260208080930193019160005b8281106115bc575050505090565b83516001600160a01b0316855293810193928101926001016115ae565b90815180825260208080930193019160005b8281106115f9575050505090565b8351855293810193928101926001016115eb565b356001600160a01b0381168103610b235790565b9190820180921161162e57565b634e487b7160e01b600052601160045260246000fd5b9190820391821161162e57565b90816020910312610b2357518015158103610b235790565b906020908183820312610b2357825167ffffffffffffffff93848211610b23570181601f82011215610b2357805193841161151d578360051b90604051946116b385840187611533565b85528380860192820101928311610b23578301905b8282106116d6575050505090565b815181529083019083016116c8565b919260809361170a92979695978452602084015260a0604084015260a083019061159c565b6001600160a01b039095166060820152015256fea26469706673582212204c118a6378bf3f6f0a083c9250234fa86cff160a56a706282f3e2e594d1619db64736f6c63430008140033",
  "linkReferences": {},
  "deployedLinkReferences": {}
}