{
  "_format": "hh-sol-artifact-1",
  "contractName": "AfetiDevranArbitrage",
  "sourceName": "contracts/AfetiDevranArbitrage.sol",
  "abi": [
    {
      "inputs": [],
      "stateMutability": "nonpayable",
      "type": "constructor"
    },
    {
      "anonymous": false,
      "inputs": [
        {
          "indexed": false,
          "internalType": "uint256",
          "name": "netKar",
          "type": "uint256"
        },
        {
          "indexed": true,
          "internalType": "address",
          "name": "asset",
          "type": "address"
        }
      ],
      "name": "ArbitrajBasarili",
      "type": "event"
    },
    {
      "anonymous": false,
      "inputs": [
        {
          "indexed": false,
          "internalType": "address[]",
          "name": "assets",
          "type": "address[]"
        },
        {
          "indexed": false,
          "internalType": "uint256[]",
          "name": "amounts",
          "type": "uint256[]"
        }
      ],
      "name": "MultiFlashLoanBaslatildi",
      "type": "event"
    },
    {
      "anonymous": false,
      "inputs": [
        {
          "indexed": false,
          "internalType": "string",
          "name": "borsa",
          "type": "string"
        },
        {
          "indexed": false,
          "internalType": "uint256",
          "name": "girisMiktar",
          "type": "uint256"
        },
        {
          "indexed": false,
          "internalType": "uint256",
          "name": "cikisMiktar",
          "type": "uint256"
        }
      ],
      "name": "TakasGerceklesti",
      "type": "event"
    },
    {
      "inputs": [],
      "name": "ADDRESSES_PROVIDER",
      "outputs": [
        {
          "internalType": "contract IPoolAddressesProvider",
          "name": "",
          "type": "address"
        }
      ],
      "stateMutability": "view",
      "type": "function"
    },
    {
      "inputs": [],
      "name": "POOL",
      "outputs": [
        {
          "internalType": "contract IPool",
          "name": "",
          "type": "address"
        }
      ],
      "stateMutability": "view",
      "type": "function"
    },
    {
      "inputs": [
        {
          "internalType": "address",
          "name": "tradeAsset",
          "type": "address"
        },
        {
          "internalType": "uint256",
          "name": "tradeAmount",
          "type": "uint256"
        },
        {
          "internalType": "address",
          "name": "gasAsset",
          "type": "address"
        },
        {
          "internalType": "uint256",
          "name": "gasAmount",
          "type": "uint256"
        }
      ],
      "name": "executeMultiFlashLoan",
      "outputs": [],
      "stateMutability": "nonpayable",
      "type": "function"
    },
    {
      "inputs": [
        {
          "internalType": "address[]",
          "name": "assets",
          "type": "address[]"
        },
        {
          "internalType": "uint256[]",
          "name": "amounts",
          "type": "uint256[]"
        },
        {
          "internalType": "uint256[]",
          "name": "premiums",
          "type": "uint256[]"
        },
        {
          "internalType": "address",
          "name": "initiator",
          "type": "address"
        },
        {
          "internalType": "bytes",
          "name": "params",
          "type": "bytes"
        }
      ],
      "name": "executeOperation",
      "outputs": [
        {
          "internalType": "bool",
          "name": "",
          "type": "bool"
        }
      ],
      "stateMutability": "nonpayable",
      "type": "function"
    },
    {
      "inputs": [],
      "name": "owner",
      "outputs": [
        {
          "internalType": "address",
          "name": "",
          "type": "address"
        }
      ],
      "stateMutability": "view",
      "type": "function"
    },
    {
      "inputs": [
        {
          "internalType": "address",
          "name": "token",
          "type": "address"
        }
      ],
      "name": "withdrawToken",
      "outputs": [],
      "stateMutability": "nonpayable",
      "type": "function"
    }
  ],
  "bytecode": "0x60e0806040523461009d573360805273a97684ead0e402dc232d5a524153d7b0b733b4e360a05273794a61358d6845594f94dc1db02a252b5b4814ad60c05261146890816100a382396080518181816106b80152818161075d01528181610d2301528181610d6f0152610f47015260a05181611138015260c05181818161010a015281816105a50152818161060b01528181610ede015261104d0152f35b600080fdfe608080604052600436101561001357600080fd5b600090813560e01c9081630542975c14611124575080636ac5905714610f0d5780637535d24614610ec85780638947606914610d525780638da5cb5b14610d0d5763920f5c841461006357600080fd5b34610d0a5760a0366003190112610d0a5767ffffffffffffffff600435818111610d065761009590369060040161117d565b602435838111610d02576100ad90369060040161117d565b93604435818111610cfa576100c690369060040161117d565b9490916064356001600160a01b038116036109915760843590808211610cfe5736602383011215610cfe578160040135908111610cfe5736910160240111610cfa577f00000000000000000000000000000000000000000000000000000000000000006001600160a01b03163303610c97578315610c835761014781611320565b9360011015610c8357602061015c9101611320565b948015610c835760011015610c6f578315610c6f5761017d81358335611334565b9360011015610c6f5760206101989101356020830135611334565b6040516370a0823160e01b81523060048201529092906020816024816001600160a01b0386165afa80156109db578790610c3b575b6101da9150833590611357565b91737ceb23fd6bc0add59e62ac25578270cff1b9f6196001600160a01b0383168114610c20575b60405163095ea7b360e01b815273a5e0829caced8ffdd4de3c43696c57f7d7a678ff6004820152823560248201526020816044818c6001600160a01b0389165af1801561088457610c01575b5060405161025a81611214565b6002815260403660208301376001600160a01b03841661027982611268565b526102838161128b565b6001600160a01b03831690524261012c810110610b8657886102c391604051809381926338ed173960e01b835261012c42019030908935600486016113f8565b03818373a5e0829caced8ffdd4de3c43696c57f7d7a678ff5af1908115610884578991610be7575b50805180600019810111610bd35761032b7f396574f04db72fa9c597075aa4372d8627152b3bc1012d3561770a12479d63959260a092600019019061129b565b5193604051906060825260096060830152680517569636b537761760bc1b6080830152356020820152846040820152a160405163095ea7b360e01b8152731b02da8cb0d097eb8d57a175b88c7d8b47997506600482015260248101839052908890602083604481856001600160a01b0386165af1928315610b145761041393610bb4575b50604051906103bd82611214565b6002825260403660208401376001600160a01b03166103db82611268565b526001600160a01b0385166103ef8261128b565b52604051809381926338ed173960e01b835261012c420190309088600486016113f8565b038183731b02da8cb0d097eb8d57a175b88c7d8b479975065af190811561099e578891610b9a575b50805180600019810111610b86579161047c60a0927f396574f04db72fa9c597075aa4372d8627152b3bc1012d3561770a12479d639594600019019061129b565b516040519160608352600960608401526805375736869537761760bc1b608084015260208301526040820152a16040516370a0823160e01b81523060048201526020816024816001600160a01b0386165afa9081156109db578791610b54575b506040516370a0823160e01b815230600482015287906020816024816001600160a01b038c165afa908115610b14578291610b1f575b508581106109e6575b50506040516370a0823160e01b815230600482015290506020816024816001600160a01b0386165afa9081156109db5787916109a9575b506040516370a0823160e01b8152306004820152926020846024816001600160a01b038b165afa93841561099e578894610965575b50858210610908578484106108ae5760405163095ea7b360e01b81527f00000000000000000000000000000000000000000000000000000000000000006001600160a01b0316600482015260248101879052602081806044810103818c6001600160a01b0389165af180156108845761088f575b5060405163095ea7b360e01b81527f00000000000000000000000000000000000000000000000000000000000000006001600160a01b0316600482015260248101869052602081806044810103818c6001600160a01b038d165af1801561088457610865575b5061066c8683611357565b11156107dc57869461067d91611357565b80610746575b505061068f9250611357565b90816106a1575b602060405160018152f35b60405163a9059cbb60e01b81526001600160a01b037f00000000000000000000000000000000000000000000000000000000000000008116600483015260248201939093529291602091849160449183918691165af190811561073a575061070b575b8080610696565b61072c9060203d602011610733575b6107248183611246565b810190611364565b5038610704565b503d61071a565b604051903d90823e3d90fd5b60405163a9059cbb60e01b81526001600160a01b037f000000000000000000000000000000000000000000000000000000000000000081166004830152602482019290925294602092869260449284929091165af19283156107d15761068f936107b2575b8593610683565b6107ca9060203d602011610733576107248183611246565b50386107ab565b6040513d87823e3d90fd5b60405162461bcd60e51b815260206004820152605560248201527f564535204b4f52554d4153493a2047617a20766520626f72636c61722064757360448201527f74756b74656e20736f6e7261206b617a616e63207361676c616e616d6164696760648201527469206963696e20726576657274206564696c64692160581b608482015260a490fd5b61087d9060203d602011610733576107248183611246565b5038610661565b6040513d8b823e3d90fd5b6108a79060203d602011610733576107248183611246565b50386105fb565b60405162461bcd60e51b815260206004820152602c60248201527f416665746944657672616e3a2047617320626f72632067657269206f64656d6560448201526b736920796574657273697a2160a01b6064820152608490fd5b60405162461bcd60e51b815260206004820152602f60248201527f416665746944657672616e3a2054696361726920626f72632067657269206f6460448201526e656d65736920796574657273697a2160881b6064820152608490fd5b9093506020813d602011610996575b8161098160209383611246565b8101031261099157519238610587565b600080fd5b3d9150610974565b6040513d8a823e3d90fd5b90506020813d6020116109d3575b816109c460209383611246565b81010312610991575138610552565b3d91506109b7565b6040513d89823e3d90fd5b6109f09086611357565b60405163095ea7b360e01b815273a5e0829caced8ffdd4de3c43696c57f7d7a678ff60048201526024810193909352602083604481856001600160a01b0389165af1928315610b1457610aa793610af5575b5060405190610a5082611214565b6002825260403660208401376001600160a01b038516610a6f83611268565b526001600160a01b038916610a838361128b565b526040516338ed173960e01b815293849283924261012c01913091600486016113f8565b03818373a5e0829caced8ffdd4de3c43696c57f7d7a678ff5af180156109db57610ad3575b868161051b565b610aee903d8089833e610ae68183611246565b81019061137c565b5038610acc565b610b0d9060203d602011610733576107248183611246565b5038610a42565b6040513d84823e3d90fd5b9150506020813d602011610b4c575b81610b3b60209383611246565b810103126109915787905138610512565b3d9150610b2e565b90506020813d602011610b7e575b81610b6f60209383611246565b810103126109915751386104dc565b3d9150610b62565b634e487b7160e01b89526011600452602489fd5b610bae91503d808a833e610ae68183611246565b3861043b565b610bcc9060203d602011610733576107248183611246565b50386103af565b634e487b7160e01b8a52601160045260248afd5b610bfb91503d808b833e610ae68183611246565b386102eb565b610c199060203d602011610733576107248183611246565b503861024d565b50732791bca1f2de4661ed88a30c99a7a9449aa84174610201565b506020813d602011610c67575b81610c5560209383611246565b81010312610991576101da90516101cd565b3d9150610c48565b634e487b7160e01b86526032600452602486fd5b634e487b7160e01b87526032600452602487fd5b60405162461bcd60e51b815260206004820152603560248201527f416665746944657672616e3a20546574696b6c6579696369207361646563652060448201527420b0bb32902430bb3abd3a9037b636b0b634b234b960591b6064820152608490fd5b8680fd5b8880fd5b8480fd5b8280fd5b80fd5b5034610d0a5780600319360112610d0a576040517f00000000000000000000000000000000000000000000000000000000000000006001600160a01b03168152602090f35b5034610d0a57602080600319360112610ec457610d6d611167565b7f0000000000000000000000000000000000000000000000000000000000000000906001600160a01b0390610da533838516146111ae565b16604051916370a0823160e01b83523060048401528383602481855afa9283156107d1578593610e95575b508215610e405760405163a9059cbb60e01b81526001600160a01b03919091166004820152602481019290925282908290604490829087905af18015610e3557610e18578280f35b81610e2e92903d10610733576107248183611246565b5038808280f35b6040513d85823e3d90fd5b60405162461bcd60e51b815260048101859052602760248201527f416665746944657672616e3a2043656b696c6563656b20746f6b656e2062756c604482015266756e616d61646960c81b6064820152608490fd5b9092508381813d8311610ebd575b610ead8183611246565b8101031261099157519138610dd0565b503d610ea3565b5080fd5b5034610d0a5780600319360112610d0a576040517f00000000000000000000000000000000000000000000000000000000000000006001600160a01b03168152602090f35b5034610d0a57600319608036820112610ec45781610f29611167565b916001600160a01b03906044358281169081900361112057610f6e837f00000000000000000000000000000000000000000000000000000000000000001633146111ae565b60405194610f7b86611214565b60028652604036602088013783610f9187611268565b91169052610f9e8561128b565b5260405193610fac85611214565b600285526040366020870137602435610fc486611268565b52606435610fd18661128b565b5260405192610fdf84611214565b60028452604036602086013784610ff585611268565b52846110008561128b565b527f7210c49ec4f1ed8d7a0afd13ebac9bb3aed991101f77ac40923e9fcf6a086774604051604081528061104861103a60408301876112af565b82810360208401528a6112ec565b0390a17f00000000000000000000000000000000000000000000000000000000000000001691823b15610d025760208591826110cd6110ad976110bd6040519b8c9a8b9963ab9c4b5d60e01b8b523060048c015260e060248c015260e48b01906112af565b90868a83030160448b01526112ec565b90848883030160648901526112ec565b30608487015285810392830160a4870152528260c485015201925af18015610b14576110f7575080f35b67ffffffffffffffff811161110c5760405280f35b634e487b7160e01b82526041600452602482fd5b8380fd5b905034610ec45781600319360112610ec4577f00000000000000000000000000000000000000000000000000000000000000006001600160a01b03168152602090f35b600435906001600160a01b038216820361099157565b9181601f840112156109915782359167ffffffffffffffff8311610991576020808501948460051b01011161099157565b156111b557565b60405162461bcd60e51b815260206004820152603160248201527f416665746944657672616e3a20536164656365206b6f6e7472617420736168696044820152703134903a32ba34b5b632bcb2b134b634b960791b6064820152608490fd5b6060810190811067ffffffffffffffff82111761123057604052565b634e487b7160e01b600052604160045260246000fd5b90601f8019910116810190811067ffffffffffffffff82111761123057604052565b8051156112755760200190565b634e487b7160e01b600052603260045260246000fd5b8051600110156112755760400190565b80518210156112755760209160051b010190565b90815180825260208080930193019160005b8281106112cf575050505090565b83516001600160a01b0316855293810193928101926001016112c1565b90815180825260208080930193019160005b82811061130c575050505090565b8351855293810193928101926001016112fe565b356001600160a01b03811681036109915790565b9190820180921161134157565b634e487b7160e01b600052601160045260246000fd5b9190820391821161134157565b90816020910312610991575180151581036109915790565b90602090818382031261099157825167ffffffffffffffff93848211610991570181601f82011215610991578051938411611230578360051b90604051946113c685840187611246565b85528380860192820101928311610991578301905b8282106113e9575050505090565b815181529083019083016113db565b9060809261141e919695949683526000602084015260a0604084015260a08301906112af565b6001600160a01b039095166060820152015256fea264697066735822122054544dd216ccce99758a3bd70be9f07168c69ed8cf5306a4428713d76deec33e64736f6c63430008140033",
  "linkReferences": {},
  "deployedLinkReferences": {}
}